:04000003000022F1E6
:020000040000FA
:10000000085A0020F1220000FF580000DD22000005
:10001000DD220000DD220000DD22000000000000E3
:10002000000000000000000000000000A523000008
:10003000DD22000000000000DD220000DD220000C3
:10004000F1240000F124000089300000F1240000B8
:10005000F1240000F1240000F1240000F12400004C
:10006000F1240000F1240000F1240000F12400003C
:10007000F1240000F1240000F1240000F12400002C
:10008000F1240000F1240000F1240000F12400001C
:10009000F1240000F1240000F1240000F12400000C
:1000A000F1240000F1240000F1240000F1240000FC
:1000B000F1240000F1240000F1240000F1240000EC
:1000C000F1240000F1240000F1240000F1240000DC
:1000D000F1240000F1240000F1240000F1240000CC
:1000E000F1240000F1240000F1240000F1240000BC
:1000F000F1240000F1240000F1240000F1240000AC
:1001000053B94AB9002908BF00281CBF4FF0FF317E
:100110004FF0FF3000F00CB8ADF1080C6DE904CEE3
:1001200000F010F8DDF804E0DDE9022304B07047C8
:10013000704700BF034613F8012B002AFBD1181AA1
:10014000013870472DE9F0478C468E46089E1546CB
:1001500004461946002B40F0D080724547D9B2FAC8
:1001600082F74FB1C7F120030EFA07FC20FA03F320
:10017000BD4043EA0C0CBC404FEA154EA8B2BCFB94
:10018000FEF8230C0EFB18CC08FB00F943EA0C43E5
:10019000994528D9EB1808F1FF3204D2994502D9C4
:1001A000A8F102022B44A3EB0903A4B2B3FBFEFCAB
:1001B0000EFB1C330CFB00F044EA0344A04214D9AC
:1001C0002C190CF1FF3304D2A04202D9ACF1020386
:1001D0002C44241A43EA02401EB1FC400023346040
:1001E0007360BDE8F0874246DDE76346F1E7002A29
:1001F00079D0B2FA82F3002B3FD01946C1F1200327
:1002000002FA01F52EFA03F20EFA01FE20FA03F3C8
:1002100043EA0E034FEA154E00FA01F4B2FBFEFC6E
:10022000AFB20EFB1C201A0C0CFB07F842EA00428E
:1002300090455AD9AA180CF1FF3004D2904502D942
:10024000ACF102002A44A2EB08029BB2B2FBFEFC16
:100250000EFB1C220CFB07F743EA02439F4246D9E0
:10026000EB180CF1FF3204D29F4202D9ACF102022A
:100270002B44DB1B42EA004202E0AEEB0203012208
:100280004FEA154EAFB2B3FBFEFC200C0EFB1C3345
:100290000CFB07F840EA034398452AD9EB180CF108
:1002A000FF3004D2984502D9ACF102002B44A3EBF5
:1002B0000803A4B2B3FBFEFC0EFB1C330CFB07F7D8
:1002C00044EA0344A74216D92C190CF1FF3304D297
:1002D000A74202D9ACF102032C44E41B43EA0040DC
:1002E0000F46114678E71F2188E76046ABE7624674
:1002F000BFE76046DBE76346EFE7734506D916B90B
:10030000002108466DE7C6E9000EF9E7B3FA83F766
:1003100087B9734501D3824207D8841A6EEB030371
:1003200001209C461EB900215BE73846FAE7C6E982
:10033000004CF8E7C7F1200CBB4022FA0CF51D4336
:1003400020FA0CF12EFA0CF30EFA07FE41EA0E0128
:100350004FEA154900FA07F4B3FBF9F81FFA85FED6
:1003600009FB18300B0C08FB0EFA43EA00439A45D0
:1003700002FA07F240D9EB1808F1FF3004D29A458F
:1003800002D9A8F102002B44A3EB0A0389B2B3FB04
:10039000F9F809FB183308FB0EFE41EA03418E45CC
:1003A0002CD9691808F1FF3304D28E4502D9A8F17F
:1003B0000203294443EA0040A0FB0298A1EB0E018E
:1003C0004145CE46434602D306D14C4504D2B9EB53
:1003D000020E68EB05030138002EA4D0B4EB0E0228
:1003E00061EB030101FA0CFC22FA07F34CEA030368
:1003F000F940C6E9003196E74046C5E74346D9E7EC
:100400002DE9F04F0029D0F81090446889B06DDCD8
:10041000D9F80030D4E90068002B4ED1A389A56833
:100420000593B36806AA5B68414630469847071EA5
:1004300019DBDDE9067BA5FB072305FB0B330392E4
:100440000293DDE902102CA3D3E90023FFF758FE45
:10045000039B029A04904FF0FF3A9A45284B934130
:1004600005D26FF08507384609B0BDE8F08F6B08FC
:10047000A3FB075703FB0B7728461FA3D3E90023F1
:100480003946FFF73DFE1E4AAA45BA410346E8D366
:100490000499B268994229D3059900911568049A84
:1004A00041463046A84707460028DCD1208A07F09D
:1004B00056FB012389F80430D5E7B36806AA5B68C8
:1004C00041463046984707460028CCD1D9F800204D
:1004D0000346DDE90601FFF713FEA5890246D4E9CC
:1004E0000001836800951D685308DBE76FF015076E
:1004F000B9E700BFAFF3008000CA9A3B00000000DC
:10050000FFC99A3B036803F01F025B09026004D035
:10051000012B034818BF002070474FF0A0407047E0
:100520000003005007B5292101A80191FFF7EAFF58
:10053000019B019100EB8300094BD0F80027134089
:1005400043F00303C0F8003701A8FFF7DBFF019A6F
:1005500001239340C0F80835002003B05DF804FB88
:10056000F0F8FCFF13B53A490A78062392B901A8BE
:100570000193FFF7C7FF019B00EB8300354BD0F8D9
:100580000027134043F00C03C0F8003701230B7021
:1005900002B010BD68460093FFF7B4FF009AD0F890
:1005A0001035D34013F0010F2B4B07D02B4A0020FE
:1005B0000021C2E9000101221A70E9E71B78002B33
:1005C000E6D0264CD4E9003213430ED107F025FBC8
:1005D0004FF47A72A0FB020302FB0131C00B40EA28
:1005E0004140C90BC4E90001D2E707F016FB4FF404
:1005F0007A72A0FB020302FB0131C30BD4E9002095
:1006000043EA41439B1A4FEAD13161EB0001B3F554
:100610007A7F71F10001BBDB292101A80191FFF76D
:1006200071FF019B019100EB83000A4BD0F800277A
:10063000134043F00303C0F8003701A8FFF762FF3F
:10064000019A01239340C0F80C3505F072F9FCE7DC
:1006500027200020F0F8FCFF26200020A002002028
:100660001FB5244B244AC3F80026C3F80426C3F858
:100670000826C3F80C26C3F81026C3F81426C3F8BE
:100680001826C3F81C26FFF74DFF04F0CFFC01A885
:1006900000F058FB044604F0D5FC20B101F070F8DE
:1006A000164801F051FC164B1B68A34205D001F01F
:1006B00067F8124801F048FCFEE79DF8080069461B
:1006C00004F091FC08B105F051F9009A039B0D4C20
:1006D0001344019A12891344236003F037F900F0A0
:1006E0008FFC00F051FC00F079FC2068064B984725
:1006F000FEE700BF000001403546526E78820000E0
:1007000044130020400300200100002021B10129F2
:1007100006D06FF015007047044B53F83000704757
:10072000024B03EBC0035868704700BF8082000093
:100730002DE9F04F9DB0DFF8C880289FD8F8004021
:100740000397279F02970DF1500B269FCDF804B019
:100750000097299D81468A46164600F055F828B133
:10076000D8F8004020461DB0BDE8F08F55B15A467C
:10077000134603CB69601CA98B4228601A4605F119
:100780000805F5D10023009332464FF6FF7351461A
:1007900006A804F064FC05460028E1D1314648462D
:1007A0000B9F04F004FDB842DAD30DF1120304AA42
:1007B00005A906A804F0A1FC0028D1DB1CD1BDF8D6
:1007C0001230102BF1D1BDF81040202CC8D1059962
:1007D00023460CAA304604F078FF0028C0D12246F8
:1007E0000CA9584604F0D4FC0446064B1B689842FA
:1007F0004FF00105D9D0B3E7012DB1D1B2E700BF69
:1008000040000020441300202DE9F04F9DB0DDE9A9
:1008100028566846269F0C4693469A4600F088FB69
:1008200035B1002E04DD32462946684604F0E7FD66
:1008300063892289D4F80C90194D1A4C13449944B9
:100840000026B14507D82798694604F0FEFD002030
:100850001DB0BDE8F08FA9EB0608B84528BFB84623
:10086000C4F800564346C4F804565246C4F8085625
:100870003146C4F80C565846C4F81056C4F81456FD
:10088000C4F81856C4F81C5604F01FFF0028DFD126
:1008900042465146684604F0B2FD4644D1E700BFE7
:1008A0003546526E0000014038B50E4B002918BF86
:1008B0000B46436203F5006303650121044604F01F
:1008C000BEFC58B90221204604F0B9FC054638B9EF
:1008D000206A04F039FFE065284638BD0125FBE7B2
:1008E0000925F9E7440300202DE9F3471E468368F4
:1008F0008B4205460F46144643D95B1A934240D3B8
:1009000086B36A4604F077FB00283CDB013CDDF847
:10091000008027441D4CDFF878906A463946284607
:1009200004F069FB00282EDBDDE9007A28465246F8
:10093000394604F0F4FE002825DBC4F80096C4F81C
:100940000496C4F80896C4F80C96C4F81096C4F837
:100950001496C4F81896C4F81C966EB1474512D97F
:10096000013FDAE7511E39446A4604F044FB00288F
:1009700009DBDDF80080CDE75744B84503D30137E4
:10098000CBE74FF0FF3002B0BDE8F0870000014038
:100990003546526E10B52C2359434218146A0CB9CF
:1009A00004F0E4FF41580D4B994206D1D1681389F8
:1009B0005B1802D25189C91801D300200CE0A3684A
:1009C0009942FAD2106920F4F97020F00100000574
:1009D000000DB0FA80F0400910BD00BF3DB8F3969D
:1009E0001FB52C2303FB02010A6A0AB904F0BEFFFB
:1009F0000023CDE9023301934FF480730093034B3E
:100A0000FFF796FE05B05DF804FB00BF282000202C
:100A10002DE9F0412C2606FB01060546D6F820807C
:100A20000C461746B8F1000F01D104F09FFF04F007
:100A30003EFC10B93369DB0603D50E4B1868BDE8E0
:100A4000F08121462846FFF7A5FF60B90A4B1868D8
:100A50000A4B1B688342F2D0002CEED001214046A5
:100A600004F020FCE9E7224639462846FFF7B8FFA4
:100A7000EEE700BF3C0000204000002044130020AF
:100A800000487047481700202DE9F84F0B9F1B4C7A
:100A90001B4D884691469A460026BE4201D300204F
:100AA0000FE0A7EB060BBBF5806F28BF4FF4806B00
:100AB000144A5B4606EB0A01404604F006FE10B1FC
:100AC0000120BDE8F88F0A990E4A5B467118484626
:100AD00004F010FE0028F3D1C4F800565E44C4F8B8
:100AE0000456C4F80856C4F80C56C4F81056C4F896
:100AF0001456C4F81856C4F81C56CEE7000001403E
:100B00003546526E481300202DE9F04F89B00E464D
:100B1000044604F0F3FB014600B1FEE72046FFF770
:100B2000C3FEB0B900221146204604F0CDFB0546B5
:100B300010BB204604F014FCF0B17E4B012704A842
:100B4000CDE90473CDE9065504F0FDFBC0B904F00E
:100B50000DFF0123984284F85830E3D194F85830BF
:100B60008DF81730042B24D8012B24D800F097805F
:100B7000FF2384F8583092E0012384F85830EDE7E1
:100B8000284602F073FF831E022B05460ED804AAE6
:100B900039462046FFF73CFF674B1B68984205D05B
:100BA000664B1D68A84214BF0525012584F85850DE
:100BB000D4E7052BDAE7002303AA0121204603939B
:100BC00004F0F8FA05460028C1D1276A002FBED0EC
:100BD000D4F84C80B8F1000FB9D0D4F828A08146E1
:100BE000CA4515D0636A03EBC9032946D3F804B09C
:100BF000384600235A46FFF777FE0028A7D1039B0B
:100C00005D449D4268D3E56DB3FBF5F305FB0355E9
:100C1000E06D04F03AFBA26A636A013A196803EBDB
:100C2000C2030022D3F804E0724490429C46A3F130
:100C30000803F7D8DCF800000023411A3846FFF714
:100C400053FE0346002882D1CDE900053A464146CD
:100C50002046FFF719FF00287FF479AF384602F0ED
:100C60008DFE034600287FF472AF226D0146526864
:100C7000404604F00FFB034600287FF468AFD4E938
:100C80001402013A016850F8325000EBC207691AA9
:100C90007A68404604F0FEFA00287FF458AF94F8D2
:100CA0005830FF2B3FF453AF0022012B244F039207
:100CB00015D01146204604F007FB80B13D68102294
:100CC00000210DEB020007F047F8204604F02EFB50
:100CD000284609B0BDE8F08F09F1010980E700223C
:100CE00011462046FFF794FEDFF84C803D68D8F8A7
:100CF00000309842E3D1A842E1D0104B1B689842E3
:100D0000DDD00021204604F0F7FA0028D6D1039B5D
:100D100001330393039B012B00D0FEE7206A04F00C
:100D200068F93071236A5B683460D8F80050B360AA
:100D3000C5E700BF01010001441300203C00002072
:100D40004000002010B50446002004F093FA024849
:100D50002146FFF7D9FE10BD481700202DE9F04FBE
:100D60009DB0036802934368039383680493C36848
:100D70000593036906934369079383690893C369DD
:100D800009938A46DDE9062CDDE904B7DDE90215A1
:100D90009846DFF894E1089B009300265AF8064035
:100DA0005EF8049B0CAB24BA9C514FEAF223A14499
:100DB00083EAB213009C83EA72634B4424EA020480
:100DC00002EA0C0984EA09042344434485EA0B043B
:100DD0004FEA713888EAB1080C4005EA0B0984EA49
:100DE000090488EAB1580436A044402E03EB0704F6
:100DF00043445F46DDF8008040F087804B4E0A9602
:100E00004FF0100A56460AF1010A0DF1700E0AF071
:100E10000F070EEB870706F00F0957F8407C019784
:100E20004FEAB74888EAF71806F10E0707F00F07F0
:100E30000EEB8707093657F8407C4FEAF74E8EEAEB
:100E4000774ECDF82CE006F00F060DF1700E0EEB8C
:100E500086060EEB890956F8406C59F840EC76444A
:100E6000DDF804E088EADE08DDF82CE046448EEA8E
:100E7000972E764404EA02084FEAF42E2CEA04077F
:100E800087EA08078EEAB41EDDF8288049F8406C2E
:100E90008EEA746E774458F804EFCDF828807744D2
:100EA0003744009ECDF800C03E444FEA733E81EACD
:100EB00005078EEAB30E1F4001EA05088EEAB35E0D
:100EC00087EA08077744BAF1400F06EB0B0E374468
:100ED000AB4622D1029E3E440660039E1E44049B04
:100EE00046600B448360059B2B44C360069B7344A0
:100EF0000361079B23444361089B13448361099B5F
:100F00006344C3611DB0BDE8F08FCDF800C0AB46AF
:100F100094460D462246194640E794460D46224621
:100F2000194674463B466DE788820000C482000083
:100F300010B50446C8B17022002104F0DBFA0B4B57
:100F40000B4A0C490C48C4E900230C4BC4E90213BA
:100F50000B4BC4E904030B4BA36103F17453A3F5DA
:100F60002303A3F69243E361012010BD85AE67BB66
:100F700067E6096A72F36E3C7F520E513AF54FA54F
:100F80008C68059BABD9831FBFF36F8F72B6124B72
:100F90004FF0FF32C3F88020C3F88420C3F88820C4
:100FA000C3F88C20C3F89020C3F89420C3F898208D
:100FB000C3F89C20C3F88021C3F88421C3F888219A
:100FC000C3F88C21C3F89021C3F89421C3F8982169
:100FD000C3F89C21704700BF00E100E00749D1F849
:100FE00090200023C2F307221846934200DB70478B
:100FF000C1F89830C1F8A0000133F6E700ED00E039
:101000002DE9F0433F4ADFF80081404D404E4FF05C
:10101000FF33012185B05160C2F84833C2F808336C
:1010200002F5C04200275160C2F84833C2F80833C5
:1010300002F598325160C2F84833C2F8083358F8C4
:10104000044B4FF0FF3944F30730C4F8089301F024
:10105000C9F9012363600023C4F84C31D4F84C2152
:10106000C4F81031D4F81021C4F84431D4F8442124
:10107000C4F80035D4F80C250092D4F81425019258
:10108000D4F808250292D4F810250392C4F80C95E0
:101090006846C4F81495C4F80895C4F8109550F83B
:1010A000042B511C0FD002F01F01520920D0012A3D
:1010B00021D1324602EB8102D2F80017294041F0DB
:1010C0000201C2F800170133042BE8D17B1C022B6C
:1010D0004FF00107B3D10F4B4FF0FF32C3F8082593
:1010E0004FF080435F60C3F8082305B0BDE8F0838C
:1010F0004FF0A042DEE701F5E071002353F8213004
:10110000FFDE00BF00B0004088830000F0F8FCFF65
:101110000003005000F00140014B1B68184700BF5E
:101120004400002030B5044685B00D461022002151
:10113000684606F011FE02238DF802302A46044B61
:1011400001932146684603F015FE05B030BD00BF8F
:101150001911000008B50446EFF31183202383F32F
:101160001288BFF36F8F02F0F1FB204601F00EFAF8
:10117000024804F0C3F904F0DCFBFCE74C860000F5
:101180002DE9F043079D15B91560002012E00324F6
:10119000B5FBF4F404EB4407BD4218BF0134B4F1CD
:1011A000804F09D2A40001348C4200D838B91460B1
:1011B0006FF00B00BDE8F0834FF0FF34F7E7DFF886
:1011C000BCE004460021B94203F1030C04F104061B
:1011D0002CD3A942274624D21F7801F1010CAC453B
:1011E000264938BF5B784FEAA70E28BF002311F8C5
:1011F0000EE084F800E0AC4501EB131E3CBF9B0001
:1012000003F03C034FEA071707F0300738BFCB5C09
:101210001EF80770677028BF3D23A3703D23E3705D
:101220003746381A002310603B70AEE71CF8034CB9
:101230001CF8023C1CF8018C4FEAA40924011EF89A
:10124000099006F8049C04F030040EEB13199B007F
:1012500019F8044006F8034C03F03C030EEB981415
:1012600008F03F08E35C06F8023C1EF8083006F878
:10127000013C033134466346A5E700BFA98800005E
:101280002DE9F043DDF81CE0DFF8208100273C4623
:101290003E46764526D3D4BB14600020BDE8F083DB
:1012A0000135754531D013F805C0BCF1200FF7D0DA
:1012B000AEEB0509B9F1010F16D0BCF10D0F13D13A
:1012C00003EB050999F80190B9F10A0F1BD0B5425B
:1012D00005D1BCF13D0F0AD10137022F0AD96FF0B9
:1012E0001500DBE73546DCE7BCF10A0FEEE71CF042
:1012F000800FF4D118F80C607F2EF0D03F2E01D86B
:10130000002FECD101346E1CC3E72E46C3E704F076
:1013100007054FF0060CE4080CFB05F50CFB04F484
:101320000735E41B04EBD50470B18C420CD80027C0
:10133000DFF878E0DFF878801E44014603253C465C
:10134000B34205D10C1AA7E714606FF00B00A5E7B4
:1013500013F8019BA9F10A0C5FFA8CFCBCF1160F83
:1013600004D828FA0CFC1CF0010FE9D11EF809C0C2
:101370000134BCF1400F08BF013D0CF03F0C042CC0
:101380004CEA8717DCD17DB13C0C012D0C7002D1E9
:1013900001310024D4E7022D4FEA17244C7016BF08
:1013A0008F7002310331F4E72C46C9E72988000029
:1013B000090040002DE9F047058B04462807174631
:1013C0000CD501290CBF45F0100545F020052583FB
:1013D00087F31188BFF36F8FBDE8F087022905F00E
:1013E000070540F09480204604F095F8052864D85D
:1013F00001A353F820F000BFD11300000F15000027
:10140000BB1400007D14000097140000A914000014
:1014100001F007035A1F012A1FD8002221F00701FB
:10142000062BD4F8008089B2C4E9002209D14346D2
:1014300003E0628B013262831B68002BF9D141F01B
:1014400002012183204604F066F84FF000090028CD
:101450006DD041F02001218369E0042B0AD121F0F5
:10146000070189B22183204604F055F810B141F0FC
:10147000200121834FF00008C14658E02369D3F8CA
:101480000090238B23F0070343F0060323834FF0E0
:10149000000846464BE02369D3F80490238B23F0E1
:1014A000070343F00403F1E72369D3F80890238B83
:1014B00023F0070343F00503E8E74FF00008C146B7
:1014C000E7E7012243F00803238387F31188BFF382
:1014D0006F8F002A3BD1B8F1000F4AD1B9F1000F4C
:1014E00002D02D492046C847EFF31187202383F30C
:1014F0001288BFF36F8F238B23F008039BB22383E3
:10150000D9063FD523F01002228303F00705666950
:10151000218B002EBFF67CAF0023D4F8008021F091
:101520000701C4E9003341F0010121839946238B6F
:1015300003F0070AAA4502D0A268002AC1D1B8F177
:10154000000F02D1B9F1000FDAD00022BAE7A1688A
:101550000029C0D00D680029BDD04F6833465246DF
:101560002046B8471DB12B6829461D46F3E72B4698
:10157000FAE74146334652462046D8F8008003F049
:10158000F6FFA8E79A067FF523AF23F02002228317
:1015900003F0070527E700BF9B55000070B5104B0F
:1015A0001C680D46B4B10F4B196800238B4202DB57
:1015B0006FF0010070BD224612F8106B864202D017
:1015C00001331446F2E7E06806F0E5FA28B12C6032
:1015D0000020EFE76FF00C00ECE76FF01200E9E796
:1015E000480000209083000010B588B04368029343
:1015F0008368C068CDE903320A680023CDE9062379
:101600000C4601AA0449059304F02CFB079808B97D
:10161000059B236008B010BD6557000008B505485C
:1016200003F06CFF044803F069FF044803F066FF11
:10163000002008BD75860000A6860000D98600003F
:10164000F7B5224E30688368DB6B03B1984730688A
:101650008368DB6A002B31D11D4C1E4D30688368D6
:101660001B69002B2DD001220DF10701984701289D
:1016700027D1236843B92B681BB369681A682A60AD
:101680008B4208BF6A602360134A9DF807001188E7
:101690007F2904D823680B444F1C178018720A282E
:1016A000DCD123681188596000200C4918604D680E
:1016B0004DB9C1E9003310802060CEE7984700287B
:1016C000CAD103B0F0BD2B604B60F4E7001C0020D2
:1016D000A8170020B817002014200020B017002001
:1016E00010B5044B044618688368E1B25B689847FC
:1016F000204610BD001C0020F8B5054616460846D9
:10170000EFF3118C202383F31288BFF36F8F1949F5
:101710000B684BB1184C62689A4205D000221A60DF
:1017200062689AB9C4E90033144A13682BB1576848
:101730001C681460BB4208BF54608CF31188BFF36F
:101740006F8F0B602BB918463360F8BD1360636070
:10175000EAE75C68A042D8BF00F1FF3403F108015A
:101760002246284606F0D1FA00232B55601C01239F
:10177000EAE700BFAC170020B8170020B017002020
:1017800013B52149214A0023C1E90033C2E90033DE
:101790001F4A1C464868146020BBC1E9002201337F
:1017A000082B02F18802F5D11A4C1B48206006F084
:1017B000F2F928B32068836823B11B6C13B1174971
:1017C0000022984720688368DB6A0BB1984760B1B4
:1017D000206883681B69002BFAD001220DF10701F4
:1017E0009847F4E702604A60D9E70D4B2068002271
:1017F0001A8083681B6A03B19847002002B010BDAD
:101800004FF0FF30FAE700BFB8170020B0170020F4
:10181000C0170020001C0020D07E000041160000F0
:10182000142000202DE9F04FD9B0DFF8DC90DFF86C
:10183000DC80D9F8001041F20443ADF8083040F6DE
:101840000613ADF80C30324B1E680B785A1CA6EB11
:10185000080662F302030B7073BA4B808B88002476
:101860005BBA8B804C700822204604F082F8B5B237
:101870003246414604F07DF805F10A03D9F800101C
:101880001FFA83FB5BBAADF814300B68CDF8163045
:1018900007460DF1140A4B68CDF81A30324641461E
:1018A0007FBA0DF11E000C3506F02FFAADB22AF802
:1018B0000B7028AE04AF009553463A46BD21304622
:1018C000FFF75EFC134DBDF81080A04502DC59B057
:1018D000BDE8F08F2B6802215B6894B903A8A8EBE0
:1018E000040798472B687C2FA8BF7C2730193946FE
:1018F0005B6898472B6808485B6801213C4498471F
:10190000E3E702A8EBE700BF641C002028210020C9
:101910001C1C0020681C00204987000010B50A210B
:1019200004460A4806F007F902220949074806F06A
:10193000F5F82146054806F0DAF804480A2106F0D1
:1019400002F9BDE81040FFF76DBF00BF1C1C00206E
:10195000068700002DE9F04FD5B005AE0DF118094E
:1019600007AF4FF0FF343460C9F800403C6008AC6A
:1019700000250B460DF1280A0121CAE9005502464F
:10198000256030A80091CDE901550421099506F0A4
:1019900025F84022294620A806F0DEF98C4B1C933E
:1019A00005231D938B4B8C48CDE91E398B4B21931E
:1019B0008B4BCDE9233A8B4B26938B4B0321CDE9FF
:1019C0002B01CDE92837CDE92D360422279109AB2B
:1019D0001CA930A8229203F02EFF20B303250A2170
:1019E000824806F0A8F882498048022206F096F85C
:1019F0007E48294606F07BF84DB977497B4803229B
:101A000006F08CF87B4B7948196806F07AF80A21C1
:101A1000764806F098F8FFF705FF206803F054FEBB
:101A200055B0BDE8F08F33685A1CD7D0DAF8008083
:101A3000B8F1000FD2D0DAF804506F4A33B9D9F8B0
:101A40000010B1F1FF3F18BF0B4613600021106872
:101A5000FEF75CFE2146C0B2FFF7A0FD0028BDD115
:101A60003368644E002B4BD1D4F800A0336050464D
:101A7000DAF8089003F08EFB604A0146504603F006
:101A8000BAFA002840F0A1803B684B45A6D85C4AD2
:101A900010605C4A13603268594F206839682A44E4
:101AA000013A03F0A8FE0028386097DB2068DFF8D1
:101AB00054B103F049FEB5FBF0F303FB00F93368C2
:101AC0002068A5EB090A1D44DBF800309D4238BFB1
:101AD0004FF0000A03F038FE01284F4606D920686F
:101AE00003F032FE013818EA000F4CD1316820684B
:101AF0004B46424603F0FEFD00287FF46FAF2FE017
:101B00003268934201D0002569E73E4A12682B44AF
:101B10009342C0D962E7B945206828BFB94603F0AF
:101B20001AFE402201460CA806F016F94A46414624
:101B30000CA806F0EAF8316820684B460CAA03F0BE
:101B4000D9FD054600287FF44AAF33684B44336023
:101B5000C844A7EB0907206803F0F6FDB842DAD9BC
:101B6000BAF1000F12D13368DBF8002053443B4434
:101B700093423360C7D1214B20681A68114603F0A5
:101B80003AFEC50F2BE74FF04009E4E7206803F069
:101B9000E2FD082201460CA806F0DEF8524608EBEA
:101BA00007010CA806F0B1F8D4F80080316840466F
:101BB0007D1803F0C9FD0CAA03462946404603F0F0
:101BC00099FD00287FF40AAFCDE7012507E700BFA4
:101BD000098700000B780000188700000F870000BD
:101BE0001578000014870000117800001C1C0020EC
:101BF00006870000141C0020181C00200C1C00206C
:101C0000081C0020041C0020F0B50C68164F174B70
:101C100085B002380D46C4F58061009003AA3819DA
:101C20000131FFF72DFB0446D0B92B68039A13440A
:101C3000022B2B6011D93E8876BAB6B2023B9E4287
:101C40000BD13246B91C03F094FE30B9022E04D9F0
:101C50002B689A1E2A60FC540124204605B0F0BD72
:101C60004FF0FF34F9E700BFA9210020AC25002088
:101C700007B500230093044A04488023022105F09D
:101C800064FF03B05DF804FB282100201C1C002029
:101C90002DE9F04F0729B3B0044640F228810378BC
:101CA00013F0050F40F0238143885BBAA1F10805CA
:101CB0009BB2AB42C0F01B81974B186083885BBA24
:101CC000838000F10807FFF7D3FFA688012E40F0BC
:101CD000B980E37923B1012B00F0AD8008200CE13D
:101CE0002778FEF7CDFE054603F0C4FA284603F038
:101CF00005FB07F007070146002840F09A802846B8
:101D0000FEF7D2FD0446002840F08F80002F40F0FF
:101D10008E8031468148DFF80882DFF80892DFF8CC
:101D200008A205F008FF81497C48062205F0F6FE6E
:101D30007A48052105F0FBFE2646734205F1200294
:101D400003F02C0352F803B0BBF1000F52D0202354
:101D500006AA00215846D8F8007003F0B6FC069B8E
:101D60004B450CD10023CDE902330193402300936E
:101D70005A460EAB06A92846FEF7DAFC0746DAF803
:101D80000030BB4236D11421644805F0D4FE042251
:101D90006749624805F0C2FE3146604805F0B1FE71
:101DA00064495E48072205F0B9FEBDF82E30019364
:101DB0000EAF9DF82D3000935F4A9DF82C304021E6
:101DC000384602F0ADFF0C9B43B1421E3E2A05D8B7
:101DD000C0F14001594A384402F0A2FF3846FEF7EC
:101DE000A9F9394602464D4805F098FE4B481421A2
:101DF00005F0A9FE731C022B4FF001069DD10521B1
:101E0000464805F09CFE3146444805F09CFEFFF72D
:101E100009FD284603F08AFA14B12046FFF77EFD3B
:101E200033B0BDE8F04FFFF723BF3446F1E7082495
:101E3000EFE73446F1E72946384633B0BDE8F04FC6
:101E4000FFF788BD002E7FF449AFE379012B53D013
:101E5000052B57D0002B7FF441AF05930493CDE9B8
:101E60000133012300930EA82B463A46042105F0C6
:101E7000B5FD0EA804AC05F0E5FC00283AD006A993
:101E80000EA805F0D3FC002834D0079D012D21D1E8
:101E9000069B1B78642B1DD121460EA805F0C6FCBD
:101EA00040B30EA805F0F7FC20B30A211B4805F04B
:101EB00042FE234919482A4605F030FE17482146BC
:101EC00005F029FE58B90224FFF7D2FE2046FFF79D
:101ED00025FD0CE000210EA805F0F4FCCDE70F482D
:101EE0000A2105F030FE0028EDD0FFF79BFC33B04F
:101EF000BDE8F08F0324E7E7304633B0BDE8F04F8C
:101F0000FFF70CBD3046FFF709FD0E4805F027FE30
:101F10000120FFF71FF900BF641C00201C1C0020DB
:101F2000400000203DB8F396441300201C870000B9
:101F30002387000028870000308700003C870000CE
:101F40004087000090D003002DE9F743284FDFF8C9
:101F5000A480294E01233B70284B002405460094A1
:101F600018603B7813B903B0BDE8F083244B40F20E
:101F70000149C3F80086C3F80486C3F80886C3F88D
:101F80000C86C3F81086C3F81486C3F81886C3F805
:101F90001C86FEF7E7FA2B6801AAA9EB04013019A9
:101FA00098470028019B0FDC002BDAD004443378DB
:101FB000062B10D17378092B12D1002300936946A8
:101FC000A01EFFF721FE0BE00444002BEFD14C458F
:101FD000C7D10024C5E7042B02D17378142BEED0AF
:101FE0000128F6D1009907480239FFF751FEF0E7C2
:101FF000A82100203546526EAA250020681C00202A
:1020000000000140AB21002008B50348034A00212D
:10201000121A03F066FC08BDA0020020082A002066
:102020000748084A084908B5121A03F05CFC07483B
:10203000074A0849BDE80840121A03F054BC00BF23
:102040003C0000209C0200205C8900000000002071
:102050003C0000202089000030BFFFF7FDBF00BF1B
:10206000134B9A6A12F0007F9A6A14BF1E201D203B
:1020700012F0807F9A6A18BF1F2012F4002F9A6A0C
:1020800018BF212012F4802F9A6A18BF222012F460
:10209000003F9A6A18BF232012F4803F9A6A6FEAC1
:1020A00002426FEA12429A6218BF2420704700BFB2
:1020B00000ED00E010B5194B0246986A9C6A10F4D6
:1020C000805F14BF1720162014F4006F9C6A18BF9D
:1020D0001820A40509D5986B986A000404D51AB194
:1020E0009A6A22F400429A6219200C4B9A6A12F4FE
:1020F000806F9A6A18BF1A20D2050CD49B6A13F419
:10210000005F18BF1C20054A936A43F47F43936223
:1021100000230B7010BD1B20F5E700BF00ED00E0B1
:1021200010B51C4B0246986A9C6A10F0100F14BF41
:102130001120102014F0080F9C6A18BF1220A40769
:1021400009D5586B986A000604D51AB19A6A22F02C
:1021500080029A6213200F4B9A6A12F0010F9A6A5A
:1021600018BF142012F0200F9A6A18BF1520D40649
:1021700058BF9B6A074B9A6A920642BF5A6A22F47A
:1021800000525A629A6A42F0FF029A6200230B7070
:1021900010BD00BF00ED00E0F0B5494B5B688BB0AF
:1021A0000446C3F30803002585F31188BFF36F8F3E
:1021B00002F07F40B0F17F4F11D102F00C000828EF
:1021C0000DD010074CBF0C4601250022033B8DF8B3
:1021D0000720032B05D8DFE803F024676B642C4647
:1021E000F3E700239DF80720CAB902AE04F12007E7
:1021F00020686168324603C20834BC421646F7D1F3
:10220000099A002D58D0C2F3080121B96FEA522271
:102210006FEA4222099202A9184603F066FB0BB04E
:10222000F0BD274BDA6A9107DBD4DA6A002AD8DBE3
:10223000DA6A5200D5D55A69A16942F480725A61AE
:10224000BFF34F8FBFF36F8F31F8022C596921F420
:1022500080715961BFF34F8FBFF36F8F02F47F43DB
:10226000B3F55F4F04D1D2B2022A01D12368B9E796
:10227000134B9A6AD2B232B10DF107010120FFF778
:102280004FFF0346AEE79A6A12F47F4F05D00DF177
:1022900007010120FFF70EFFF3E79B6AB3F5803FCC
:1022A0009FD3FFF7DDFEECE70DF107010020E6E725
:1022B0000DF107010020EDE76FF30802AAE700BF68
:1022C00000ED00E0044B5A6942F010025A615A696D
:1022D00022F008025A61704700ED00E0EFF3088039
:1022E000EFF3098101B57246FFF756FF01BD00BF4C
:1022F000002080F31488BFF36F8F0F4880F30888A5
:1023000001F00AFC00200D490860BFF34F8F00F078
:1023100019F8202080F3118809484FF40061401813
:1023200080F30988EFF314800221084380F31488B6
:10233000BFF36F8F00F09EF8085A002094ED00E084
:10234000082A002072B6002383F31388144B4FF041
:10235000FF32C3F88020C3F88420C3F88820C3F874
:102360008C20C3F89020C3F89420C3F89820C3F8B9
:102370009C20C3F88021C3F88421C3F88821C3F8C6
:102380008C21C3F89021C3F89421C3F89821C3F895
:102390009C2162B6BFF34F8FBFF36F8F704700BFB2
:1023A00000E100E01EF0040F0CBFEFF30880EFF334
:1023B0000980816911F8021C0229FFD001B572461B
:1023C00003F099FA01BD00BF40B2002807DB044AC0
:1023D0004109012300F01F00834042F8213070477B
:1023E00000E100E040B200280CDB4309064900F0A0
:1023F0001F0020330122824041F82320BFF34F8F7A
:10240000BFF36F8F704700BF00E100E0054B42094A
:1024100000F01F0053F82220012303FA00F01040BF
:10242000704700BF00E100E040B20028A8BF00F103
:10243000604001F10101B8BF064B4FEA4111ACBF4A
:1024400000F5614000F00F00C9B2B4BF195480F824
:102450000013704714ED00E0044B054A23F07F039E
:102460009360BFF34F8FBFF36F8F70470000000082
:1024700000ED00E008B5FFF7EFFF074AD2F888301B
:1024800023F47003C2F88830FFF7BEFDFFF7C8FDE4
:1024900000F022F802F0D2FA00ED00E080B50C4620
:1024A00007461546084E86F30988002004498847E8
:1024B000204629461A46B84702488047FEE70000F2
:1024C0001559000023590000085A0020014B102222
:1024D0001A61704700ED00E0044800232021C21873
:1024E0000133302B82F80013F9D1704700E100E08E
:1024F00008B5EFF30583064A103B02EBC30152F81F
:10250000330049688847BDE8084003F02EBA00BF91
:102510000480000008B5054802F0F0FF002383F3B3
:102520001188BFF36F8F0423184602DF4287000033
:102530000C4B0122C3F840254FF080434FF08051EF
:10254000C3F87825D1F83001082805D1D1F8341125
:10255000022908BFC3F838260122C3F880250020CD
:10256000704700BF00E0014048B1054B054A1B68B9
:10257000B3FBF2F35843044B43F001031847704791
:102580007002002040420F0070820000BFF34F8FA6
:102590000549064BCA6802F4E0621343CB60BFF3FF
:1025A0004F8F00BFFDE700BF00ED00E00400FA051B
:1025B00008B5054A054B136010463F23536001F0F0
:1025C00079FB002008BD00BF6C1C0020FFFF0F003E
:1025D000036803F01F025B09026004D0012B03486B
:1025E00018BF002070474FF0A04070470003005014
:1025F00037B51F2101A80191FFF7EAFF019B194C94
:10260000019100EB83000121D0F80037234043F40F
:10261000A06343F00303C0F8003701A8FFF7D8FF19
:10262000019B01FA03F3C0F80835142568460095AC
:10263000FFF7CEFF009B009500EB8300D0F800373A
:10264000234043F4E06343F00303C0F800376846D7
:10265000FFF7BEFF009B9940C0F80C15002003B0A7
:1026600030BD00BFF0F8FCFF13B504460B4803F083
:10267000CFF9012802D010F1860F0CD107480123B1
:102680000DF10702002103F0CBF920B99DF80730C6
:102690001B1B5842584102B010BD00BFCC7F000048
:1026A000014803F0EDB900BFCC7F0000084B70B5C6
:1026B000C31A0D4607499B10044659430648402259
:1026C00003F00AFA2B4601462046BDE87040184741
:1026D000881C0020B76DDBB67C7E000073B50C4C07
:1026E0000C4A4023041B00930D460B460A49A410D4
:1026F00061430646094803F01BFA014628B13046FB
:102700002B4602B0BDE87040184702B070BD00BF54
:10271000881C0020A35B0000B76DDBB67C7E000048
:102720000022F8B5012105461046FFF77DFE10484E
:1027300001F0E8FA0446B8B901F004FB2F690D492D
:10274000384602F037FF031E09DB01263E642D697F
:10275000084905F11C0002F02DFF031E02DA1C4699
:102760002046F8BDEE64FBE76FF00404F8E700BF15
:1027700071280000FC83000010B5EFF311842023C2
:1027800083F31288BFF36F8F074A136823F00201A7
:10279000DB07116002D4012004F05AF984F3118898
:1027A000BFF36F8F10BD00BFD81C002030B4104B9A
:1027B0000C2202FB003301460020D3E90E5298633D
:1027C000EFF31180202484F31288BFF36F8F1C6C09
:1027D00004F0C00444F002041C6480F31188BFF3C9
:1027E0006F8F1DB12B46034830BC184730BC704773
:1027F000881C00207C7E000010B4EFF311802022A2
:1028000082F31288BFF36F8F17490B6843F00204FD
:1028100013F001030C601AD04FF08043D3F80C146E
:10282000D3F80C3413F0010311D0EFF3118182F3CC
:102830001288BFF36F8F0D4A136C03F0C00343F08F
:102840000203136481F31188BFF36F8F012380F3B8
:102850001188BFF36F8F1BB110BC0020FFF7A6BF1C
:1028600010BC012004F0ECB8D81C0020881C00200B
:1028700010B1012804D07047034B1B6C5B0701D1DA
:10288000FFF794BF704700BF881C00202DE9F0417E
:102890003549BFF35B8F0746012251E8003F41E80D
:1028A00000200028F9D1BFF35B8F33B92F4930489E
:1028B0004B60CB608A6002F090FE7B1E012B4AD8F1
:1028C000012F07D14FF08043D3F81C3403F00303EA
:1028D000012B40D005F084F9054660B1EFF3118675
:1028E000202383F31288BFF36F8F01254FF08044BC
:1028F0004FF001081EE01F4B1B78002BEED04FF06D
:1029000080430222C3F808230646EFE7304603F06F
:102910001DF8D4F81835184A63B9D4F8041149B130
:10292000C4F80431D4F80431C4F81885C2F88081A1
:10293000C4F80880D4F81814D4F81834CA03E5D5BC
:1029400003F00303012B01D0012FDFD12DB186F35A
:102950001188BFF36F8FBDE8F0814FF080430222F2
:10296000C3F80423F7E700BF841C0020741C002078
:10297000A41C0020072A002000E100E000290369D0
:102980000ADC1B6813B11360002070474368996824
:10299000034BB3FBF1F3F6E76FF01500704700BF90
:1029A00000CA9A3B024B0B6001231360704700BFC3
:1029B000E41C0020004870473484000010B504F087
:1029C0004BFB034C206004F043FB6060002010BD13
:1029D000E41C00204FF08042D2F81015D2F81035D8
:1029E00001F01E0123F01F030B4343F00103C2F863
:1029F0001035024B00221A70704700BFAC2900202E
:102A00004FF08053D3F83031082B20D14FF0804263
:102A1000D2F81015CB071AD5D2F8103501F01E01E7
:102A200023F01F030B43C2F81035D2F808315BB115
:102A3000D2F8103523F01F030B4343F00103C2F813
:102A400010356FF08B007047024B01221A70002086
:102A5000704700BFAC2900202DE9F0410D46164615
:102A600004F0F6FA31460746284603F030F928B359
:102A7000B5FBF7F307FB135303BBB6FBF7F407FBF8
:102A80001464DCB9B74213D804F0E2FADFF83480FA
:102A90000746FFF7B5FF044668B9284601F0ECFB8E
:102AA00098F800300BB1FFF795FFF61B3D44F0D1CD
:102AB0002046BDE8F0816FF08B04F9E76FF0150454
:102AC000F6E700BFAC2900202DE9F8430E4630465A
:102AD000194617461C4603F0FAF830B346EA0405D7
:102AE00015F0030521D11CB3DFF8489024F003044E
:102AF000AC4206EB050807D10F4AD2F80034DB07D9
:102B0000FBD50020BDE8F883FFF77AFF50B979596B
:102B1000404601F0CDFB99F800300BB1FFF75AFFAA
:102B20000435E5E76FF08B00ECE76FF01500E9E79F
:102B30002046E7E7AC29002000E001402DE9F04302
:102B4000476840F20636D0063B7C87B002EA0606AC
:102B500054BFC2F3401C4FF0030C01F01F05B6F543
:102B6000837F144645EA43158DF803C044D00DD841
:102B7000062E16D005D8A6B1022E3FD06FF0150054
:102B800037E0B6F5807FF9D101260AE040F2022253
:102B9000964235D0B6F5407F34D0B6F5007FEDD102
:102BA0000226220330D57A6801238B40C2F808350B
:102BB000B868A0BB05F01F036D092DD0012D77D19A
:102BC0003E4A02EB8302C4F30043D2F8001783F0BD
:102BD0000103C4F3404444EA430421F4E16144EABC
:102BE0008C0421F0070144EA06230B43C2F80037A6
:102BF000002007B0BDE8F0830726D2E70426D0E71F
:102C00000526CEE70326CCE7630341BF01237A689C
:102C10008B40C2F80C35CBE74FF0A042D1E70DF165
:102C20000202294604F084F914F4403F80460CD196
:102C3000B868294604F0B1F9B8F1000FD8D19DF871
:102C40000210B86801F014FAD2E74FF0000901ABA6
:102C5000CDE90199CDE90439CDF80C90B86803AA03
:102C6000294604F03AF84845C2DB14F4003314D086
:102C7000C4F300449DF803308DF80E3084F0010455
:102C80008DF80C608DF80D40B8684B4603AA2946B4
:102C900004F0D6F80028CFDAAAE7CDE904330DF125
:102CA00003030393B86803AA294604F016F8F1E772
:102CB00003F5E07350F82330FFDE00BF000300503F
:102CC000420970B5034602D0012A17D070BD0D4EDF
:102CD000326951680029F9D003F01F0301250C68FF
:102CE0009D400029F2D08A682A4002D04B683046C5
:102CF00098472CB1236821461C46F2E7024EE7E7CD
:102D00002346F8E7B47E0000987E000038B5456899
:102D1000A86890B104F03BF9014670B9A86804F0C6
:102D20001AF9044658B902460649A86804F0FDF8A5
:102D3000224605210620FFF777FB002038BD6FF003
:102D40000400FBE7C12C0000F0B544681646A068FB
:102D5000227C01F01F0587B045EA421500286DD09E
:102D6000B6F5001F04D1294604F06AF9002056E0A8
:102D70006268607CC2F8240501AA0020B6F5800FC5
:102D80000190506037D1B3F1007F14BF05230423B5
:102D90008DF804300023CDE904230393E36823FA7C
:102DA00001F111F001010DF103073AD1B6F1A07F55
:102DB00037D105F01F036A0903F5E07326D0012A15
:102DC0003FD1214A52F82330DB072AD4A0683A4683
:102DD000294604F0ADF816301BD00297A06803AA6C
:102DE000294603F07AFF002819DBA0680122294652
:102DF00004F0D5F8BAE7B3F1C06F05D0B3F1007FA6
:102E000014BF01230223C3E70323C1E74FF0A0420D
:102E1000D8E7A068394601F031F90028DDDA07B0BB
:102E2000F0BDA0683A46294604F082F80028D5D1C2
:102E30009DF80310A06801F01BF9CFE76FF0850043
:102E4000EDE751F82330FFDE00030050036803F084
:102E50001F025B09026004D0012B034818BF002049
:102E600070474FF0A0407047000300502DE9F04F2D
:102E700000EB8109554985B01546064640F2FF1A18
:102E8000B14503D1002005B0BDE8F08F3368C3F32E
:102E9000C72818F00808C3F3C322C3F3080440F09E
:102EA00091804B48544508BF4FF0FF34B3F1D05FD9
:102EB000875C4FEA136210D2192A10D8DFE802F0BB
:102EC00012232A392D34390F0F0F0F0F0F0F0F0F49
:102ED0000F0F0F0F0F0F3F797C7F4E2A2CD06FF012
:102EE0008500D0E7C5F80C45621C60D003A80394A8
:102EF000FFF7ACFF039A012303FA02F2C0F808259A
:102F00009B46584631E0C5F81445631C4FD04FF03E
:102F1000000BF6E7C5F80845E6E7C5F808454FF0A9
:102F2000000B601C16D142E0C5F80C454FF0010BB8
:102F3000F7E7C5F81045E8E7C5F81445D4E7C5F844
:102F400060457388621C03F0010330D0002BCDD1A3
:102F50004FF0010B03A80394FFF778FF039A844610
:102F6000012000FA02F2CCF80C253268019202F43A
:102F7000004CBCF1000F08BF804603A818BF4FF0FB
:102F8000010B0394FFF762FF039C019A00EB84009E
:102F9000C2F34122D0F800473F0247EA820747EADE
:102FA00008070C40274347EA4B07C0F80077043670
:102FB00066E7C5F86445C4E7C5F86845C1E7C5F8E4
:102FC0006C45BEE76FF015005DE700BFF0F8FCFF51
:102FD000EC880000036803F01F025B09026004D064
:102FE000012B034818BF002070474FF0A0407047E6
:102FF0000003005073B503694168224A044618462D
:1030000004F09DF800283BDB636825691E6B01AA6C
:103010000021304602F06CFF002805DB019B32687E
:1030200019791868FFF722FF00210E462B6806F574
:10303000AC7253F82230002B0EDB01A80193FFF78E
:10304000C9FF019AD0F80435D34013F001031CBF27
:103050000123B3400B43D9B20136042EE6D100223E
:1030600001256368186A05FA02F30B40B3FA83F38B
:103070005B09DB0320F812300132042AF1D1002071
:1030800002B070BD175F0000684620F007018D4652
:1030900001B5234BD3F80423D20517D5D3F820214B
:1030A000A2B1EFF31182202181F31288BFF36F8F59
:1030B000D3F8201131B10021C3F82011D3F8201129
:1030C0000121D96082F31188BFF36F8F154B144A29
:1030D0001B68D2F8581163B189B100211961D97BFD
:1030E00019B94FF48001C2F808139A7B3AB1002253
:1030F0009A7302F03AFCBDE8014085467047084AE1
:10310000D2F8241121B10021C2F82411D2F82421CF
:103110001A68002AEDD0596803489047E9E700BFD4
:10312000002000401C010020D07E00002DE9F0416D
:10313000044647680D4604F053FD88B14FF020085F
:10314000EFF31186314688F31288BFF36F8F606802
:1031500003F060F830BB86F31188BFF36F8FEFE7A1
:103160001D4B1B78002BE9D04FF0200864266068C7
:1031700003F050F850B9012003F011FC013EF6D1E4
:10318000F4E786F31188BFF36F8FEFE7EFF3118653
:10319000314688F31288BFF36F8F606803F03AF806
:1031A0000028EED0BB691D706368BA691B680020F7
:1031B000C3F844250122C3F84825C3F82001D3F8F9
:1031C0002041C3F85801D3F858019A6081F311885F
:1031D000BFF36F8FBDE8F081072A00202DE9F04191
:1031E000064604690F469846002A65D122670023E7
:1031F000636704F1880204F1740104F1700003F0C4
:10320000E8F80546C4F88400B8F1000F5AD1C4F8B4
:1032100078800023E36704F1900204F17C0104F15B
:10322000780003F0D6F80023D4F874C0C4F88C00FA
:10323000E3661A4662454DD10022D4F87CE011467F
:1032400071454ED193422CBFC4F88030C4F8802021
:1032500015B1D4F888302BB900284BD0D4F8903071
:10326000002B47D03946304600F08CF8054600BBAD
:1032700084F894002149E765304603F051FA94F848
:103280009430002BFBD03946304603F04AFA5C34C8
:10329000304603F0C9F8204603F079F9054640B1FD
:1032A00010F1740F05D1304603F092FA204603F076
:1032B0006EF92846BDE8F08113682367002B96D08D
:1032C000536895E7D8F80030A367002BA1D0D8F851
:1032D00004309FE7216F01EBC201013249680B44C2
:1032E000A8E7D4F878C00CEBC10C0131DCF804C0BD
:1032F0006244A5E76FF01505DBE700BFB56300008A
:1033000002461248824210B517D21148824214D2A6
:103310001048824211D2104B9A420FD80F4B9A425A
:103320000ED80F4B9A420DD80E4B9A420CD80E4C29
:103330000E4B0F48A24298BF184610BD0D48FCE73F
:103340000D48FAE70D48F8E70D48F6E70048E801B0
:103350000024F40000127A00FF083D007F841E0064
:103360003F420F001FA107008FD0030048E8010073
:1033700090D0030000093D0080841E0040420F00F1
:1033800020A10700F0B5056995F828308BB00646F6
:103390000C460BB3EA6A0B689A421DD12A6B4B6844
:1033A0009A4219D195F84030087D984214D1B5F869
:1033B00044200B8B9A420FD16B6B8A68002874D023
:1033C000934209D1AA6BCB685A4032F47F4003D1B3
:1033D000EA6B0B699A4266D0A288110500F18280DF
:1033E00012F0090040F0818002F4FC63B3F5807FA5
:1033F0007BD12168414B994277D92B687768D3F804
:1034000008154B1C11D012F0020201F01F0C4FF0F6
:1034100001034FEA511150D100294BD0994267D195
:10342000374A03FA0CF3C2F80C354FF0FF3303931D
:103430002068BB7F8DF81230FFF762FFBB698342C3
:1034400094BF05930590A388990703F0040240D523
:10345000002A0CBF02220322C3F300138DF8193097
:103460004FF0FF33079397F820308DF82030012379
:103470008DF823308DF8243095F828308DF81820F9
:103480004BB36946284603F0C7FF60B905F12C032A
:1034900004F11C0254F8041B43F8041B9442F9D1B4
:1034A000012385F828300BB0F0BD9A4294D1AA6B65
:1034B000CB688FE74FF0A042B3E739B101291AD1A9
:1034C0000F4A03FA0CF3C2F80835AEE74FF0A042FA
:1034D000F7E79208C0E70B4A33466946284603F0EF
:1034E0007CFFD2E76FF08500DDE76FF01500DAE7CB
:1034F000C2F80C25FFDEC0F80805FBE747E801002D
:1035000000030050EB66000070B5012383400F4AB2
:10351000BFF35B8FDC4352E8001F01EA040542E879
:103520000056002EF7D1BFF35B8F4FF480328240FC
:103530000748C0F80823BFF35F8FBFF36F8F03EA1C
:103540000100003818BF012070BD00BF1C1D002005
:103550000010014070B41249D1E90034D01AC318E8
:1035600044F1000422F07F46C1E90034A6F50013BF
:10357000B3F5400F09D20B4B1B681A0A1B069C19A6
:10358000094B42F10005C3E90045EFF31181202307
:1035900083F31288BFF36F8F70BC01F0B3BA00BF22
:1035A000B8020020201D0020C002002011B3BFF38C
:1035B0005B8F0123104A834052E800CF4CEA030C92
:1035C00042E800C10029F7D1BFF35B8F0B4A4FF4EB
:1035D00080338340C2F80433094BBFF35B8F1B6811
:1035E000BFF35B8FC340DB0742BF064B4FF4003293
:1035F000C3F80021704700BF1C1D002000100140CF
:10360000181D002000E100E00D4B1868010A0006BB
:10361000BFF35F8F0B4BD3F80435181841F100014D
:10362000B3F5801F0AD2084BD3E90023904271EB17
:10363000030303D210F1807041F10001704700BF15
:10364000201D002000100140C00200202DE9F04F95
:1036500085B016461F469DF840A00446FFF754FF6C
:103660000190FFF7D1FFB04271EB07035ED23E4BF2
:10367000301A67EB0101984271F1000109D36FF034
:10368000150520460199FFF791FF284605B0BDE8D2
:10369000F08F364B03EB0413D3E902239F4208BF9C
:1036A000964254D032494FF4803804F1500508FA5C
:1036B00004F8AD00C1F848832046ADB203F0E7F846
:1036C00026F07F4B05F1804504F5A87305F5883594
:1036D000DC464FF003090293029A2CF07F4341F835
:1036E0002230C1F84483D1F80435224A6FF0020039
:1036F000C01A604420F07F40904228D9286868B101
:10370000D1F804350393A3EB0B0020F07F40B0F514
:10371000000F1CD9204603F0BAF8039BBAF1000F42
:10372000ADD109EB030C09F10109D5E7BAF1000F9E
:10373000A5D10123104ABFF35B8FA34052E8000FCD
:10374000184342E800010029F8D1BFF35B8F074915
:103750000E98230101EB0412C8500F9B5360C2E97D
:10376000026700258DE700BF01008000A80200204D
:1037700000100140FDFF7F00181D00207FB51C4C8C
:103780001C4BC4F80833C4F848331B4B00254FF0DA
:10379000FF304FF0FF31C4F80855C3E902014FF480
:1037A0008033C4F80433154B02264FF40032012154
:1037B000C4F804631120C3F880212A46FEF734FEC2
:1037C0001120FEF701FE0E4A0123A360236013605F
:1037D0000C4B0D4A0093CDE9015500232846FFF715
:1037E00035FF3046FFF752F8284604B070BD00BFE1
:1037F0000010014003000F00A802002000E100E0DB
:103800001C1D002055350000FFFF7F002DE9F74308
:103810002E4CD4F8043399070BD5D4F8043143B1B6
:103820002B4A0023C4F80431D4F80431136801335F
:103830001360D4F80433DA0343D5BFF35B8F254B11
:1038400053E8002F22F0010143E800100028F7D1CF
:10385000BFF35B8FD30702D4D4F840318BB300257C
:10386000C4F84051D4F84031FFF7CEFEEFF3118297
:10387000202383F31288BFF36F8F174BD3E90267BE
:10388000B042B94120D34FF0FF304FF0FF31C3E9D0
:103890000201D3E900981D604FF48033C4F8483327
:1038A000C4F84051D4F8403182F31188BFF36F8FD0
:1038B000B9F1000F05D0CDF8008032463B4600201C
:1038C000C84703B0BDE8F083A946EDE7001001400A
:1038D000201D0020181D0020A802002030B5431C28
:1038E000124C85B005D08442A8BF0446012CB8BF55
:1038F0000124FFF789FE0E4B0C4DD3E90013401A4B
:10390000B0F5000F10D22218AA4228BF2A4652183A
:103910004FF0000007490091CDE9010043F1000399
:10392000FFF794FE05B030BD2A46F0E7FFFF7F00A9
:10393000B80200205535000008B5FFF765FE024BC0
:103940001B68C01A08BD00BFB802002010B5084CA3
:10395000012363601120FEF745FD064BC4F80833D0
:10396000C4F84833044B4FF40032C3F8802110BD33
:103970000010014003000F0000E100E0F0B5816895
:1039800085B01039054621F0070401F0E4FE0B4B29
:103990006A4603F1100718685968164603C60833CB
:1039A000BB423246F7D110236A462146284601F031
:1039B000A1FE003818BF012005B0F0BD3C86000014
:1039C00030B50D46816887B0102302AA103904462D
:1039D00001F07BFE002802DA012007B030BD102282
:1039E00002A9204602F082FF00283AD11E49102287
:1039F00002A804F0B9F900280CBF012302232B70A0
:103A0000204602F05FFF012301460DF10702204628
:103A100001F05BFE0028DFDB9DF8073003F00F02AA
:103A20001B096A702B7101220DF10701204602F07B
:103A30005DFF10B96B78042B03D901236B70002351
:103A40002B71A268183A22F00702083AA91C2046F6
:103A500002F05FFF0028BFD1E91C204602F075FF8D
:103A6000BBE70323CBE700BF3C8600007FB5244DB6
:103A70004400694655F8240002F06DFF90BB013404
:103A800002A955F8240002F066FF012804BF0323B1
:103A90008DF808309DF800509DF80860194A08BF5D
:103AA0008DF80B3000241078294602F011FFF8B190
:103AB0005078314602F00CFFD0B19378042B03D03C
:103AC0009DF80310994213D1D378042B03D09DF8AD
:103AD0000B1099420CD11379042B05D15079831E18
:103AE000022B0BD9FF2009E09DF802109942F5D076
:103AF0000134032C02F10602D5D1012004B070BDBF
:103B000010860000F4880000024AD2F80034002B2E
:103B1000FBD0704700E0014008B54FF08053D3F868
:103B20003021082A4ED14FF080420021C2F80C11FA
:103B3000C2F81011C2F8381502F54042D3F8041447
:103B4000C2F82015D3F80814C2F82415D3F80C14C1
:103B5000C2F82815D3F81014C2F82C15D3F8141491
:103B6000C2F83015D3F81814C2F83415D3F81C1461
:103B7000C2F84015D3F82014C2F84415D3F8241421
:103B8000C2F84815D3F82814C2F84C15D3F82C14F1
:103B9000C2F85015D3F83014C2F85415D3F83414C1
:103BA000C2F86015D3F83814C2F86415D3F83C1481
:103BB000C2F86815D3F84014C2F86C15D3F8443431
:103BC000C2F8703502F0DBFE18B1334B334AC3F84C
:103BD0008C2602F0D4FE18B1314BFB22C3F8182515
:103BE00002F0CDFE58B14FF080424FF08051D2F834
:103BF000E43ED1F8581261F30303C2F8E43E02F048
:103C0000BEFE20B1274B4FF40072C3F840264FF0A0
:103C10008053D3F83031082B17D14FF08043D3F8BD
:103C20000024D20744BF6FF00102C3F800244FF014
:103C30008053D3F83431042B81BF4FF01023D3F8D5
:103C400008224FF08043C3F858254FF01021D1F8D7
:103C50000C32DB071FD514480123C0F80435FFF7E9
:103C600053FFD1F80C3223F00103C1F80C32FFF7F7
:103C70004BFF0023C0F80435FFF746FFBFF34F8F1B
:103C80000A490B4BCA6802F4E0621343CB60BFF3EE
:103C90004F8F00BFFDE708BD005000404881030082
:103CA00000F000400090024000E0014000ED00E024
:103CB0000400FA05014B1860704700BF241D002066
:103CC00010B5054B1868144602F06BFE0028A4BF1F
:103CD0002070002010BD00BF241D0020024A0123D7
:103CE0008340C2F80435704700F00140014B0020CA
:103CF0001B681847281D0020014B1B68184700BF90
:103D0000281D002010B50C4C237993B90123237191
:103D10000A4B2060002818BF184600F049F850B937
:103D200023680748002BBDE8104008BF184600F084
:103D30008FB86FF0770010BD281D0020ED3C00000B
:103D4000F93C000008B5064B1B683BB10020FEF7AC
:103D50005DFB18B9BDE80840FEF736BB08BD00BFE3
:103D6000281D002038B54FF080440123C4F80833E3
:103D700063600023C4F80031D4F8003142F21075BA
:103D8000D4F80C24D4F80C34D20307D5DB0705D5BE
:103D9000012002F004FE013DF2D138BD02F067FEC1
:103DA0000028FAD0014B00225A71F6E7301D00209E
:103DB00010B508490C794CB9012308600B7102F069
:103DC00056FE08B9002010BD4C71FBE76FF077007C
:103DD000F9E700BF301D00204FF080430022C3F8F8
:103DE0000021D3F80021094901221A60096811B1A4
:103DF000C3F804237047D3F80021002AFBD0002227
:103E0000C3F80021D3F80031704700BF301D0020F7
:103E100010B54FF08043D3F80423D20715D5D3F85B
:103E2000002192B10022C3F800210121D3F8002122
:103E3000C3F8081302F01BFE044B10B15A7922B9E3
:103E40005971BDE810401B68184710BD301D002097
:103E5000074A137943B90121106011714FF0804274
:103E60001846C2F8183570476FF07700704700BFEA
:103E7000381D002010B54FF080431D4CD3F81814A6
:103E8000D3F8182411F4803F1AD002F00302012A5B
:103E900001D092B900224FF08043C3F818250022C8
:103EA000C3F80421D3F8042101229A6022688AB958
:103EB000D3F80421002AFBD014E002F0E9FDE9E781
:103EC000D3F81424D107E5D5D3F81C249207F4D4F1
:103ED00022681AB10222C3F8042310BDD3F80421CA
:103EE000002AFBD00022C3F80421D3F80431F4E700
:103EF000381D0020F8B54FF08043194FD3F8044324
:103F0000012504F01A04002604B9F8BDB4FA84F0BF
:103F1000C0F11F00830003F580739BB203F180435F
:103F200005FA00F2196892B224EA02040029EBD0E3
:103F30001E601B684FF08043022AC3F808230BD190
:103F4000D3F81814D3F81814890705D1C3F81855F5
:103F5000C3F804239D60D7E73B68C0B29847D3E716
:103F6000381D0020036803F01F025B09026004D0C3
:103F7000012B034818BF002070474FF0A040704746
:103F800000030050034A430900F01F00D35C1844AB
:103F9000C0B2704706890000024611F0010030B53A
:103FA00015D18B07C1F3400022D51249D1F8200565
:103FB00050604FF08052C1F82005D2F83021082A15
:103FC00008BFD1F82025003818BF012010E04FF0BD
:103FD000A0444FF08055D4F820351360C4F8203544
:103FE000D5F83051082D08BFD4F82045002BD8D083
:103FF00030BD00BF00030050F7B504460846FFF788
:10400000C1FF04EB40060D46B38ADB072AD52046E4
:1040100002F041FE2946204602F0ADFD50B1204697
:1040200002F0BFFD276807EB80000023C0F81035C1
:10403000C0F810352946204602F0DCFD0021B1828F
:1040400001A80195FFF78EFF019B00EB8300074B52
:10405000D0F80027134043F00203C0F800370846A9
:1040600003B0F0BD6FF01500FAE700BFF0F8FCFFF9
:10407000014802F0B4BC00BF7402002010B504482F
:104080000C4602F08EFC0028A4BF2070002010BD5A
:10409000740200202DE9F04F074689B057F8049BC1
:1040A000D9F80413C9B28346082241F000414846BA
:1040B00002F0C9FD051E2FDA0023032106A8CDE971
:1040C0000633FFF769FF634B01930DF118084FF0BA
:1040D000000A019A604912F8013B0192DA0803F0E4
:1040E00007038A5C22FA03F3DB071CD40AF10103FD
:1040F000022B08F104084FF0010AEAD14FF0004109
:104100000022484602F09FFD032106A8FFF744FF66
:104110000028D8D125F000450124002D40F08480EE
:1041200009B0BDE8F08F4D4B53440293D8F80060BE
:10413000002EDBD0029B96FAA6F61C78B6FA86F61D
:1041400046EA44142046FFF71DFF0BEB4000F2083F
:10415000818A18F802000594C1F382030393009347
:1041600006F00706012303FA06F620EA060008F81F
:10417000020005A8FFF7F6FE059A039B02F5E07220
:1041800011F0100F50F82260C6F3014633D0009AA8
:104190003846214602F00FFD05A80594FFF7E2FE20
:1041A000059B03F5E073F6B250F82330C3F30143E7
:1041B0009E4207D10021204602F0CEFC3146204627
:1041C00002F0CAFC05A80594FFF7CCFE059B01226E
:1041D00002FA03F3C0F820354FF08053D3F83031A2
:1041E000082B01BFD0F82035D0F82035D0F8203585
:1041F000D0F820359AE7022E14BF02210321204671
:10420000039302F0A9FC039B032B03D0022E07D1DA
:10421000012BD7D1009A2146384602F0CCFCD1E7D9
:10422000032ECFD1022BF4E795FAA5F3B3FA83F36B
:1042300004FA03F225EA020503F5A2720BEB43032D
:1042400059F82220B3F87C10C2F30142384602F03C
:10425000B2FC62E7168900001C8600001689000087
:10426000044AD2F80034DB07FBD50160BFF35F8F4F
:10427000704700BF00E001404FF080531A69B0FB67
:10428000F2F302FB13036BB9084B0222C3F80425B7
:10429000C3F80805D3F80024D207FBD50020C3F8E3
:1042A000040570476FF00C00704700BF00E001404C
:1042B00010B5054C0123C4F80435FFF7D1FF0023E6
:1042C000C4F8043510BD00BF00E00140036803F0EE
:1042D0001F025B09026004D0012B034818BF0020B5
:1042E00070474FF0A0407047000300502DE9F3479E
:1042F0000B7F044663BB354D0E1F01F1100701F122
:104300000C094FF0010856F804AFBAF1FF3F1BD07B
:104310003B78CDF804A001A8002B4FD0FFF7D6FFC3
:10432000019B08FA03F3C0F8083501A8CDF804A0F2
:10433000FFF7CCFF019B00EB8300D0F800372B4048
:1043400043F00303C0F80037B14507F10107DAD1A4
:1043500091F81DC00D8B4F7D8E7D8A7EC87E2368AF
:10436000BCF1000F0BD1D1E9008ED1E902C1C3F835
:104370006085C3F864E5C3F868C5C3F86C1542EA04
:104380000022C3F80C75C3F80465C3F80855C3F8D8
:10439000102520680023C0F81031D0F81021C0F893
:1043A0000831D0F80821C0F80C31D0F80C3140F3B6
:1043B000073002B0BDE8F047FEF706B8FFF786FF0A
:1043C000019B08FA03F3C0F80C35AEE7F0F8FCFFE8
:1043D000036803F01F025B09026004D0012B03484D
:1043E00018BF002070474FF0A040704700030050F6
:1043F00073B51646421C1C460546069B18D001297B
:1044000002D1BBB102F097FF01A80195FFF7E0FFD1
:10441000019B00EB83002402D0F80027074B44EAFD
:1044200086040C4313401C4344EA4101C0F80017C2
:1044300002B070BD02F08CFFE6E700BFF0F8FCFFB1
:10444000104B98421BD011D80F4B984217D008D868
:104450000E4A0F4B984218BF90420CBF012000201B
:1044600070470C4BC31A5842584170470A4B984248
:1044700005D002D8094A0A4BECE70A4BF2E70120C3
:10448000704700BF80841E0020A1070090D0030069
:1044900048E8010040420F000024F40000127A00B6
:1044A00000093D000048E8012DE9F74F91F821305F
:1044B00007460C46002B00F0A98091F82280656920
:1044C000714B9D4200F0BB8000F2AB806F4B9D4270
:1044D00000F0B88000F29D806D4B9D4200F0B580E9
:1044E0006C4B9D4214BF4FF080454FF0806594F8AF
:1044F000232097F8223062F3000387F82230227CD1
:10450000DBB262F3410387F8223094F82360002E77
:1045100032D16269604B9A420CBF4FF003094FF0F1
:104520000009237E012B94BF002301230093206800
:104530004B4632460121FFF75BFF009660684B4611
:1045400032460121FFF754FF0096A27EA0684B4639
:104550003146FFF74DFF237C83F001030093E068B1
:104560004B4632460121FFF743FF01210091E069EC
:104570004B463246FFF73CFF94F82130002B6DD0BC
:104580004FF0FF337B6294F8211094F812E0207E04
:10459000627E00296CD0E668217C94F8249094F81F
:1045A00020C03B68B9F1000F12D1D4E900BAD4F8A9
:1045B0000890E469C3F808B5C3F80CA5C3F81095D2
:1045C000C3F86C45C3F81465C3F86815C3F864856F
:1045D000003A18BF01220228C3F8C0E5C3F82455E9
:1045E00049D003284AD0012801D142F00202C3F881
:1045F0005425C3F860C57B68002B42D0386840F36F
:10460000073003B0BDE8F04FFDF7DEBE4FF0020803
:1046100055E7224B9D4214BF4FF080454FF0805527
:1046200065E71F4B9D4213D01B4B9D4213D01D4B82
:104630009D4214BF4FF080454FF0004557E74FF0C3
:10464000005554E74FF0006551E74FF000754EE715
:104650004FF020654BE74FF0A05548E7E3687B62D9
:10466000227C97F8223062F3410387F822308AE7F0
:104670004FF0FF3691E742F00402B8E742F006023D
:10468000B5E703B0BDE8F08F80841E0020A10700CD
:1046900048E8010090D003000048E80140420F00C4
:1046A0000024F40000127A00431C07B50ED00190DC
:1046B00001A8FFF78DFE019B00EB8300054BD0F8AE
:1046C0000027134043F00203C0F8003703B05DF841
:1046D00004FB00BFF0F8FCFF38B50446006840F367
:1046E0000730FDF77FFE636843B121461A4A51F84F
:1046F000043BC3F80823206802F037FE2368D3F890
:104700000805D3F80C15D3F8105594F82230DB07C0
:1047100014D4FFF7C9FF2846FFF7C6FF0846FFF786
:10472000C3FF606AFFF7C0FF2368D3F86C05D3F8B6
:104730001415FFF7B9FF0846FFF7B6FF02F09BFD1F
:1047400028B1064A2368934204BF01225A6000231D
:1047500084F8203038BD00BF5201080000F002404C
:10476000F0B590F8213085B005460E461746002B6F
:1047700040F0C08043682BB112F0140F04BF012336
:1047800080F8213096E80F0005F1100484E80F004E
:10479000686A441C05D095F82230990717D502F0B5
:1047A000CAFD31682C6821B101F06043B3F1005FAC
:1047B00006D1B36873B103F06043B3F1005F09D071
:1047C000002385F821306FF00C0005B0F0BD02F039
:1047D000BFFDE6E702F04FFD38B3484B9C4224D1C1
:1047E0004FF080437268D3F8000E454B1860E2B179
:1047F000444821F4FF5323F01F0383426AD8501822
:10480000DFF804C1C3F34F3101228A40002103F5D0
:104810000053984241EA02014FEA420201D963453E
:10482000F5D34FF08043C3F8001E17F0010318BF03
:104830000123C4F8503517F0020318BF0123C4F850
:104840004035D6E900C1D6E902230020C4F844C5AA
:10485000C4F84815C4F83425C4F83835C4F818012C
:10486000D4F8180117F008064FF00700C4F8000547
:1048700012D168684FF0010EC4F810E060B9D4F8A6
:1048800018010028FBD0CDE900C1CDE90223402169
:104890006A46204602F011FD6B680BBB02F0EBFC90
:1048A00040B1164B9C4201BF154B1A684FF0804334
:1048B000C3F8002E686A421C05D095F822309B0789
:1048C0000BD502F045FD1EB9291D204602F04DFD15
:1048D00000207AE74FF48071A3E702F02CFDF2E7A5
:1048E00017F0040F4FF0400314BFC4F80833C4F8A6
:1048F0000433EDE76FF00F0067E700BF00F0024000
:10490000401D0020FFFF00200020012070B502465E
:10491000044652F8105B4021284602F0CEFC38B322
:1049200002F0A9FC40B1134B9D4201BF124B1A6823
:104930004FF08043C3F8002E606A421C05D094F803
:1049400022309B0711D502F003FD94F821301BB1F2
:10495000211D284602F009FD2046002300F80C3FE7
:10496000D4E90131BDE87040184702F0E4FCECE7FF
:1049700070BD00BF00F00240401D002070B516461B
:104980001D465A1C03681344C2689A42044605D265
:10499000006A082103F024F8002070BD65B9327860
:1049A000204603F020F80028F6D03544B5420CD15B
:1049B000A3680133A360F0E7AB1E062B9ABF064A3B
:1049C000D35C00231833DAB2EAE723685A1C22606A
:1049D00015F8012D1A70E9E71889000038B50A4B5F
:1049E00053F82040013053F82050A54200D838BD7C
:1049F000606830B1037EDB0701D403F0B4F80834FB
:104A0000F3E723689847FAE72086000008B5094BCA
:104A1000012203201A70FFF7E1FF03F046F904209A
:104A2000FFF7DCFFFBF71CFE034A938923F0010329
:104A3000938108BD072A0020C802002008B5002085
:104A4000FFF7CCFF154B83F30888154C636943F4DB
:104A5000007363610025E02384F82230E577257632
:104A60006576A57684F82050636A43F4E023636298
:104A700084F82350FDF726FCFDF728FD4FF0FF33A7
:104A8000A3620120E362FFF7A9FF0220FFF7A6FF60
:104A900004482B462A462946FDF700FD083200202F
:104AA00000ED00E00D4A0000024B1868984208BF74
:104AB0000020704778020020034B1B680BB9FEF7FB
:104AC0003BBF0020704700BF441D002030B570B1CF
:104AD0000B4B5B6898420AD0036843B1D3E90421C9
:104AE000D0E90445121941EB0501C3E90421D0E9DD
:104AF000003213605A600023C0E9003330BD00BFAC
:104B0000780200202DE9F047DFF8A490DFF8A480B8
:104B1000C9F800000246FFF7C7FF0D460026002730
:104B2000D8E900134FEAE27E50B1D0E9044CA2422A
:104B30007EEB0C0A19DAA41A6CEB0E06C0E90446E7
:104B400052184FF0000443EB0E032046C8E900233F
:104B5000C9F8004003F04AF82146FEF7BFFE85F38E
:104B60001188BFF36F8FBDE8F087611843EBE473E2
:104B7000C0E90467C8E90013FFF7A8FF01224FF05E
:104B80000043C0E9042385F31188BFF36F8F836866
:104B90009847EFF31185202383F31288BFF36F8FBB
:104BA000D9F80020121BC9F80020FFF77DFFB7E7F6
:104BB000441D00203803002010B5EFF3118420239A
:104BC00083F31288BFF36F8FFFF776FF054A034622
:104BD000D2E90001181841EBE37184F31188BFF3A7
:104BE0006F8F10BD38030020054B5A78022A04D17C
:104BF0001878C31F5842584170470020704700BFC3
:104C0000481D002010B5124C2378590744BF03F00B
:104C1000FB0323709A0705D500F05CF8237823F096
:104C200002032370637813B10A4803F06CF8002381
:104C300008486370042100F067F82378DB0705D586
:104C400003F05EF8237823F00103237010BD00BF4A
:104C5000481D00204C1D002038B5FFF7C5FFD0B916
:104C6000164D2B78980707D400F02CF82B7843F0DA
:104C700002032B700446C8B9D90707D403F03EF8E5
:104C80002B7843F001032B70044678B96B782BB175
:104C90002B785A070DD50024204638BD084803F06C
:104CA00030F802236B7004460028F1D0FFF7AAFF0A
:104CB000F2E743F004032B70EDE700BF481D00202E
:104CC0004C1D0020024B012283F8C02200207047B7
:104CD000501D00202DE9F0410A4C002526464FF0DA
:104CE00001080327C4F8208027772046013502F009
:104CF000E8FF102D04F12C04F4D1002386F8C03213
:104D0000BDE8F081501D002010B50A46044619B1D7
:104D1000024B00211B68984710BD00BF3886000079
:104D20000CB430B58BB004460D462022002102A8F9
:104D300003F012F802238DF80A30002D0C4B039378
:104D4000069412DB01D06B1E1C440FAA0E99079427
:104D500002A8019200F00EF815B1069B00221A700D
:104D60000BB0BDE8304002B070470024EDE700BF53
:104D7000BD7D00002DE9F04F8378D0F80480154602
:104D80009A0785B0074640F19F80002608780028E2
:104D900000F09C80252808D001F1010A013639462F
:104DA000C047002880F286808AE091F801B0BBF10C
:104DB000250F01F1020AF1D0002401211F2C25D872
:104DC000ABF12002102A06D8844B01FA02F01842F7
:104DD0000ED1032A5AD0ABF13002092A08D9BBF10F
:104DE0002A0F33D1630605F1040501D444F02004F1
:104DF0001AF801BBBBF1000FE0D139462520C047AE
:104E000000285DDB023639465846C9E77F2CE2D9D7
:104E1000BBF16C0F29D021D8BBF1680F2CD0BBF1AE
:104E20006A0F30D0BBF14C0F2DD0ABF16302122AC8
:104E300000F2A580DFE802F02C4EA3A3A3A34EA3AB
:104E4000A3A3A3A3AD9DA3A331A37700BBF12E0F12
:104E5000DED160063AD444F04004C9E7BBF1740FD8
:104E6000C6D0BBF17A0FC3D0DFE7220648BF44F4B7
:104E7000007444F08004BBE7E30548BF44F40074C9
:104E800044F48074B4E744F42074B1E71024AFE72D
:104E900015F8040B0136394682E72C68504B002C7C
:104EA00008BF1C46A1464B4619F8010B20B9341B1C
:104EB0001E190435514669E73946C0470028F2DA21
:104EC000BB7843F00403BB704FF0FF36304605B0AB
:104ED000BDE8F08F20061DD5A10545BF073525F09B
:104EE000070555F8040B55F8080B00280DF10409C7
:104EF000B8BF404249464FF00A02B8BF44F480644C
:104F000002F042FF6405A0EB090956D44C460DF1AE
:104F1000040B5EE0E20555F8040BE6D5A3054CBF93
:104F200040B200B2E1E724F01004A4B20A22200645
:104F300033D5A10545BF073525F0070555F8040B06
:104F400055F8080B10B924F01004A4B20DF10409AF
:104F5000494602F019FFE306A0EB0909D6D5394608
:104F60003020C0470028ABDBBBF1000F1ED101365B
:104F7000CCE744F0100410224FF0780BD7E74BF049
:104F80002002782A7FF439AFCBF1780242F0100288
:104F9000CDE708224FF0000BC9E7E30555F8040BF5
:104FA000D0D5A1054CBFC0B280B2CBE7023639469E
:104FB0005846C0470028A9DA82E7013639462D2035
:104FC000F7E7013C39461BF80400C0470028FFF60C
:104FD00077AF002CF5D14E446CE700BF812801006B
:104FE00022880000704708B9086070476FF015000C
:104FF00070470020704730B5002985B0044615463B
:1050000011DB83688B420ED96368C068194401AA1A
:1050100000F024FE28B96268019B9B1A2B60029B5A
:105020006B6005B030BD6FF02100FAE7704708B53E
:1050300002F095FD002008BD002070470020704759
:105040000020704710B50120FDF70EFB0128044633
:1050500003D1FDF725FB204610BD0020FCE72DE91C
:10506000F7430E4617469946044628B94FF0FF38D5
:10507000404603B0BDE8F0830029F7D0002AF5D000
:10508000CB680D891D4404230DEB030229463846E5
:1050900000F01BFB80460028E8D1BDF8041073899E
:1050A00046F60812914225D1BDF806109942DDD18D
:1050B00004230DEB03022944384600F006FB0028C8
:1050C000D4D1BDF8042046F607139A42CED1C4E9E4
:1050D00000679DF82830A4F80890A3727389BDF882
:1050E00006202B44E360738913442B440435636129
:1050F0002561BDE7002BE4D0B8E72DE9F3410E466A
:1051000017461D46044620B94FF0FF3002B0BDE8F7
:10511000F0810368002BF7D04368002BF4D04FF6E2
:10512000FF78D4E90413994215D223685B8923B12F
:10513000E3688B4204BF04312161042360680DEBF6
:10514000030200F0C2FA0028DED1A37A2BB1D4E921
:1051500003329A4201D30120D8E72389BDF8061013
:10516000434501F1040203D0BDF804C09C450BD1B6
:1051700015B1BDF804302B802369043333603980C6
:10518000236913442361C1E7236913442361C8E7FA
:1051900002F0EABD10B5044600F0D6FA00F075F84A
:1051A000A368984201D900F0E1FB181A10BD084627
:1051B00001F088BB01292DE9F341174601D900F020
:1051C000D5FB2C2303FB0104D4F82080B8F1000F99
:1051D000F5D0E36826891E4404230DEB0302314613
:1051E000404600F072FA054620B10125284602B07B
:1051F000BDE8F081BDF80420648946F608139A42A0
:105200001AD1BDF806309C4201D00325EEE70423F5
:105210000DEB0302A119404600F057FA0028E4D133
:10522000BDF8042046F607139A42EED1BDF80610E9
:10523000214431443960D9E7002CF1D0E5E713B5BA
:105240004FF4807201290346019208460AD15A6A36
:1052500003F1280401A900F0A7FA08B9019B236013
:1052600002B010BD022903D11A6D03F15404F1E715
:105270000120F5E710B528B1BDE8104060220021FB
:1052800002F06ABDFBF7FCFBF6E74FF440735843AE
:105290003030704710B412B110BCFBF725BB10467C
:1052A00010BC7047002382681946FFF7F3BF08B5AA
:1052B0002C2303FB0101086A08B900F057FBBDE885
:1052C0000840042201F012BBF8B513460F461646FB
:1052D00000210246054600F082F8044650B93346E4
:1052E00005F12C020121284600F079F810B1002FB9
:1052F00018BF04462046F8BD00207047002110B5B5
:1053000004460846FBF702FA04F12001C0B2FCF79C
:1053100045F940B90121FBF7F9F904F14C01C0B29C
:10532000FCF73CF908B100F021FB10BD10B50446B4
:10533000C06C08B100F0C8F9206A18B1BDE810408F
:1053400000F0C2B910BD4379012B07D10368012BCE
:1053500004D10079431E58425841704700207047DD
:10536000F0B5D0F828C0BCF5807F36D8436DB3F5D2
:10537000807F32D8002422462146264625468C4589
:1053800007D8934205D88C4527D19B1A58425841DB
:10539000F0BDB5420CD1476A07EBC10701317F6808
:1053A0003D44076D07EBC20701327F683E44E6E7E4
:1053B00009D2476A07EBC107022C7F683D440CD035
:1053C00001310124DBE7076D07EBC207012C7F6881
:1053D0003E4402D001320224D1E70020D8E708B5CC
:1053E0002C2303FB0100006A08B900F0BFFA202358
:1053F000002100F06AF9003818BF012008BDF8B597
:105400000C4610B1F9B10AB90120F8BD8D1800F1B0
:1054100028060027AC42F7D0836E5A1C82660344EC
:1054200014F8011B83F828103F2AF3D93146FBF703
:1054300095FCD0E9083213F5007342F10002C0E98F
:1054400008328766E6E70846DFE7F8B50C4605460A
:1054500000284CD000294BD08B6ED1E90821D80010
:10546000121841F10001581C2344C4E908213828CE
:105470004FF08002A0664FF0000783F8282004F167
:1054800028060BD9C0F140023946304400F032F80A
:1054900020463146FBF762FCA7663846C0F1380269
:1054A0000021304400F026F8236A626A1BBA12BA5F
:1054B000C4E9182331462046FBF750FC2B1D211F61
:1054C000243551F8042F03F8012C100E03F8040CB6
:1054D000100C03F8030C100A03F8020C0433AB425F
:1054E000EFD120467022002100F004F80120F8BD21
:1054F0000846FCE702F030BC002070470FB407B547
:1055000004A951F8040B0191FBF70CFE03B05DF800
:1055100004EB04B07047038B13F0070306D1036854
:10552000002B18BF032008BF00207047022B05D1B5
:10553000408BB0FA80F0400980007047012B04D105
:105540000368002B18BF0520EDE70020704710B559
:105550000C4600B111B96FF0150010BD081D00F028
:1055600087F80028F9D1A368032BF6D9F3E72DE9D2
:10557000F0410D4607461946281D90461E4600F08C
:1055800088F8044638B13346424629463846A44690
:10559000BDE8F0416047BDE8F08110B4EFF311823F
:1055A000202484F31288BFF36F8F416110BC012166
:1055B000FBF700BF38B50C46054658B151B10B6832
:1055C00043B14B6833B11C22002102F0C5FB2C61B2
:1055D000002038BD6FF01500FBE7F8B504460E4615
:1055E000FFF7B5FF051E3BDBEFF31182202383F3AA
:1055F0001288BFF36F8F638B278B4FF6FF718B423F
:1056000007F007072ED0062F2FD8DFE807F0182E57
:10561000082E180418006FF08505002303E00133FD
:1056200063830225012382F31188BFF36F8FBBB11F
:1056300000233A4631462046FFF799FF10E0002349
:105640003360636823B9C4E9006627B13D46E4E7E7
:105650001E606660F9E702212046FBF7ABFE3D467F
:105660002846F8BD6FF00A05D7E76FF00405D4E7C8
:10567000034658B1426802F00302012A03D0032A0C
:1056800004D1026812B10020986070476FF01500D5
:1056900070474268816002F00302032A4FF0000263
:1056A00003460CBF006810465A60704770470029D7
:1056B00008DB8068884205D9401A904234BF002038
:1056C0000120704700207047704770B516461A4693
:1056D00005460C46FFF7EBFF48B16968E8682144CE
:1056E000826814683246A446BDE8704060476FF097
:1056F000150070BD70B516461A4605460C46FFF7F4
:10570000D6FF48B16968E868214482685468324627
:10571000A446BDE8704060476FF0150070BD10B53D
:105720000B460446FFF7C3FF40B16168E0681944C7
:1057300083689B682BB1BDE8104018476FF01500D7
:1057400010BD6FF05700FBE708B5C0688368DB68E1
:105750009847006808BD08B5C0688368DB6898474B
:10576000407908BD30B54C680368A34201D20120DE
:1057700030BD8A682244934201D30020F8E7D1E982
:105780000452954203D36FF00B038B61F5E7CA68AF
:105790001B1B42F835304368086902EBC0025360B6
:1057A0000B6901330B61E2E737B50C46C0B201A9C2
:1057B0001546FBF7F3FE00280CDB019850B121469B
:1057C0002A46FBF711FF04460198FFF77DFF2046AC
:1057D00003B030BD6FF01504F9E770B506460D460D
:1057E0000024AC4200DB70BD305DFBF779FF013077
:1057F000F9D00134F5E773B583689A420C46064642
:10580000114604D36FF01504204602B070BD9442D7
:10581000FADC6A46FFF7EFFB03460028F2D1DDE928
:10582000005215442A1B21463046FBF75DF800283C
:10583000E8D12C46E8E72DE9F04F85B005460E4645
:1058400090461F4601F0FEFF20B96FF04C0005B0F6
:10585000BDE8F08F00234FF014093B6009FB086995
:1058600034464FF0010A02A9284601F0DFFF60B17B
:10587000DDE902324FF0000B0093C3450CD100214B
:10588000284602F01FF80028EDD1284602F003F860
:105890000028DAD00020DAE7A14598BF34466168D5
:1058A0008A4214D121680098019202F05DFA019AAF
:1058B00068B9237C7BB9D4E902312846984768B19E
:1058C00084F810A03B68013314343B60CBE71434F8
:1058D0000BF1010BD1E76FF06F00B8E76FF022001A
:1058E000B5E702F039BA02F010BA012801D1EFF39E
:1058F000058302F066B901460068FFF7F6BF08B5F8
:10590000FCF7AAFBBDE8084000F02FB800210120F9
:10591000FFF7EBBF61B662B680F31188BFF36F8FFC
:105920007047EFF31180202383F31288BFF36F8F4A
:10593000704772B6002383F31188BFF36F8FBFF3F4
:105940004F8F30BF62B6BFF36F8F704772B60023C0
:1059500083F31188BFF36F8FBFF34F8F20BF80F3A6
:105960001188BFF36F8F62B67047704708B5FCF7B8
:10597000D1FD0A448A4200D1704711F8013B40BA78
:1059800080B25840C0F303134340180380B2434031
:10599000580100F4FF505840ECE72DE9F04106466D
:1059A0000D4617461C46ABB1D0F80880D8F8003039
:1059B0009847002D11DB84420FD8031BAB420CD358
:1059C000D8F808E023463A4629463046F446BDE872
:1059D000F04160471846BDE8F0816FF01500FAE726
:1059E00010B54468206802F0D6F870B1206883686A
:1059F0001B689847002807DBD4E90132134483422F
:105A00008CBF6FF01500002010BD6FF01200FBE797
:105A100043681B8A002B0CBF6FF085000120704784
:105A20002DE9F04100291C461746436803DA6FF060
:105A30001500BDE8F081D3E902250819521B9042F8
:105A4000F5D8D3E900625B7CC4B1D6F80880114474
:105A5000CD183046D8F800309847002DE7DB844257
:105A6000E5D8001B8542E2D8D8F804E023463A4640
:105A700029463046F446BDE8F04160472046D8E765
:105A80007FB506694568002410220021684602F0AF
:105A900063F934702046AB68A34201D804B070BDEE
:105AA000D5E9000121441B1B102B28BF10236A4697
:105AB000FFF773FF0028F1DBAB681B1B102B94BFB3
:105AC000E4181034E7E70369C9B20C2202FB013382
