:0400000300002211C6
:020000040000FA
:10000000B855002011220000674F0000FD210000BC
:10001000FD210000FD210000FD2100000000000086
:10002000000000000000000000000000C5220000E9
:10003000FD21000000000000FD210000FD21000066
:100040001124000011240000C12F00001124000021
:1000500011240000112400001124000011240000CC
:1000600011240000112400001124000011240000BC
:1000700011240000112400001124000011240000AC
:10008000112400001124000011240000112400009C
:10009000112400001124000011240000112400008C
:1000A000112400001124000011240000112400007C
:1000B000112400001124000011240000112400006C
:1000C000112400001124000011240000112400005C
:1000D000112400001124000011240000112400004C
:1000E000112400001124000011240000112400003C
:1000F000112400001124000011240000112400002C
:1001000053B94AB9002908BF00281CBF4FF0FF317E
:100110004FF0FF3000F00CB8ADF1080C6DE904CEE3
:1001200000F010F8DDF804E0DDE9022304B07047C8
:10013000704700BF034613F8012B002AFBD1181AA1
:10014000013870472DE9F04786468C460846089EE0
:10015000154674461946002B40F0C2808542B2FA1B
:1001600082F245D94AB1C2F1200300FA02FC2EFA0C
:1001700003F3954043EA0C0C94404FEA154EA8B2A5
:10018000BCFBFEF8230C0EFB18CC08FB00F943EA7D
:100190000C43994528D9EB1808F1FF3704D299454B
:1001A00002D9A8F102072B44A3EB0903A4B2B3FBC5
:1001B000FEFC0EFB1C330CFB00F044EA0344A0429F
:1001C00014D92C190CF1FF3304D2A04202D9ACF19E
:1001D00002032C44241A43EA07401EB1D4400023F2
:1001E00034607360BDE8F0874746DDE76346F1E7BA
:1001F00092BB431B01214FEA154EAFB2B3FBFEFC8D
:10020000200C0EFB1C330CFB07F840EA0343984517
:1002100062D9EB180CF1FF3004D2984502D9ACF149
:1002200002002B44A3EB0803A4B2B3FBFEFC0EFBBD
:100230001C330CFB07F744EA0344A7424ED92C19A0
:100240000CF1FF3304D2A74202D9ACF102032C44D3
:10025000E41B43EA0040C0E7C2F1200320FA03F1A7
:10026000954090402EFA03F303434FEA154EAFB288
:10027000B1FBFEFC0EFB1C10190C0CFB07F841EA4D
:100280000041884504FA02F422D969180CF1FF30C4
:1002900004D2884502D9ACF102002944A1EB08013F
:1002A0009BB2B1FBFEFC0EFB1C110CFB07F743EAF3
:1002B00001439F420ED9EB180CF1FF3104D29F424B
:1002C00002D9ACF102012B44DB1B41EA004192E769
:1002D0006046E3E76146F7E76046A3E76346B7E7B2
:1002E000834206D916B9002108467BE7C6E900E03B
:1002F000F9E7B3FA83F78FB9834201D3724508D87F
:10030000BEEB020460EB030301209C461EB90021F2
:1003100068E73846FAE7C6E9004CF8E7C7F1200C71
:10032000BB4022FA0CF41C432EFA0CF120FA0CF319
:10033000B84001434FEA14490EFA07F5B3FBF9F848
:100340001FFA84FE09FB18300B0C08FB0EFA43EA77
:1003500000439A4502FA07F240D9E31808F1FF304A
:1003600004D29A4502D9A8F102002344A3EB0A0360
:1003700089B2B3FBF9F809FB183308FB0EFE41EA1A
:1003800003418E452CD9611808F1FF3304D28E4504
:1003900002D9A8F10203214443EA0040A0FB0298DD
:1003A000A1EB0E014145CE46434602D306D14D4551
:1003B00004D2B9EB020E68EB04030138002EA6D07C
:1003C000B5EB0E0261EB030101FA0CFC22FA07F314
:1003D0004CEA0303F940C6E9003198E74046C5E717
:1003E0004346D9E7000000002DE9F04F0029D0F87E
:1003F0001090446889B005DD6FF01507384609B0E4
:10040000BDE8F08FD9F80030D4E90068002B4BD15B
:10041000A389A5680593B36806AA5B684146304680
:100420009847071EEADBDDE9067BA5FB072305FBF2
:100430000B3303920293DDE9021029A3D3E90023D1
:10044000FFF75EFE039B029A04904FF0FF3A9A4535
:10045000254B934102D26FF08507CFE76B08A3FBD2
:10046000075703FB0B7728461DA3D3E90023394622
:10047000FFF746FE1C4AAA45BA410346EBD304994E
:10048000B2689942B8D3059900911568049A41461B
:100490003046A84707460028B0D1208A06F08FFAD8
:1004A000012389F80430A9E7B36806AA5B684146CE
:1004B0003046984707460028A0D1D9F800200346C7
:1004C000DDE90601FFF71CFEA5890246D4E900011B
:1004D000836800951D685308DBE700BFAFF3008019
:1004E00000CA9A3B00000000FFC99A3B036803F072
:1004F0001F025B09026004D0012B034818BF0020D3
:1005000070474FF0A04070470003005007B5292105
:1005100001A80191FFF7EAFF019B019100EB830025
:10052000094BD0F80027134043F00303C0F800370D
:1005300001A8FFF7DBFF019A01239340C0F80835BB
:10054000002003B05DF804FBF0F8FCFF13B53A4956
:100550000A78062392B901A80193FFF7C7FF019B10
:1005600000EB8300354BD0F80027134043F00C0319
:10057000C0F8003701230B7002B010BD684600932D
:10058000FFF7B4FF009AD0F81035D34013F0010FF5
:100590002B4B07D02B4A00200021C2E90001012289
:1005A0001A70E9E71B78002BE6D0264CD4E900321C
:1005B00013430ED106F061FA4FF47A72A0FB0203E6
:1005C00002FB0131C00B40EA4140C90BC4E9000104
:1005D000D2E706F052FA4FF47A72A0FB020302FB54
:1005E0000131C30BD4E9002043EA41439B1A4FEA8F
:1005F000D13161EB0001B3F57A7F71F10001BBDB12
:10060000292101A80191FFF771FF019B019100EBE6
:1006100083000A4BD0F80027134043F00303C0F8CF
:10062000003701A8FFF762FF019A01239340C0F849
:100630000C3504F0B3FCFCE70B1C0020F0F8FCFFC9
:100640000A1C0020680100201FB5284B284AC3F867
:100650000026C3F80426C3F80826C3F80C26C3F8FE
:100660001026C3F81426C3F81826C3F81C26FFF773
:100670004DFF00F059F803F0B3FF01A800F038FB7C
:10068000044603F0BEFF38B1012000F069F801F024
:100690006BF8184801F0ECFB174B1B68A34208D01D
:1006A000012000F05DF801F05FF8124801F0E0FB76
:1006B000FEE79DF80800694603F06FFF08B104F0FB
:1006C00089FC009A039B0D4C1344019A1289134430
:1006D000236002F039FF00F067FC00F029FC00F015
:1006E00051FC2068064B9847FEE700BF0000014020
:1006F0003546526E686F00000C1200200802002080
:100700000100002021B1012906D06FF015007047CB
:10071000044B53F830007047024B03EBC00358689A
:10072000704700BF706F000010B50C4C204606F0FB
:1007300062F990B12269A168136823F48073136091
:100740000B684FF4003208212046984720460022CB
:10075000BDE81040082103F044BF10BD0C6C000040
:1007600002460821014803F03CBF00BF0C6C0000AA
:100770002DE9F04F9DB0DFF8C880289FD8F80040E1
:100780000397279F02970DF1500B269FCDF804B0D9
:100790000097299D81468A46164603F03FFF28B1FF
:1007A000D8F8004020461DB0BDE8F08F55B15A463C
:1007B0001CAF134603CBBB42286069601A4605F1A3
:1007C0000805F6D10023009332464FF6FF735146D9
:1007D00006A803F05AFF05460028E1D131464846F5
:1007E0000B9F03F0FBFFB842DAD30DF1120304AA0A
:1007F00005A906A803F097FF0028D1DB1CD1BDF89E
:100800001230102BF1D1BDF81040202CC8D1059921
:1008100023460CAA304604F08BFA0028C0D12246A9
:100820000CA9584603F0CBFF0446064B1B689842C0
:100830004FF00105D9D0B3E7002DB3D1B0E700BF29
:10084000400000200C12002038B50E4B002918BFC4
:100850000B46436203F5006303650121044604F07F
:1008600005F858B90221204604F000F8054638B9C9
:10087000206A04F09CFAE065284638BD0125FBE7B4
:100880000925F9E70C0200202DE9F3471E4683688D
:100890008B4205460C46174643D95B1A934240D318
:1008A00086B36A4603F081FE00283CDB013FDDF899
:1008B00000803C441D4FDFF878906A462146284668
:1008C00003F073FE00282EDBDDE9004A284652467D
:1008D000214604F057FA002825DBC7F80096C7F830
:1008E0000496C7F80896C7F80C96C7F81096C7F88C
:1008F0001496C7F81896C7F81C966EB1444512D9DD
:10090000013CDAE7511E21446A4603F04EFE0028FE
:1009100009DBDDF80080CDE75444A04503D3013462
:10092000CBE74FF0FF3002B0BDE8F0870000014098
:100930003546526E10B52C2359434218146A0CB92F
:1009400004F048FB41580B4B994206D1D1681389FA
:100950005B1802D25189C91801D3002009E0A368AD
:100960009942FAD2136940F60C621A420CBF012078
:10097000002010BD3DB8F3961FB52C2303FB0201E8
:100980000A6A0AB904F026FB0023CDE90233019379
:100990004FF480730093034BFFF7EAFE05B05DF858
:1009A00004FB00BF0C1C00202DE9F0412C2606FBA7
:1009B00001060546D6F820800C461746B8F1000F10
:1009C00001D104F007FB03F089FF10B93369DB069E
:1009D00003D50E4B1868BDE8F08121462846FFF785
:1009E000A9FF60B90A4B18680A4B1B688342F2D012
:1009F000002CEED00121404603F06BFFE9E72246D0
:100A000039462846FFF7B8FFEEE700BF3C0000205C
:100A1000400000200C1200200048704710160020F3
:100A20002DE9F84FDFF870B01C4C1D4D88469146FB
:100A30009A4600260B9B9E4201D300200FE00B9BA1
:100A4000154A9F1BB7F5806F28BF4FF480673B4660
:100A500006EB0A01404604F06BF910B10120BDE835
:100A6000F88F0A993B465A467118484604F075F9C2
:100A70000028F3D1C4F800563E44C4F80456C4F824
:100A80000856C4F80C56C4F81056C4F81456C4F8E6
:100A90001856C4F81C56CDE7101200200000014083
:100AA0003546526E2DE9F04F89B00E46044603F0EC
:100AB0003AFF014600B1FEE72046FFF7C5FE90B9B8
:100AC00000221146204603F016FF0546F0B92046E5
:100AD00003F064FFD0B104A803F04AFF03F051FF14
:100AE000C0B904F077FA0123984284F85830E7D16E
:100AF00094F858308DF81730042B35D8012B35D8A1
:100B000000F0A980FF2384F85830A4E0012384F882
:100B10005830EDE79DF81770012F18D1284602F0E4
:100B2000A3FD831E022B05460ED804AA3946204693
:100B3000FFF73AFF6B4B1B68984205D06A4B1D6864
:100B4000A84214BF0525012584F85850D0E701219B
:100B500004AA2046FFF728FF624B1B6898420CBF8F
:100B60009DF817300523D2E7052BC9E7002303AA18
:100B700001212046039303F034FE05460028B0D13E
:100B8000276A002FADD0D4F84C80B8F1000FA8D060
:100B9000D4F828A08146CA4515D0636A03EBC9037F
:100BA0002946D3F804B0384600235A46FFF76CFEB6
:100BB000002896D1039B5D449D4269D3E56DB3FB4C
:100BC000F5F305FB0355E06D03F076FEA26A636A58
:100BD000013A196803EBC2030022D3F804E072441F
:100BE00090429C46A3F10803F7D8DCF800000023EC
:100BF000411A3846FFF748FE034600287FF471AFDC
:100C0000CDE900053A4641462046FFF709FF002896
:100C10007FF467AF384602F0AFFC034600287FF44C
:100C200060AF226D01465268404603F04AFE03461B
:100C300000287FF456AFD4E91402013A016850F855
:100C4000325000EBC207691A7A68404603F039FE59
:100C500000287FF446AF94F85830FF2B3FF441AFA3
:100C60000022012B214D039215D01146204603F09E
:100C700042FE80B12D68102200210DEB020005F02C
:100C800027FF204603F067FE284609B0BDE8F08F35
:100C900009F101097FE7002211462046FFF784FE93
:100CA000104F3B689842E5D12B689842E2D00E4B3A
:100CB0001B689842DED00021204603F032FE002857
:100CC000D8D1039B01330393039B012B00D0FEE794
:100CD000206A03F068FC3071236A5B6834603D6809
:100CE000B360C8E70C1200203C0000204000002048
:100CF00010B50446002003F0D4FD02482146FFF75A
:100D0000D1FE10BD101600202DE9F04F9DB00368F4
:100D100002934368039383680493C368059303694C
:100D200006934369079383690893C3690993DDE9CF
:100D3000062CDDE904BEDDE902469846DFF890A105
:100D4000089B00930027CD595AF8049B0CAB2DBA91
:100D5000DD514FEAF223A94483EAB213009D83EAEE
:100D600072634B4425EA020502EA0C0985EA09058B
:100D70002B44434486EA0B054FEA743888EAB408EA
:100D8000254006EA0B0985EA090588EAB4580437C4
:100D9000A844402F03EB0E054344DE46DDF80080F7
:100DA00040F087804B490A914FF0100A51460AF1F2
:100DB000010A0DF1700E0AF00F070EEB870701F024
:100DC0000F0957F8407C01974FEAB74888EAF718AF
:100DD00001F10E0707F00F070EEB8707093157F8EF
:100DE000407C4FEAF74E8EEA774ECDF82CE001F0CA
:100DF0000F010DF1700E0EEB81010EEB890951F818
:100E0000401C59F840EC7144DDF804E088EADE0843
:100E1000DDF82CE041448EEA972E714405EA020881
:100E20004FEAF52E2CEA050787EA08078EEAB51E79
:100E3000DDF8288049F8401C8EEA756E774458F832
:100E400004EFCDF8288077440F440099CDF800C016
:100E500039444FEA733E84EA06078EEAB30E1F4018
:100E600004EA06088EEAB35E87EA08077744BAF117
:100E7000400F01EB0B0E0F44B34622D102993944C7
:100E8000016003991944049B416023448360059BDE
:100E90003344C360069B73440361079B2B44436147
:100EA000089B13448361099B6344C3611DB0BDE883
:100EB000F08FCDF800C0B346944626462A461C461D
:100EC00041E7944626462A461C4675463B466DE752
:100ED000786F0000B46F000010B50446C8B17022EE
:100EE000002103F02EFE0B4B0B4A0C490C48C4E9C1
:100EF00000230C4BC4E902130B4BC4E904030B4B56
:100F0000A36103F17453A3F52303A3F69243E361B2
:100F1000012010BD85AE67BB67E6096A72F36E3CBF
:100F20007F520E513AF54FA58C68059BABD9831FB4
:100F3000BFF36F8F72B6124B4FF0FF32C3F88020B1
:100F4000C3F88420C3F88820C3F88C20C3F890200D
:100F5000C3F89420C3F89820C3F89C20C3F88021DC
:100F6000C3F88421C3F88821C3F88C21C3F89021E9
:100F7000C3F89421C3F89821C3F89C21704700BF9F
:100F800000E100E00749D1F890200023C2F30722D6
:100F90001846934200DB7047C1F89830C1F8A000B2
:100FA0000133F6E700ED00E03E4A2DE9F0434FF053
:100FB000FF3301215160C2F84833C2F8083302F50B
:100FC000C042394E5160C2F84833C2F8083302F5C6
:100FD0009832364FDFF8D880516085B0C2F8483378
:100FE0000025C2F8083356F8044B4FF0FF3944F39C
:100FF0000730C4F8089301F085F9012363600023EA
:10100000C4F84C31D4F84C21C4F81031D4F8102174
:10101000C4F84431D4F84421C4F80035D4F80C2580
:101020000092D4F814250192D4F808250292D4F83D
:1010300010250392C4F80C956846C4F81495C4F8BA
:101040000895C4F8109550F8042B511C0FD002F0ED
:101050001F0152091DD0012A1ED1424602EB810216
:10106000D2F80017394041F00201C2F800170133ED
:10107000042BE8D15DB10F4A4FF0FF33C2F80835B9
:101080004FF08042C2F8083305B0BDE8F083012577
:10109000A9E74FF0A042E1E701F5E071002353F822
:1010A0002130FFDE00B0004078700000F0F8FCFF57
:1010B0000003005000F00140014B1B68184700BFBF
:1010C0004400002030B585B004460D4610220021B2
:1010D000684605F0FDFC02238DF802302A46044BD9
:1010E00001932146684603F00DF905B030BD00BFFD
:1010F000B910000008B50446EFF31183202383F3F1
:101100001288BFF36F8F02F01FFA204601F0D4F966
:10111000024803F01AFD03F041FFFCE7787200007B
:101120002DE9F043079D15B91560002012E0032456
:10113000B5FBF4F404EB4407BD4218BF0134B4F12D
:10114000804F09D2A40001348C4200D838B9146011
:101150006FF00B00BDE8F0834FF0FF34F7E7DFF8E6
:10116000BCE004460021B94203F1030C04F104067B
:101170002CD3A942274624D21F7801F1010CAC459B
:10118000264938BF5B784FEAA70E28BF002311F825
:101190000EE084F800E0AC4501EB131E3CBF9B0061
:1011A00003F03C034FEA071707F0300738BFCB5C6A
:1011B0001EF80770677028BF3D23A3703D23E370BE
:1011C0003746381A002310603B70AEE71CF8034C1A
:1011D0001CF8023C1CF8018C4FEAA40924011EF8FB
:1011E000099006F8049C04F030040EEB13199B00E0
:1011F00019F8044006F8034C03F03C030EEB981476
:1012000008F03F08E35C06F8023C1EF8083006F8D8
:10121000013C033134466346A5E700BF217300005B
:101220002DE9F043DDF81CE0DFF82C8100273C4677
:101230003D4675451FD3E4BB14600020BDE8F08334
:101240000136764533D013F806C0BCF1200FF7D035
:10125000AEEB0609B9F1010FA6EB05050DD0BCF107
:101260000D0F0AD103EB060999F80190B9F10A0FA5
:101270006ED1751CDDE72E46E3E7BCF10A0FF8D00E
:101280002DB9BCF13D0F05D10137022F0DD96FF0FB
:101290001500D3E71CF0800FF9D118F80C507F2D02
:1012A000F5D03F2D01D8002FF1D10134E1E73546CB
:1012B000C1E704F007064FF0060CE4080CFB06F645
:1012C0000CFB04F40736E41B04EBD60470B18C422B
:1012D0000CD80027DFF880E0DFF880801D4401464D
:1012E00003263C469D4205D10C1AA5E714606FF019
:1012F0000B00A3E713F8019BA9F10A0C5FFA8CFC21
:10130000BCF1160F04D848FA0CFC1CF0010FE9D010
:101310001EF809C00134BCF1400F08BF013E0CF0BB
:101320003F0C042C4CEA8717DCD17EB13C0C012E1B
:101330000C7002D101310024D4E7022E4FEA1724A9
:101340004C7016BF8F7002310331F4E73446C9E7A1
:10135000002DA2D09BE700BFA1720000F6FFBFFFE7
:101360002DE9F047058B04462807904611D4022941
:1013700005F0070540F0CC80204603F0F3FB78B180
:101380000138218B042811D8DFE800F0C2106D85E8
:10139000950001290CBF45F0100545F02005258377
:1013A00088F31188BFF36F8FBDE8F08701F0070A5B
:1013B000AA4500F0A5800027B9463E46A368002B49
:1013C00000F0BC8041F00801218388F31188BFF34D
:1013D0006F8FA168002900F0BA800D68002900F025
:1013E000B680D1F80480334652462046C047002DCF
:1013F00076D02B6829461D46F0E701F007035A1FF7
:10140000012A1BD8002221F00701062B276889B288
:10141000C4E9002209D13B4603E0628B01326283BA
:101420001B68002BF9D141F002012183204603F013
:1014300099FB00287AD041F0200176E0042B0AD1F4
:1014400021F0070189B22183204603F08BFB10B104
:1014500041F020012183218B01F0070AAA454FD0DA
:101460000027B946AAE7236921F0070141F00601E8
:10147000062DD3F8009021832DD1B9F1000F3FD074
:1014800041F00801218388F31188BFF36F8F3A4937
:101490002046C84729E021F00701236941F00401F3
:1014A00089B2042DD3F804902183E6D000273E466C
:1014B0004FF0040A82E721F00701236941F005019A
:1014C00089B2052DD3F808902183D6D000273E4657
:1014D0004FF0050A72E700273E464FF0060A6DE717
:1014E0002B4687E7B9F1000FD1D1EFF31188202304
:1014F00083F31288BFF36F8F238B23F008032383BA
:10150000258BEA062ED525F01003238305F0070569
:101510006669218B002EBFF670AF00232768C4E9EF
:10152000003321F0070141F001012183218B01F0FB
:10153000070AAA454FF000097FF440AF002F9CD066
:1015400041F00801218388F31188BFF36F8F002FCA
:10155000C8D03D68394633465246204603F02EFB3C
:101560002F46F4E7AB067FF51BAF25F0200323835E
:1015700005F0070500E700BFE94B000070B5104B10
:101580001C680D46B4B10F4B196800238B4202DB77
:101590006FF0010070BD224612F8106B864202D037
:1015A00001331446F2E7E06805F025FA28B12C6013
:1015B0000020EFE76FF00C00ECE76FF01200E9E7B6
:1015C000480000208070000010B588B04368029386
:1015D0008368C068CDE903320A680023CDE9062399
:1015E0000C4601AA0449059303F06DFE079808B95B
:1015F000059B236008B010BDCB4D000008B5054821
:1016000003F0A3FA044803F0A0FA044803F09DFA9B
:10161000002008BD6173000092730000C5730000D4
:10162000F7B5224E30688368DB6B03B198473068AA
:101630008368DB6A002B31D11D4C1E4D30688368F6
:101640001B69002B2DD001220DF1070198470128BD
:1016500027D1236843B92B681BB369681A682A60CD
:101660008B4208BF6A602360134A9DF80700118807
:101670007F2904D823680B444F1C178018720A284E
:10168000DCD123681188596000200C4918604D682E
:101690004DB9C1E9003310802060CEE7984700289B
:1016A000CAD103B0F0BD2B604B60F4E7C81A00202C
:1016B0007016002080160020F81B002078160020ED
:1016C00010B5044B044618688368E1B25B6898471C
:1016D000204610BDC81A0020F8B505461646084633
:1016E000EFF31187202383F31288BFF36F8F1B4919
:1016F0000B684BB11A4C62689A4205D000221A60FE
:10170000626862B9C4E90033164A136853B987F3B3
:101710001188BFF36F8F0B6018463360F8BD1360FC
:101720006360F1E7D2F804C01C681460634508BF29
:10173000546087F31188BFF36F8F5C680B60A04221
:10174000D8BF00F1FF3403F108012246284605F016
:1017500097F900232B55601C0123DEE77416002047
:10176000801600207816002013B52149214A002355
:10177000C1E90033C2E900331F4A1C4648681460BF
:1017800020BBC1E900220133082B02F18802F5D108
:101790001A4C1B48206005F02EF928B32068836896
:1017A00023B11B6C13B11749002298472068836846
:1017B000DB6A0BB1984760B1206883681B69002B16
:1017C000FAD001220DF107019847F4E702604A6060
:1017D000D9E70D4B206800221A8083681B6A03B189
:1017E0009847002002B010BD4FF0FF30FAE700BF6D
:1017F000801600207816002088160020C81A0020C5
:10180000286C000021160000F81B00202DE9F04F85
:10181000D9B0DFF8E490DFF8E480D9F8001041F2A5
:101820000443ADF8083040F60613ADF80C30344BE5
:101830001D680B785A1CA5EB080562F302030B70B8
:101840006BBA4B808B8800265BBA8B804E70082267
:10185000304603F0C2FBACB22A46414603F0BDFB62
:1018600004F10A03D9F800201FFA83FB5BBAADF834
:1018700014301368CDF8163007460DF1140A0C34F5
:101880005368CDF81A302A4641467FBA0DF11E0042
:10189000A4B205F0F5F82AF80B705346009404AA98
:1018A000BD2128A8FFF73CFCBDF8107007B3154D0B
:1018B000DFF854802B6802215B6803A89847344600
:1018C0003E1B7C2E2B68A8BF7C2628AA10195B68BB
:1018D000314698472B6834445B680121404698475D
:1018E000A74205DD2B6802215B6802A89847E7E75D
:1018F00059B0BDE8F08F00BF2C1B00200C1D00204C
:10190000E41A0020301B00203474000038B50B4C62
:1019100005460A21204605F03EF8022208492046E5
:1019200005F02CF82946204605F011F820460A213A
:1019300005F039F8BDE83840FFF768BFE41A002029
:10194000F37300002DE9F047D4B005AF0DF118098D
:1019500007AE4FF0FF340B463C60C9F800403460DE
:101960000AAD00240121C5E900440246009130A8D7
:101970000421CDE901440894099404F05FFF40225A
:10198000214620A805F0A4F8884B1C9305231D933D
:10199000874B8848CDE91E39874B2193874BCDE98A
:1019A0002335874B2693874B0321CDE92B01CDE9C6
:1019B0002836CDE92D370422279109AB1CA930A880
:1019C000229203F06BFA20B303240A217E4804F02C
:1019D000E2FF7E497C48022204F0D0FF7A4821468B
:1019E00004F0B5FF4CB973497748032204F0C6FFF1
:1019F000774B7548196804F0B4FF0A21724804F067
:101A0000D2FFFFF703FF089803F091F954B0BDE847
:101A1000F0873B685A1CD5E90084D5D0B8F1000F97
:101A2000D2D06C4A33B9D9F80010B1F1FF3F18BFDA
:101A30000B46136000211068FEF764FE08A9C0B2CF
:101A4000FFF79CFD0028BFD13B68614D002B47D1BB
:101A5000089F2B603846D7F8089002F0B2FE5E4A25
:101A60000146384602F0A1FD002840F09C80336812
:101A70004B45A9D8594A1060594A13602A68574EF5
:101A8000089831682244013A03F0E8F900283060F0
:101A90009ADB0898DFF8489103F089F9B4FBF0F37A
:101AA00003FB10462B680898A71B1C44D9F800308C
:101AB0009C4238BF002603F07AF9012806D908981D
:101AC00003F075F9013818EA000F4AD1296808981F
:101AD0003B46424603F041F900287FF475AF2FE002
:101AE0002A68934201D000246FE73D4A12682344DC
:101AF0009342C3D968E7BA45089828BFBA4603F0AD
:101B00005DF9402201460CA804F0E2FF524641462E
:101B10000CA804F0B5FF2968089853460CAA03F0F6
:101B20001CF9044600287FF450AF2B6853442B6007
:101B3000D044A7EB0A07089803F039F9B842DAD97C
:101B400096B92B68D9F8002033443B4493422B606C
:101B5000C9D1214B08981A68114603F07FF9C40FC8
:101B600033E74FF0400AE6E7089803F027F9082228
:101B700001460CA804F0ACFF324608EB07010CA8A4
:101B800004F07EFFDDF82080296840467C1803F0D1
:101B90000EF90CAA03462146404603F0DEF8002861
:101BA0007FF412AFCDE701240FE700BFF67300000A
:101BB0008F66000005740000FC7300009966000049
:101BC0000174000095660000E41A0020F373000021
:101BD000DC1A0020E01A0020D41A0020D01A0020BD
:101BE000CC1A0020F0B50C68164F174B85B00238A0
:101BF0000D46C4F58061009003AA38190131FFF742
:101C00000FFB0446D0B92B68039A1344022B2B60B8
:101C100011D93E8876BAB6B2023B9E420BD132460B
:101C2000B91C03F0DAF930B9022E04D92B689A1ED8
:101C30002A60FC540124204605B0F0BD4FF0FF346B
:101C4000F9E700BF8D1D00209021002007B500237B
:101C50000093044A04488023022104F0A6FE03B046
:101C60005DF804FB0C1D0020E41A00202DE9F04172
:101C700007299CB0044640F2E180037813F0050F79
:101C800040F0DC8043885BBAA1F108059BB2AB420F
:101C9000C0F0D4806B4B186083885BBA8380FFF7F9
:101CA000D5FFA688012E40F0B180E37923B1012B46
:101CB00000F0A4800820BCE02578FEF7ADFE0446C5
:101CC00002F0EFFD204602F02EFE05F0070501466A
:101CD000002840F091802046FEF7B6FD002840F035
:101CE0008880002D7ED131465748DFF8608104F0AE
:101CF00052FE57495448062204F040FE524805213E
:101D000004F045FE266AD8F80070002E52D0202339
:101D100004AA0021304603F00BF84E4B049A9A4275
:101D20000CD10023CDE902330193402300933246C6
:101D30000CAB04A92046FEF71BFD0746464B1B686B
:101D4000BB4236D11421404804F025FE0422434909
:101D50003D4804F013FE29463B4804F002FE40498A
:101D60003948072204F00AFEBDF8263001939DF899
:101D7000253000933B4A9DF8243040210CA802F006
:101D800097FA0A9B4BB1421E3E2A06D80CAEC0F110
:101D90004001354A304402F08BFA0CA8FEF7CAF92C
:101DA0000CA90246284804F0E9FD2748142104F054
:101DB000FAFD1DB9E66CD8F800708EB905212248ED
:101DC00004F0EDFD0121204804F0EDFDFFF71EFDBC
:101DD000204602F0C0FD1CB0BDE8F041FFF736BF61
:101DE000012594E7204602F0B6FD0820FFF78EFD9E
:101DF000F1E7204602F0AFFD0120F7E7294604F1A4
:101E000008001CB0BDE8F041FFF79CBD002E7FF438
:101E100051AFE379012B0BD0052B7FF44BAF30464C
:101E2000FFF774FD114804F0CAFD0120FFF762F9C5
:101E300030461CB0BDE8F041FFF768BD1CB0BDE8FE
:101E4000F08100BF2C1B0020E41A0020400000207D
:101E5000097400003DB8F3960C12002010740000C5
:101E6000157400001D7400002974000090D0030058
:101E70002DE9F341284FDFF8A480294E01233B7060
:101E8000284B00240546009418603B7813B902B033
:101E9000BDE8F081244BC3F80086C3F80486C3F87C
:101EA0000886C3F80C86C3F81086C3F81486C3F8F6
:101EB0001886C3F81C86FEF749FBC4F580612B68C1
:101EC00001AA0131301998470028019B01DC002B41
:101ED000DBD004442BB940F201439C42D5D100240D
:101EE000D3E73378062B09D17378092B0BD1002364
:101EF00000936946A01EFFF775FE04E0042B02D193
:101F00007378142BF5D00128E9D1009907480239DC
:101F1000FFF7ACFEE3E700BF8C1D00203546526E94
:101F20008E210020301B0020000001408F1D00206A
:101F300008B50348034A0021121A03F006F808BD49
:101F400068010020B42500200748084A084908B560
:101F5000121A02F0FCFF0748074A0849BDE808408A
:101F6000121A02F0F4BF00BF3C00002068010020FC
:101F700078750000000000203C0000203C75000047
:101F800030BFFFF7FDBF00BF134B9A6A12F0007F0E
:101F90009A6A14BF1E201D2012F0807F9A6A18BF13
:101FA0001F2012F4002F9A6A18BF212012F4802FEC
:101FB0009A6A18BF222012F4003F9A6A18BF2320A1
:101FC00012F4803F9A6A6FEA02426FEA12429A6202
:101FD00018BF2420704700BF00ED00E010B5194B7A
:101FE0000246986A9C6A10F4805F14BF172016207E
:101FF00014F4006F9C6A18BF1820A40509D5986BCB
:10200000986A000404D51AB19A6A22F400429A62CE
:1020100019200C4B9A6A12F4806F9A6A18BF1A2022
:10202000D2050CD49B6A13F4005F18BF1C20054A2C
:10203000936A43F47F43936200230B7010BD1B200F
:10204000F5E700BF00ED00E010B51C4B0246986AB2
:102050009C6A10F0100F14BF1120102014F0080F0C
:102060009C6A18BF1220A40709D5586B986A00060D
:1020700004D51AB19A6A22F080029A6213200F4B9B
:102080009A6A12F0010F9A6A18BF142012F0200FFA
:102090009A6A18BF1520D40658BF9B6A074B9A6AE4
:1020A000920642BF5A6A22F400525A629A6A42F079
:1020B000FF029A6200230B7010BD00BF00ED00E02C
:1020C000F0B5474B5B688BB00446C3F308030025AB
:1020D00085F31188BFF36F8F02F07F40B0F17F4F1F
:1020E00011D102F00C0008280DD010074CBF0C468F
:1020F00001250022033B8DF80720032B05D8DFE8DC
:1021000003F02462665F2C46F3E700239DF8072066
:10211000CAB902AE04F1200720686168324603C2E2
:102120000834BC421646F7D1099A002D53D0C2F3A9
:10213000080121B96FEA52226FEA4222099202A9EC
:10214000184602F006FF0BB0F0BD254BDA6A910786
:10215000DBD4DA6A002AD8DBDA6A5200D5D55A69AC
:10216000A16942F480725A61BFF34F8FBFF36F8F42
:102170005A6931F8021C22F480725A61BFF34F8F02
:10218000BFF36F8F4DF60272914209D09A6AD2B2B4
:1021900042B10DF107010120FFF756FF0346B5E7F5
:1021A0002368B3E79A6A12F47F4F05D00DF1070157
:1021B0000120FFF713FFF1E79B6AB3F5803FA4D33B
:1021C000FFF7E2FEEAE70DF107010020E4E70DF179
:1021D00007010020EDE722F4FF7222F00102ADE7D3
:1021E00000ED00E0044B5A6942F010025A615A694E
:1021F00022F008025A61704700ED00E0EFF308801A
:10220000EFF3098101B57246FFF75AFF01BD00BF28
:10221000002080F31488BFF36F8F0F4880F3088885
:1022200001F08EFA00200D490860BFF34F8F00F0D7
:1022300019F8202080F3118809484FF400614018F4
:1022400080F30988EFF314800221084380F3148897
:10225000BFF36F8F00F09EF8B855002094ED00E0BA
:10226000B825002072B6002383F31388144B4FF077
:10227000FF32C3F88020C3F88420C3F88820C3F855
:102280008C20C3F89020C3F89420C3F89820C3F89A
:102290009C20C3F88021C3F88421C3F88821C3F8A7
:1022A0008C21C3F89021C3F89421C3F89821C3F876
:1022B0009C2162B6BFF34F8FBFF36F8F704700BF93
:1022C00000E100E01EF0040F0CBFEFF30880EFF315
:1022D0000980816911F8021C0229FFD001B57246FC
:1022E00002F03DFE01BD00BF40B2002807DB044AFA
:1022F0004109012300F01F00834042F8213070475C
:1023000000E100E040B200280CDB4309064900F080
:102310001F0020330122824041F82320BFF34F8F5A
:10232000BFF36F8F704700BF00E100E0054B42092B
:1023300000F01F0053F82220012303FA00F01040A0
:10234000704700BF00E100E040B20028A8BF00F1E4
:10235000604001F10101B8BF064B4FEA4111ACBF2B
:1023600000F5614000F00F00C9B2B4BF195480F805
:102370000013704714ED00E0044B054A23F07F037F
:102380009360BFF34F8FBFF36F8F70470000000063
:1023900000ED00E008B5FFF7EFFF074AD2F88830FC
:1023A00023F47003C2F88830FFF7C2FDFFF7CCFDBD
:1023B00000F022F801F0A2FE00ED00E080B50C462E
:1023C00007461546084E86F30988002004498847C9
:1023D000204629461A46B84702488047FEE70000D3
:1023E0007F4F00008D4F0000B8550020014B102298
:1023F0001A61704700ED00E0044800232021C21854
:102400000133302B82F80013F9D1704700E100E06E
:1024100008B5EFF30583064A103B02EBC30152F8FF
:10242000330049688847BDE8084002F0A3BD00BFFB
:10243000086D000008B5054802F087FB002383F310
:102440001188BFF36F8F0423184602DF2D7400003C
:102450000E4A0123C2F840354FF080424FF08051C0
:10246000C2F87835D1F83001082808D1D1F83411F4
:10247000052904D80648415C09B1C2F838364FF046
:1024800080430122C3F880250020704700E001400E
:102490003674000048B1054B054A1B68B3FBF2F3E4
:1024A0005843044B43F00103184770474001002094
:1024B00040420F00606F0000BFF34F8F0549064B8D
:1024C000CA6802F4E0621343CB60BFF34F8F00BFD2
:1024D000FDE700BF00ED00E00400FA0508B5044880
:1024E000044A3F23C0E9002301F000FA002008BDA0
:1024F000341B0020FFFF0F00036803F01F025B097D
:10250000026004D0012B034818BF002070474FF031
:10251000A04070470003005037B51F2101A801916A
:10252000FFF7EAFF019B194C019100EB83000121A9
:10253000D0F80037234043F4A06343F00303C0F80E
:10254000003701A8FFF7D8FF019B01FA03F3C0F899
:102550000835142568460095FFF7CEFF009B0095CF
:1025600000EB8300D0F80037234043F4E06343F0EE
:102570000303C0F800376846FFF7BEFF009B994091
:10258000C0F80C15002003B030BD00BFF0F8FCFF10
:1025900013B504460B4802F06FFD012802D010F17C
:1025A000860F0CD1074801230DF10702002102F02C
:1025B0006BFD20B99DF807301B1B5842584102B0F3
:1025C00010BD00BFEC6C0000014802F08DBD00BFE3
:1025D000EC6C0000084B70B5C31A0D4607499B1000
:1025E000044659430648402202F0AAFD2B46014604
:1025F0002046BDE870401847501B0020B76DDBB681
:10260000D46B000073B50C4C0C4A4023041B0093A0
:102610000D460B460A49A41061430646094802F0DC
:10262000BAFD011E05DA30462B4602B0BDE8704007
:10263000184702B070BD00BF501B002005520000BB
:10264000B76DDBB6D46B00000022F8B5012105465A
:102650001046FFF779FE104801F070F90446B8B94A
:1026600001F08CF92F690D49384602F0CAFA031EB1
:1026700009DB01263E642D69084905F11C0002F0C2
:10268000C0FA031E02DA1C462046F8BDEE64FBE7E2
:102690006FF00404F8E700BF99270000EC70000019
:1026A00010B5EFF31184202383F31288BFF36F8FEB
:1026B000074A136823F00201DB07116002D40120EE
:1026C00003F0F0F984F31188BFF36F8F10BD00BFE2
:1026D000A01B002030B4104B0C2202FB003301463B
:1026E0000020D3E90E529863EFF31180202484F385
:1026F0001288BFF36F8F1C6C04F0C00444F0020416
:102700001C6480F31188BFF36F8F1DB12B46034803
:1027100030BC184730BC7047501B0020D46B000001
:1027200010B4EFF31182202383F31288BFF36F8F6D
:102730001748016841F002040460C80707D482F317
:102740001188BFF36F8F012010BC03F0A3B94FF0C5
:102750008041D1F80C04D1F80C14C907EFD5EFF380
:10276000118083F31288BFF36F8F0A490B6C03F05B
:10277000C00343F002030B6480F31188BFF36F8F33
:1027800082F31188BFF36F8F002010BCFFF7A2BF48
:10279000A01B0020501B002010B1012804D070475E
:1027A000034B1B6C5B0701D1FFF794BF704700BF61
:1027B000501B00202DE9F8433649BFF35B8F0746D5
:1027C000012251E8003F41E800200028F9D1BFF381
:1027D0005B8F33B9304931484B60CB608A6002F07F
:1027E00023FA7B1E012B2DD8012F07D14FF08043F8
:1027F000D3F81C3403F00303012B23D004F020F999
:10280000054608BB264B1B78F3B14FF080430222EC
:10281000C3F808230646DFF88C904FF080444FF051
:102820000108D4F81824D4F81834D20315D503F0CD
:102830000303012B01D0012F0FD125B386F311889B
:10284000BFF36F8FBDE8F883EFF31186202383F386
:102850001288BFF36F8F0125DDE7304602F0ABFB36
:10286000D4F81835002BDCD1D4F80421002AD8D0B4
:10287000C4F80431D4F80431C4F81885C9F880814B
:10288000C4F80880CDE74FF080430222C3F8042348
:10289000D8E700BF4C1B00203C1B00206C1B002015
:1028A000B325002000E100E0002903690ADC1B6871
:1028B00013B113600020704743689968034BB3FB62
:1028C000F1F3F6E76FF01500704700BF00CA9A3BBE
:1028D000024B0B6001231360704700BFAC1B00204C
:1028E000004870472471000010B503F0DDFB034C75
:1028F000206003F0D5FB6060002010BDAC1B002001
:102900004FF08042D2F81015D2F8103501F01E01B8
:1029100023F01F030B4343F00103C2F81035024BB1
:1029200000221A70704700BF902500204FF080539E
:10293000D3F83031082B20D14FF08042D2F8101557
:10294000CB071AD5D2F8103501F01E0123F01F0372
:102950000B43C2F81035D2F808315BB1D2F810350C
:1029600023F01F030B4343F00103C2F810356FF04F
:102970008B007047024B01221A700020704700BF85
:10298000902500202DE9F0410D46164603F088FB06
:1029900031460746284602F0CBFC28B3B5FBF7F3D7
:1029A00007FB135303BBB6FBF7F407FB1464DCB956
:1029B000B74213D803F074FBDFF834800746FFF703
:1029C000B5FF044668B9284601F08AFA98F8003045
:1029D0000BB1FFF795FFF61B3D44F0D12046BDE853
:1029E000F0816FF08B04F9E76FF01504F6E700BF94
:1029F000902500202DE9F8430E463046194617462B
:102A00001C4602F095FC30B344EA060515F00305B8
:102A100021D11CB3DFF848906319032BA6EB0508FE
:102A200007D8104AD2F80034DB07FBD50020BDE8F8
:102A3000F883FFF77BFF58B97B1B4046196801F00C
:102A40006BFA99F800300BB1FFF75AFF043DE3E74A
:102A50006FF08B00EBE76FF01500E8E72046E6E744
:102A60009025002000E00140F0B544681646A068BB
:102A7000227C01F01F0587B045EA421500286DD081
:102A8000B6F5001F04D1294603F002FB002056E0F2
:102A90006268607CC2F8240501AA0020B6F5800FA8
:102AA0000190506037D1B3F1007F14BF0523042398
:102AB0008DF804300023CDE904230393E36823FA5F
:102AC00001F111F001010DF103073AD1B6F1A07F38
:102AD00037D105F01F036A0903F5E07326D0012AF8
:102AE0003FD1214A52F82330DB072AD4A0683A4666
:102AF000294603F043FA16301BD00297A06803AAB8
:102B0000294603F007F9002819DBA06801222946AD
:102B100003F06BFABAE7B3F1C06F05D0B3F1007FF1
:102B200014BF01230223C3E70323C1E74FF0A042F0
:102B3000D8E7A068394601F0D3F80028DDDA07B0FD
:102B4000F0BDA0683A46294603F018FA0028D5D10E
:102B50009DF80310A06801F0BDF8CFE76FF0850085
:102B6000EDE751F82330FFDE00030050420970B555
:102B7000034602D0012A17D070BD0D4E326951684C
:102B80000029F9D003F01F0301250C689D4000299E
:102B9000F2D08A682A4002D04B68304698472CB160
:102BA000236821461C46F2E7024EE7E72346F8E792
:102BB0000C6C0000F06B000038B54568A86890B157
:102BC00003F00BFA014670B9A86803F0EAF904466D
:102BD00058B902460649A86803F0CDF922460521F6
:102BE0000620FFF7B1FB002038BD6FF00400FBE7C3
:102BF0006D2B00002DE9F043476840F20636D00601
:102C00003B7C87B002EA060654BFC2F3401C4FF07B
:102C1000030C01F01F05B6F5837F144645EA431502
:102C20008DF803C045D00DD8062E16D005D8A6B114
:102C3000022E40D06FF0150038E0B6F5807FF9D154
:102C400001260AE040F20222964236D0B6F5407FD5
:102C500035D0B6F5007FEDD102260123220303FA19
:102C600001F12ED57B68C3F80815B86890BB05F054
:102C70001F036D092BD0012D75D13D4A02EB830254
:102C800084F48033D2F80017C3F30043C4F3404404
:102C900044EA430421F4E16144EA8C0421F0070191
:102CA00044EA06230B43C2F80037002007B0BDE812
:102CB000F0830726D1E70426CFE70526CDE70326D4
:102CC000CBE7630344BF7B68C3F80C15CDE74FF037
:102CD000A042D3E70DF10202294603F04FF914F4A4
:102CE000403F80460CD1B868294603F07CF9B8F122
:102CF000000FDAD19DF80210B86800F0EBFFD4E7BE
:102D00004FF0000901ABCDE90199CDE90439CDF8C7
:102D10000C90B86803AA294602F0FCFF4845C4DBC2
:102D200014F4003314D084F480349DF803308DF80B
:102D30000E30C4F300448DF80C608DF80D40B86877
:102D40004B4603AA294603F09DF80028CFDAACE7EA
:102D5000CDE904330DF103030393B86803AA2946B0
:102D600002F0D8FFF1E703F5E07350F82330FFDEFF
:102D700000030050036803F01F025B09026004D0E7
:102D8000012B034818BF002070474FF0A040704748
:102D9000000300502DE9F04FDFF86891DFF868A1DB
:102DA00085B01546064600EB810140F2FF18B1429E
:102DB00003D1002005B0BDE8F08F33685F04C3F392
:102DC000C322C3F3080400F19780444519F8027048
:102DD0004FEA136312D0192B1CD94E2B40F08F8071
:102DE000C5F8144503A80394FFF7C4FF039B4FF0F5
:102DF000010B0BFA03F3C0F8083527E0192B07D9AC
:102E00004E2B7CD14FF0FF33C5F814350436CEE796
:102E10004FF0FF34192B72D8DFE803F00D123D5844
:102E20004047587171717171717171717171717106
:102E300071715B65686BC5F80C45621CD2D1E5E722
:102E4000C5F81445601CE1D04FF0000B5A463368BA
:102E5000019303F40040002818BF002203A8009249
:102E600018BF4FF0010B0394FFF784FF039C019BF5
:102E7000009A00EB8400C3F3412CD0F800473B02DA
:102E800043EA8C03134304EA0A04234343EA4B0353
:102E9000C0F80037BAE7C5F80845CEE7631CC5F8A7
:102EA0000845B3D04FF0000B05E0601CC5F80C4599
:102EB000ACD04FF0010B03A80394FFF75BFF039B1B
:102EC000012202FA03F3C0F80C35C0E7C5F810453B
:102ED000B8E7C5F86045621C336897D0C3F3004378
:102EE000002BE6D07EE7C5F86445F4E7C5F86845F1
:102EF000F1E7C5F86C45EEE76FF015005AE76FF0A3
:102F0000850057E7A2740000F0F8FCFF036803F0A7
:102F10001F025B09026004D0012B034818BF002088
:102F200070474FF0A04070470003005073B503692D
:102F30004168224A0446184603F029F900283BDB81
:102F4000636825691E6B01AA0021304602F06CFA05
:102F5000002805DB019B326819791868FFF71AFF12
:102F6000002631462B6801F5AC7253F82230002B55
:102F70000EDB01A80193FFF7C9FF019AD0F80435D1
:102F8000D34013F001031CBF01238B403343DEB257
:102F900001310429E6D1002301206268116A00FA98
:102FA00003F232420CBF01220022D20321F8132087
:102FB0000133042BF1D1002002B070BD4F5400004A
:102FC000684620F007018D4601B5234BD3F8042352
:102FD000D20517D5D3F82021A2B1EFF31182202119
:102FE00081F31288BFF36F8FD3F8201131B1002124
:102FF000C3F82011D3F820110121D96082F3118880
:10300000BFF36F8F154B144A1B68D2F8581163B188
:1030100089B100211961D97B19B94FF48001C2F837
:1030200008139A7B3AB100229A7301F0A3FFBDE81E
:10303000014085467047084AD2F8241121B1002189
:10304000C2F82411D2F824211A68002AEDD0596858
:1030500003489047E9E700BF002000401C01002022
:10306000286C00002DE9F041044647680D4603F046
:10307000E7FC88B14FF02008EFF31186314688F362
:103080001288BFF36F8F606802F06BFB30BB86F372
:103090001188BFF36F8FEFE71D4B1B78002BE9D032
:1030A0004FF020086426606802F05BFB50B90120F5
:1030B00002F09DFC013EF6D1F4E786F31188BFF3E0
:1030C0006F8FEFE7EFF31186314688F31288BFF375
:1030D0006F8F606802F045FB0028EED0BB691D7061
:1030E0006368BA691B680020C3F844250122C3F84D
:1030F0004825C3F82001D3F82041C3F85801D3F87C
:1031000058019A6081F31188BFF36F8FBDE8F08199
:10311000B325002070B5012383400E4ABFF35B8FB7
:10312000DC4352E8001F01EA040542E80056002E85
:10313000F7D1BFF35B8F4FF4803282400648C0F86E
:103140000823BFF35F8FBFF36F8F0B4214BF0120C3
:10315000002070BDD01B00200010014070B40E494B
:10316000D1E90034D01AC31844F1000422F07F469C
:10317000C1E90034A6F50013B3F5400F09D2074B9F
:103180001B681A0A1B069C19054B42F10005C3E98E
:10319000004570BC01F016B880010020D41B00204F
:1031A0008801002011B3BFF35B8F0123104A8340D5
:1031B00052E800CF4CEA030C42E800C10029F7D1E5
:1031C000BFF35B8F0B4A4FF480338340C2F8043364
:1031D000094BBFF35B8F1B68BFF35B8FC340DB07FB
:1031E00042BF064B4FF40032C3F80021704700BFC6
:1031F000D01B002000100140CC1B002000E100E0AB
:103200000D4B1868010A0006BFF35F8F0B4BD3F814
:103210000435181841F10001B3F5801F0AD2084B9C
:10322000D3E90023904271EB030303D210F18070C5
:1032300041F10001704700BFD41B00200010014085
:10324000880100202DE9F04F85B016461F469DF8F5
:1032500040A00446FFF75EFF0190FFF7D1FFB042A8
:1032600071EB070354D23E4B301A67EB01019842D1
:1032700071F100014FD23B4B03EB0413D3E902235E
:103280009F4208BF96425ED037494FF4803804F120
:10329000500508FA04F8AD00C1F848832046ADB2E5
:1032A00002F039FB26F07F4B05F1804504F5A87349
:1032B00005F58835DC464FF003090293029A2CF09D
:1032C0007F4341F82230C1F84483D1F80435274ABE
:1032D0006FF00200C01A604420F07F40904232D963
:1032E000286868B1D1F804350393A3EB0B0020F0F4
:1032F0007F40B0F5000F26D9204602F00CFB039B5F
:10330000BAF1000F07D109EB030C09F10109D5E768
:10331000BAF1000F09D06FF0150520460199FFF7AB
:1033200041FF284605B0BDE8F08F0123104ABFF3E6
:103330005B8FA34052E8000F184342E800010029C8
:10334000F8D1BFF35B8F07490E98230101EB0412FC
:10335000C8500F9B5360C2E902670025DDE700BF3C
:10336000010080007001002000100140FDFF7F007F
:10337000CC1B00207FB51C4C1C4BC4F80833C4F890
:1033800048331B4B00254FF0FF304FF0FF31C4F89E
:103390000855C3E902014FF48033C4F80433154BD8
:1033A00002264FF400320121C4F804631120C3F84F
:1033B00080212A46FEF7C8FF1120FEF795FF0E4A2E
:1033C0000123A360236013600C4B0D4A0093CDE9E9
:1033D000015500232846FFF735FF3046FFF7EAF98D
:1033E000284604B070BD00BF0010014003000F006C
:1033F0007001002000E100E0D01B00205D310000E2
:10340000FFFF7F002DE9F7432F4CD4F804339907D1
:103410000BD5D4F8043143B12C4A0023C4F804314D
:10342000D4F80431136801331360D4F80433DA0399
:1034300029D5BFF35B8F264B53E8002F22F0010103
:1034400043E800100028F7D1BFF35B8FD30702D405
:10345000D4F84031BBB10025C4F84051D4F8403114
:10346000FFF7CEFEEFF31182202383F31288BFF320
:103470006F8F184BD3E90267B042B94106D282F38D
:103480001188BFF36F8F03B0BDE8F0834FF0FF38B2
:103490004FF0FF39C3E90289D3E900101D604FF4F2
:1034A0008033C4F84833C4F84051D4F8403182F333
:1034B0001188BFF36F8F0029E5D0009032463B465C
:1034C00028468847DFE700BF00100140D41B0020DA
:1034D000CC1B00207001002030B5431C124C85B07D
:1034E00005D08442A8BF0446012CB8BF0124FFF7D1
:1034F00087FE0E4B0C4DD3E90013401AB0F5000FB8
:1035000010D22218AA4228BF2A4652184FF00000B3
:1035100007490091CDE9010043F10003FFF792FE56
:1035200005B030BD2A46F0E7FFFF7F008001002094
:103530005D31000008B5FFF763FE024B1B68C01A3F
:1035400008BD00BF8001002010B5084C0123636056
:103550001120FEF7D7FE064BC4F80833C4F84833F1
:10356000044B4FF40032C3F8802110BD001001401D
:1035700003000F0000E100E0F0B5816885B010396C
:10358000054621F0070401F019FC0B4B6E4603F1D0
:10359000100C324618685968374603C7083363452C
:1035A0003E46F7D110232146284601F0D6FB0038CD
:1035B00018BF012005B0F0BD6872000030B50D469F
:1035C000816887B0102302AA1039044601F0B0FBCD
:1035D000002802DA012007B030BD102202A92046DF
:1035E00002F0B9F900283AD11E49102202A803F0CE
:1035F00077FA00280CBF012302232B70204602F02B
:1036000096F9012301460DF10702204601F090FBD7
:103610000028DFDB9DF8073003F00F021B096A70FA
:103620002B7101220DF10701204602F094F910B927
:103630006B78042B03D901236B7000232B71A268D4
:10364000183A22F00702083AA91C204602F096F91F
:103650000028BFD1E91C204602F0ACF9BBE70323E8
:10366000CBE700BF687200007FB5264D4400694675
:1036700055F8240002F0A4F9002835D1013402A93C
:1036800055F8240002F09CF901282BD103238DF872
:1036900008308DF80B309DF800509DF808601A4AEC
:1036A00000241078294602F048F918B350783146C2
:1036B00002F043F9F0B19378042B03D09DF8031086
:1036C000994217D1D378042B03D09DF80B1099425F
:1036D00010D11379042B09D15079831E022B03D802
:1036E00004B070BD0028D6D0FF20F9E79DF8021085
:1036F0009942F1D00134032C02F10602D1D101200C
:10370000EEE700BF40720000F87400004FF08053F5
:10371000D3F83021082A06D1D3F83431052B02D84A
:10372000024AD05C70470020704700BF107500004F
:10373000024AD2F80034002BFBD0704700E0014071
:1037400008B54FF08053D3F83021082A4ED14FF0FE
:1037500080420021C2F80C11C2F81011C2F83815CD
:1037600002F54042D3F80414C2F82015D3F8081427
:10377000C2F82415D3F80C14C2F82815D3F8101485
:10378000C2F82C15D3F81414C2F83015D3F8181455
:10379000C2F83415D3F81C14C2F84015D3F820141D
:1037A000C2F84415D3F82414C2F84815D3F82814E5
:1037B000C2F84C15D3F82C14C2F85015D3F83014B5
:1037C000C2F85415D3F83414C2F86015D3F838147D
:1037D000C2F86415D3F83C14C2F86815D3F8401445
:1037E000C2F86C15D3F84434C2F87035FFF78EFF79
:1037F00018B1364B364AC3F88C26FFF787FF18B14D
:10380000344BFB22C3F81825FFF780FF70B14FF04F
:1038100080414FF08053D1F8E42ED3F8583222F093
:103820000F0203F00F031343C1F8E43EFFF76EFFEE
:1038300020B1294B4FF40072C3F840264FF080535B
:10384000D3F83031082B1AD14FF08043D3F800243D
:10385000D20744BF6FF00102C3F800244FF0805339
:10386000D3F83431052B02D81C4AD35C3BB14FF05E
:103870001023D3F808224FF08043C3F858254FF0A7
:103880001021D1F80C32DB071FD515480123C0F8F1
:103890000435FFF74DFFD1F80C3223F00103C1F8D6
:1038A0000C32FFF745FF0023C0F80435FFF740FF57
:1038B000BFF34F8F0B490C4BCA6802F4E06213430D
:1038C000CB60BFF34F8F00BFFDE708BD0050004045
:1038D0004881030000F00040009002400A7500009B
:1038E00000E0014000ED00E00400FA05014B186023
:1038F000704700BFD81B002010B5054B1868144650
:1039000002F077F80028A4BF2070002010BD00BF8F
:10391000D81B0020024A01238340C2F804357047B7
:1039200000F00140014B00201B681847DC1B002001
:10393000014B1B68184700BFDC1B002010B50C4C66
:10394000237993B9012323710A4B2060002818BF03
:10395000184600F05BF850B923680748002BBDE813
:10396000104008BF184600F0A1B86FF0770010BDF6
:10397000DC1B0020253900003139000008B5064B5A
:103980001B683BB10020FEF7D1FC18B9BDE8084028
:10399000FEF7AABC08BD00BFDC1B00204FF080531F
:1039A000D3F83021082A06D1D3F83431052B02D8B8
:1039B000024AD05C70470020704700BF16750000B7
:1039C00038B54FF080440123C4F808336360002306
:1039D000C4F80031D4F8003142F21075D4F80C2448
:1039E000D4F80C34D20307D5DB0705D5012001F04C
:1039F000FEFF013DF2D138BDFFF7D0FF0028FAD01D
:103A0000014B00225A71F6E7E41B002010B508496B
:103A10000C794CB9012308600B71FFF7BFFF08B99F
:103A2000002010BD4C71FBE76FF07700F9E700BF95
:103A3000E41B00204FF080430022C3F80021D3F89C
:103A40000021094901221A60096811B1C3F8042351
:103A50007047D3F80021002AFBD00022C3F80021D0
:103A6000D3F80031704700BFE41B002010B54FF0C1
:103A70008043D3F80423D20715D5D3F8002192B19F
:103A80000022C3F800210121D3F80021C3F8081354
:103A9000FFF784FF044B10B15A7922B95971BDE880
:103AA00010401B68184710BDE41B0020074A13791B
:103AB00043B90121106011714FF080421846C2F8DD
:103AC000183570476FF07700704700BFEC1B00207F
:103AD00010B54FF080431D4CD3F81814D3F81824B8
:103AE00011F4803F19D002F00302012A03D00AB179
:103AF00001F0E9FF00224FF08043C3F818250022AF
:103B0000C3F80421D3F8042101229A60226872B913
:103B1000D3F80421002AFBD011E0D3F81424D107F4
:103B2000E8D5D3F81C249207E2D422681AB1022205
:103B3000C3F8042310BDD3F80421002AFBD00022CF
:103B4000C3F80421D3F80431F4E700BFEC1B0020D4
:103B5000F8B54FF08043194FD3F80443012504F022
:103B60001A04002604B9F8BDB4FA84F0C0F11F00AD
:103B7000830003F580739BB203F1804305FA00F2E2
:103B8000196824EA02040029ECD01E601B684FF07B
:103B900080430128C3F808230CD1D3F81824D3F8A4
:103BA0001824920706D10222C3F81805C3F804238B
:103BB0009860D7E73B68C0B29847D3E7EC1B00207A
:103BC000036803F01F025B09026004D0012B034865
:103BD00018BF002070474FF0A0407047000300500E
:103BE000034A430900F01F00D35C1844C0B2704779
:103BF0001C750000034611F0010030B5CCB213D1A2
:103C0000A207C4F3400020D5124AD2F8200558601C
:103C10004FF08053C2F82005D3F83031082B15D06F
:103C2000003818BF012010E04FF0A0414FF0805540
:103C3000D1F820251A60C1F82025D5F83051082D7B
:103C400008BFD1F82015002ADAD030BDD2F82035CF
:103C5000E6E700BF00030050F7B504460846FFF74B
:103C6000BFFF06B204EB46060D46B38ADB072BD531
:103C7000204602F02CF82946204601F097FF58B163
:103C8000204601F0A9FF276800B207EB800300225D
:103C9000C3F81025C3F810252946204601F0C5FFBA
:103CA0000021B18201A80195FFF78AFF019B00EB7B
:103CB0008300074BD0F80027134043F00203C0F8FD
:103CC0000037084603B0F0BD6FF01500FAE700BFFB
:103CD000F0F8FCFF014801F0AABE00BF440100203B
:103CE00010B504480C4601F084FE0028A4BF2070E3
:103CF000002010BD440100202DE9F04F804689B01E
:103D000058F804ABDAF80413C9B28346082241F02C
:103D10000041504601F0B3FF051E2BDA00230321BA
:103D200006A8CDE90633FFF765FF644B01930DF15B
:103D300018090023019A009312F8013B604901928F
:103D4000DA0803F007038A5C22FA03F3DA071AD4CD
:103D5000009B09F10409A3B14FF000410022504635
:103D600001F08DFF032106A8FFF744FF0028DCD1F6
:103D700025F000450124002D40F08A8009B0BDE8FF
:103D8000F08F0123D6E7009B4E4A13440293D9F8E3
:103D900000100029DCD0029B91FAA1F11C78B1FA45
:103DA00081F141EA44142046FFF71AFF0BEB400073
:103DB0000594878AC808BB0819F80020039301F00E
:103DC0000701012303FA01F122EA010209F80020A8
:103DD00005A8FFF7F5FE059A039B02F5E072C7F30D
:103DE000820650F822205B073746C2F3014233D5E2
:103DF000D6B240463A46214601F0F8FE05A80594A1
:103E0000FFF7DEFE059B03F5E07350F82330C3F3A4
:103E100001439E4207D10021204601F0B8FE314601
:103E2000204601F0B4FE05A80594FFF7C9FE059BE6
:103E3000012202FA03F3C0F820354FF08053D3F883
:103E40003031082B01BFD0F82035D0F82035D0F81C
:103E50002035D0F820359AE7022A0DD103212046DB
:103E600001F095FE06F00503012BDCD13A46214610
:103E7000404601F0BBFED6E702212046039201F046
:103E800086FE032EF2D0039A032ACCD1022EECE751
:103E900095FAA5F3B3FA83F304FA03F225EA0205CF
:103EA00003F5A2720BEB43035AF82220B3F87C10FF
:103EB000C2F30142404601F099FE5CE72C75000018
:103EC0004C7200002C750000044AD2F80034DB0765
:103ED000FBD50160BFF35F8F704700BF00E001407A
:103EE0004FF080531A69B0FBF2F302FB13036BB976
:103EF000084B0222C3F80425C3F80805D3F80024B0
:103F0000D207FBD50020C3F8040570476FF00C0002
:103F1000704700BF00E0014010B5054C0123C4F814
:103F20000435FFF7D1FF0023C4F8043510BD00BFEE
:103F300000E00140036803F01F025B09026004D047
:103F4000012B034818BF002070474FF0A040704776
:103F5000000300502DE9F3470B7F04466BBBDFF8ED
:103F6000D8900D1F01F1100601F10C08012755F83A
:103F700004AFBAF1FF3F1CD03378CDF804A001A8FC
:103F8000002B50D0FFF7D6FF019B07FA03F3C0F8D0
:103F9000083501A8CDF804A0FFF7CCFF019B00EB8A
:103FA0008300D0F8003703EA090343F00303C0F8A5
:103FB0000037A84506F10106D9D191F81DC00D8B37
:103FC0004F7D8E7D8A7EC87E2368BCF1000F0BD1A9
:103FD000D1E9008ED1E902C1C3F86085C3F864E578
:103FE000C3F868C5C3F86C1542EA0022C3F80C7523
:103FF000C3F80465C3F80855C3F8102520680023EA
:10400000C0F81031D0F81021C0F80831D0F80821DC
:10401000C0F80C31D0F80C3140F3073002B0BDE8E5
:10402000F047FEF761B9FFF785FF019B07FA03F33D
:10403000C0F80C35ADE700BFF0F8FCFF70B51646D0
:104040001D465A1C03681344C2689A42044605D2AE
:10405000006A082102F0F4FB002070BD32783DB107
:10406000AB1E062B9ABF0C4AD35C00231833DAB27E
:10407000204602F0E8FB0028EED03544B54203D1DB
:10408000A3680133A360E8E723685A1C226015F88F
:10409000012D1A70F2E700BF2E75000038B50A4BEB
:1040A00053F82040013053F82050A54200D838BDC5
:1040B000606830B1037EDB0701D402F084FC083471
:1040C000F3E723689847FAE75072000008B5094BF8
:1040D000012203201A70FFF7E1FF02F0D0FC042058
:1040E000FFF7DCFFFCF7B0FA034A137B23F0010370
:1040F000137308BDB32500209001002008B50020EF
:10410000FFF7CCFF154B83F30888154C636943F424
:10411000007363610025E02384F82230E57725767B
:104120006576A57684F82050636A43F4E0236362E1
:1041300084F82350FEF756F8FEF758F94FF0FF3396
:10414000A3620120E362FFF7A9FF0220FFF7A6FFA9
:1041500004482B462A462946FEF730F9B82D0020A0
:1041600000ED00E0CD400000024B1868984208BF07
:104170000020704748010020034B1B680BB9FFF774
:10418000D9B90020704700BFF41B002030B570B1D2
:104190000B4B5B6898420AD0036843B1D3E9042112
:1041A000D0E90445121941EB0501C3E90421D0E926
:1041B000003213605A600023C0E9003330BD00BFF5
:1041C000480100202DE9F047EFF31185202383F308
:1041D0001288BFF36F8FDFF8A090DFF8A080C9F8D6
:1041E0000000FFF7C1FF00260027D9F80030D8E90A
:1041F00000ECD91750B1D0E90442A34271EB020A96
:104200001ADAE41A62EB0102C0E9044213EB0E036E
:104210004FF000044CEB01012046C8E90031C9F819
:10422000004002F013FC2146FFF756F985F3118890
:10423000BFF36F8FBDE8F08714EB0E024CEBE47315
:10424000C0E90467C8E90023FFF7A0FF85F31188E0
:10425000BFF36F8F83689847EFF31185202383F3B3
:104260001288BFF36F8FD9F800301B1BC9F80030DC
:10427000FFF77AFFB9E700BFF41B0020000200201F
:1042800010B5EFF31184202383F31288BFF36F8FEF
:10429000FFF772FF054A0346D2E90001181841EB07
:1042A000E37184F31188BFF36F8F10BD000200200B
:1042B0000CB430B58BB004460D462022002102A874
:1042C00002F006FC02238DF80A30002D0C4B0393FC
:1042D000069412DB01D06B1E1C440FAA0E990794A2
:1042E00002A8019200F00EF815B1069B00221A7088
:1042F0000BB0BDE8304002B070470024EDE700BFCE
:10430000356B00002DE9F04F8378D0F80480154616
:104310009A0785B0074640F1B580002691F800B0B5
:10432000BBF1000F00F0B080BBF1250F05D001F10B
:10433000010A01363946584660E091F801B0BBF1F8
:10434000250F01F1020AF4D0002401211F2C26D8E8
:10435000ABF12002102A10D9ABF13002092A37D86C
:104360001AF801BBBBF1000FF0D139462520C04738
:104370000028C0F283800236DCE7854B01FA02F0A8
:104380001842EDD1032A64D0ABF13002092AE7D9F3
:10439000BBF12A0F11D1043544F02004E0E77F2C53
:1043A00016D8ABF13002092ADAD9BBF12A0F0CD1A9
:1043B000630605F10405D3D4EEE7BBF12E0F0AD155
:1043C000600661D444F04004CAE7BBF12E0FF7D079
:1043D000BBF16C0F2CD0BBF16C0F13D8BBF1680F85
:1043E0002DD0BBF16A0F31D0BBF14C0F2ED0BBF1F9
:1043F000630F0DD115F8040B01363946C04700286C
:1044000036DA3BE0BBF1740FAAD0BBF17A0FA7D02C
:10441000ABF16402112A00F29080DFE802F0398EDD
:104420008E8E8E398E8E8E8E8E98888E8E1C8E728B
:10443000220648BF44F4007444F0800490E7E3058A
:1044400048BF44F4007444F4807489E744F4207451
:1044500086E7102484E72C684E4B002C08BF1C46CE
:10446000A1464B4619F8010B20B9341B1E1904351F
:10447000514653E73946C0470028F2DABB7843F08B
:104480000403BB704FF0FF36304605B0BDE8F08F37
:1044900020062DD5A10545BF073525F0070555F8A0
:1044A000040B55F8080B0028B8BF44F4806424F0CE
:1044B0001004B8BF4042A4B20DF104090A224946D3
:1044C00002F01EFBE206A0EB09094DD5394630206B
:1044D000C0470028D2DBBBF1000F57D00236394667
:1044E0005846C0470028C9DB4C460DF1040B49E093
:1044F000E20555F8040BD6D5A3054CBF40B200B277
:10450000D1E724F01004A4B20A22200623D5A10585
:1045100045BF073525F0070555F8040B55F8080B7E
:1045200010B924F01004A4B20DF10409C7E744F057
:10453000100410224FF0780BE7E74BF02002782AA6
:104540007FF413AFCBF1780242F01002DDE70822CE
:104550004FF0000BD9E7E30555F8040BE0D5A105B2
:104560004CBFC0B280B2DBE76305BDD5013639462A
:104570002D20B6E7013C39461BF80400C04700284F
:10458000FFF67CAF002CF5D14E4471E70136ABE766
:104590008128010035750000704708B90860704730
:1045A0006FF0150070470020704730B5002985B0C6
:1045B0000446154611DB83688B420ED96368C068D8
:1045C000194401AA00F07BFE28B96268019B9B1A7E
:1045D0002B60029B6B6005B030BD6FF02100FAE7E5
:1045E0007047012303FA01F103691B68194203D0E4
:1045F00022B183681B6903E0002AFAD08368DB6874
:10460000184710B50120FDF7C3FF0128044603D168
:10461000FDF7DAFF204610BD0020FCE72DE9F0434E
:104620009DB0DDE926676846249D0C469146984674
:10463000FCF752FC36B1002F04DD3A46314668469D
:1046400000F0FBF963892289E76813441F440024C2
:10465000A74207D82598694600F015FA00201DB03A
:10466000BDE8F0833E1BAE4228BF2E46334642468D
:104670002146484600F05CFB0028F0D13246414616
:10468000684600F0DAF93444E2E72DE9F7430E46D4
:1046900017469946044628B94FF0FF38404603B004
:1046A000BDE8F0830029F7D0002AF5D0CB680D894A
:1046B0001D4404230DEB03022946384600F038FB65
:1046C00080460028E8D1BDF80410738946F6081228
:1046D000914225D1BDF806109942DDD104230DEB9E
:1046E00003022944384600F023FB0028D4D1BDF84A
:1046F000042046F607139A42CED1C4E900679DF81C
:104700002830A4F80890A3727389BDF806202B44C2
:10471000E360738913442B44043563612561BDE76D
:10472000002BE4D0B8E72DE9F3410E4617461D46AD
:10473000044620B94FF0FF3002B0BDE8F0810368B5
:10474000002BF7D04368002BF4D04FF6FF78D4E964
:1047500004239A4216D223685B8923B1E36893420B
:1047600004BF043323610423216960680DEB030255
:1047700000F0DEFA0028DDD1A37A2BB1D4E90332B0
:104780009A4201D30120D7E72389BDF8061043459B
:1047900001F1040203D0BDF804C09C450BD115B152
:1047A000BDF804302B8023690433336039802369DA
:1047B00013442361C0E7236913442361C7E702F070
:1047C0008FB910B5044600F0F2FA00F075F8A3684E
:1047D000984201D900F0FEFB181A10BD084601F0FE
:1047E000A6B801292DE9F341174601D900F0F2FBE3
:1047F0002C2303FB0104D4F82080B8F1000FF5D07E
:10480000E36826891E4404230DEB0302314640462B
:1048100000F08EFA054620B10125284602B0BDE819
:10482000F081BDF80420648946F608139A421AD133
:10483000BDF806309C4201D00325EEE704230DEBC2
:104840000302A119404600F073FA0028E4D1BDF834
:10485000042046F607139A42EED1BDF80610214413
:1048600031443960D9E7002CF1D0E5E713B54FF4B6
:10487000807201290346019208460AD15A6A03F15F
:10488000280401A900F0C3FA08B9019B236002B013
:1048900010BD022903D11A6D03F15404F1E7012080
:1048A000F5E710B528B1BDE810406022002102F004
:1048B0000FB9FCF7B1F8F6E74FF4407358433030C6
:1048C000704710B412B110BCFBF7DEBF104610BC2D
:1048D0007047002382681946FFF7F3BF08B52C2301
:1048E00003FB0101086A08B900F074FBBDE8084049
:1048F000042201F030B870B513460E46154600216B
:104900000246044600F089F850B92B4604F12C0207
:104910000121204600F081F810B1002E08BF0020D0
:1049200070BD00207047002110B504460846FBF713
:10493000E9FE04F12001C0B2FCF720FE40B90121DC
:10494000FBF7E0FE04F14C01C0B2FCF717FE08B122
:1049500000F040FB10BD10B50446C06C08B100F07B
:10496000E6F9206A18B1BDE8104000F0E0B910BDCA
:104970000123036003F1012343600023C0E90233F4
:1049800070474379012B07D10368012B04D10079CB
:10499000431E58425841704700207047F0B5D0F888
:1049A00028C0BCF5807F36D8436DB3F5807F32D800
:1049B000002422462146254626468C4507D89342A8
:1049C00005D88C4527D19B1A58425841F0BDAE42BC
:1049D0000CD1476A07EBC10701317F683E44076D80
:1049E00007EBC20701327F683D44E6E709D2476A18
:1049F00007EBC107022C7F683E440CD00131012433
:104A0000DBE7076D07EBC207012C7F683D4402D04E
:104A100001320224D1E70020D8E708B52C2303FB9C
:104A20000100006A08B900F0D5FA2023002100F047
:104A30007FF9003818BF012008BDF8B50C4610B149
:104A4000F9B10AB90120F8BD8D1800F12806002738
:104A5000836E5A1C8266034414F8011B83F82810E5
:104A60003F2A0BD93146FCF74FF9D0E9083213F54C
:104A7000007342F10002C0E908328766A542E7D11F
:104A8000E0E70846DFE7F8B50C460546002855D0B4
:104A9000002954D08B6ED1E90821D800121841F1B9
:104AA0000001581C2344C4E9082138284FF0800233
:104AB000A0664FF0000783F8282004F128060AD9E1
:104AC000C0F140023946304400F03BF83146204600
:104AD000FCF71AF9A766A06E0021C0F13802304435
:104AE00000F02FF8236A1ABA636A62661A0A84F819
:104AF000633084F862201A0C1B0E84F86030314653
:104B000084F861202046FCF7FFF82B1D211F243577
:104B100051F8042F03F8012C100E03F8040C100CAC
:104B200003F8030C100A03F8020C0433AB42EFD174
:104B300020467022002100F004F80120F8BD08464C
:104B4000FCE701F0C5BF002070470FB407B504A90A
:104B500051F8040B0191FCF7B5FA03B05DF804EBD2
:104B600004B07047038B13F0070305D10368002BD3
:104B70000CBF002003207047022B05D1408BB0FAF8
:104B800080F0400980007047012B05D10368002B9D
:104B90000CBF0020052070470020704710B50C4660
:104BA00000B111B96FF0150010BD081D00F093F8A9
:104BB0000028F9D1A368032BF6D9F3E72DE9F041DA
:104BC0000D4607461946281D90461E4600F094F8EB
:104BD000044638B13346424629463846A446BDE825
:104BE000F0416047BDE8F08110B4EFF3118220245A
:104BF00084F31288BFF36F8F416110BC0121FCF771
:104C0000AFBB38B50C46054658B151B10B6843B13E
:104C10004B6833B11C22002101F05AFF2C610020A7
:104C200038BD6FF01500FBE770B505460E46FFF77F
:104C3000B5FF041E14DBEFF31182202383F31288E7
:104C4000BFF36F8F6B8B2C8B4FF6FF718B4204F091
:104C5000070407D182F31188BFF36F8F6FF00A0446
:104C6000204670BD022C0CD101336B8382F3118876
:104C7000BFF36F8F0023224631462846FFF79EFF81
:104C8000EEE7062C14D8DFE804F004131313041A1B
:104C90000400002333606B683BB9C5E90066ACB91A
:104CA00002212846FCF75CFBDAE71E606E60F6E73F
:104CB00082F31188BFF36F8F6FF00404D0E782F3A3
:104CC0001188BFF36F8F6FF08504C9E782F31188F5
:104CD000BFF36F8FC4E7034658B1426802F0030286
:104CE000012A03D0032A04D1026812B1002098607F
:104CF00070476FF0150070474268816002F0030250
:104D0000032A4FF0000203460CBF006810465A60A9
:104D100070477047002908DB8068884205D9401A2F
:104D2000904234BF00200120704700207047704738
:104D300070B516461A4605460C46FFF7EBFF48B11C
:104D40006968E8682144826814683246A446BDE870
:104D5000704060476FF0150070BD70B516461A467A
:104D600005460C46FFF7D6FF48B16968E86821445C
:104D7000826854683246A446BDE8704060476FF0D0
:104D8000150070BD10B50B460446FFF7C3FF40B1D8
:104D90006168E068194483689B682BB1BDE81040E6
:104DA00018476FF0150010BD6FF05700FBE708B50E
:104DB000C0688368DB689847006808BD08B5C068AC
:104DC0008368DB689847407908BD70B54C68036814
:104DD000A34201D2012070BD8A682244934201D3CC
:104DE0000020F8E7D1E903254E69B54203D36FF0FF
:104DF0000B038B61F4E71B1B42F8353043680869ED
:104E000002EBC00253600B6901330B61E2E737B577
:104E10000C46C0B201A91546FCF7B0FB00280CDB1C
:104E2000019850B121462A46FCF7CEFB0446019872
:104E3000FFF77DFF204603B030BD6FF01504F9E7A2
:104E400070B506460D460024AC4200DB70BD305DF7
:104E5000FCF736FC0130F9D00134F5E773B583680F
:104E60009A420C460646114604D36FF015042046BC
:104E700002B070BD9442FADC6A46FFF796FB034627
:104E80000028F2D1DDE9005215442A1B21463046A4
:104E9000FBF7FAFC0028E8D12C46E8E72DE9F04FB3
:104EA00085B005460E4690461F4601F0FBFB20B933
:104EB0006FF04C0005B0BDE8F08F00234FF01409EF
:104EC0003B6009FB086934464FF0010A02A92846F5
:104ED00001F0E5FBDDE90232009368BB284601F0F2
:104EE0000AFC0028E4D00020E4E7A14598BF34463E
:104EF00061688A4214D121680098019201F0F0FDA6
:104F0000019A68B9237CD3B9D4E90231284698477D
:104F1000C0B184F810A03B68013314343B60D5E77E
:104F200014340BF1010BD845DFD10021284601F0E4
:104F3000F9FB0028CAD1D1E74FF0000BF3E76FF07F
:104F40006F00B7E76FF02200B4E701F0C1BD01F0D8
:104F500097BD012801D1EFF3058301F062BD014641
:104F60000068FFF7F6BF08B5FDF70AF8BDE808408E
:104F700000F000B8704700210120FFF7EABF61B6DA
:104F800062B680F31188BFF36F8F7047EFF3118023
:104F9000202383F31288BFF36F8F704772B600230C
:104FA00083F31188BFF36F8FBFF34F8F30BF62B6AB
:104FB000BFF36F8F704772B6002383F31188BFF37E
:104FC0006F8FBFF34F8F20BF80F31188BFF36F8FB8
:104FD00062B6704708B5FDF72DFA0A448A4200D13F
:104FE000704711F8013B40BA80B25840C0F3031338
:104FF0004340180380B24340580100F4FF5058402A
:10500000ECE72DE9F04106460D4617461C46ABB1CC
:10501000D0F80880D8F800309847002D11DB844282
:105020000FD8031BAB420CD3D8F808E023463A460E
:1050300029463046F446BDE8F04160471846BDE8D1
:10504000F0816FF01500FAE710B54468206801F0B0
:10505000D2FC70B1206883681B689847002807DB82
:10506000D4E90132134483428CBF6FF01500002055
:1050700010BD6FF01200FBE743681B8A002B0CBFCA
:105080006FF08500012070472DE9F04100291C4692
:105090001746436803DA6FF01500BDE8F081D3E9E5
:1050A00002250819521B9042F5D8D3E900625B7CB7
:1050B000C4B1D6F808801144CD183046D8F8003075
:1050C0009847002DE7DB8442E5D8001B8542E2D8F3
:1050D000D8F804E023463A4629463046F446BDE86F
:1050E000F04160472046D8E77FB50669456800244F
:1050F00010220021684601F0EBFC34702046AB68BA
:10510000A34201D804B070BDD5E9000121441B1BA6
:10511000102B28BF10236A46FFF773FF0028F1DB2E
:10512000AB681B1B102B94BFE4181034E7E703692E
:10513000C9B20C2201FB0233186C00F00700704763
:1051400070B5C9B20369EFF31185202484F3128886
:10515000BFF36F8F0C2606FB0134246C14F0C004DF
:1051600008D0A24206D085F31188BFF36F8F4FF0AD
:10517000FF3070BD71430B4401221A6485F311881E
:10518000BFF36F8F43680B445B6898470020F0E7DC
:105190008022FFF7D5BFF8B5069F0469C9B2EFF3C7
:1051A0001186202585F31288BFF36F8F0C25694384
:1051B0000C44256C05F0070CBCF1010F0BD12764E2
:1051C00086F31188BFF36F8FC4E90E2343685B58E1
:1051D00098470020F8BD05F0C005AF4286F311885E
:1051E000BFF36F8F0CBF6FF077004FF0FF30F1E728
:1051F00013B580240094FFF7CEFF02B010BD6FF00E
:105200008500704710B40069CBB21C2403FB040076
:10521000002110BC104700F06FBCFEF759BC08B568
:105220004368186801F0E7FB00280CBF6FF012001C
:10523000002008BD10B40029036908DC1C689442F2
:1052400001D11C793CB91A6010BCFBF7CDB86FF0E6
:10525000150010BC70476FF07700FAE7F7B51C46F1
:105260001646002382682360A36053690D4601AA95
:1052700069469847019B5A1E01921BB96FF01500B1
:1052800003B0F0BD0098A26847682168676085B9DF
:10529000B31AD0F800C0634528BF63461A4403FB25
:1052A00007112160A26002689A4206D80830009077
:1052B000E0E76B1AB3FBF7F3EBE70020E0E71346F8
:1052C0000022FFF7CBBF2DE9F047836886B05B690A
:1052D0008846914601A902AA98470024A24625467D
:1052E000029BAB4202D806B0BDE8F087019F07EBF6
:1052F000C50700267B6804933A68B2420AEB0603AE
:1053000002D801359A46EBE703940593494603A872
:10531000C0470028E7D0049B01361C44ECE710B5D9
:105320000C4600F0B7FE0023C4E90003184610BD88
:1053300038B505460C4600F0ADFE002D07DBA8424F
:1053400005D9401B84428CBF0020012038BD0020BD
:10535000FCE770B50D462846194616461C46FFF771
:10536000E7FF38B124B122462946304601F088FBD8
:10537000002070BD6FF01500FBE743685B68D3F851
:1053800010350B600020704743685B6802EA01003B
:1053900021EA0201C3F80805C3F80C150020704784
:1053A00043685B680020C3F80815704743685B6872
:1053B0000020C3F80C15704743685A68D2F80435CA
:1053C00021EA03000B40C2F80805C2F80C350020A2
:1053D000704710B503695868F8B1884219D19C68C4
:1053E00008685860A14200D19860002008602AB186
:1053F0005A680A609A68596002B99960002010E002
:10540000814206D10868206098688142EDD19C6095
:10541000EBE7044600680028F2D1002AE8D16FF0DB
:10542000150010BDFEF768BC30B543681360057AFF
:10543000446804EBC504A34202D36FF0010030BD01
:105440005C798C4201D00833F0E70020F7E7704721
:1054500043685B6B0020C2E9003070472DE9F341DF
:10546000BDF820C046680469032905460CF0010C0C
:105470005ED8B07D012808BF5B084FF0010008BF6F
:1054800052088840002B56D09A4257D9A769BA4291
:1054900011D0277F87434BD19646BEF5004F42D2AD
:1054A000A2616777226896F81680C2F80C75C2F878
:1054B0000485C2F808E5627F23FA02F292B24FF047
:1054C000010E6F688CF001083F6A42EAC83227F883
:1054D0001120C7B2BEF1000F3FD1226801F5AC71B7
:1054E00052F82120002A0FDBBCF1000F4AD0B3FA9A
:1054F00083F35B093BBB01A80192FDF707FD019A0D
:1055000001239340C0F80C35217F21EA0701217760
:1055100039B3A37F73BB1023012206F1200120467B
:1055200000F047FE22E00137082F4FEA5E0EB4D1AB
:105530006FF015001BE09E461A46C2E74FF0000EC2
:1055400047F6FF72BDE701A80192FDF7DFFC019A63
:1055500001239340C0F80835D6E7237F3B432377E8
:10556000D7E7286900F05DFE0123A377002002B091
:10557000BDE8F0810023A377204600F06CFE0028F0
:10558000FAD0C8E7003B18BF0123B3E710B50022EB
:10559000044601211C20FCF7D7FE2046BDE8104040
:1055A000FDF7C4BC10B50022044601212120FCF700
:1055B000CBFE2046BDE81040FDF7B8BC0020704788
:1055C00043685868704708B5436800215A681868EE
:1055D00001F07EFA002008BD10B50C461146426865
:1055E00010681A46204401F04BFA002010BD10B597
:1055F00004461046626814681A46214401F040FAD5
:10560000002010BD43681B68D3F88004C3F88004F1
:10561000704742681368D3F8100150B1D269002076
:1056200012780A70C3F81001D3F8102101221A6011
:1056300070474FF0FF307047002A0FDD4268136853
:10564000D3F8100158B10020C3F81001D269D3F883
:10565000100112780A70012018607047002070470E
:1056600010B543681C680369EFF31180202282F3B0
:105670001288BFF36F8F1A68D17B39B991731B6899
:105680000122DA734FF48003C4F8043380F31188E5
:10569000BFF36F8F10BD03691A68D17B21B101215F
:1056A00091731B680022DA73704702691168034620
:1056B000C87B40B15B681B68D3F8580118B1002360
:1056C0000B6113689889704743681B68D3F8100111
:1056D000003818BF0120704743681B68D3F80423C3
:1056E000D2065CBF1022C3F80423704743681B68CE
:1056F000D3F80423D20644BF1022C3F8082370470E
:1057000043681B684FF40072C3F804237047436872
:105710001B684FF40072C3F80823704738B543681C
:105720001D68D5F804335B02044605D4D5F804039C
:1057300010F0100006D138BDFFF7B7FF0028F5D0F4
:105740000120F8E72046FFF7BFFF003818BF01200F
:10575000F1E7012070470369186801601B685A600F
:10576000704702680346D2F8580140B95B68DB070E
:1057700006D4D2F82001003818BF0120704701205C
:10578000704713B501AA0446FFF74EFE002805DB5B
:10579000019B226819791868FDF7FCFA02B010BD68
:1057A000F8B50022054601210220FCF7CDFD0220BC
:1057B000FCF79AFD6C680121E068FFF7E2FF6B6877
:1057C0001A682369C2F82435617D237D0B43A17DCE
:1057D0000B43C2F86C356E68D6E9004313F0010341
:1057E00036D02F6904F10C0107F10C0204F590701A
:1057F00000F03AF900282ADB387BFEF78BF8082303
:10580000C4F80035B369C4F844350023C4F84835FA
:105810000123A360D4F85831002BFBD00021C4F839
:1058200000156D682C68E868FFF7ABFF0823C4F823
:1058300000352A7A52B9EB69C4F834350123C4F82B
:105840003835C4F81021D4F8102123600020F8BDA9
:105850000822C4F80025B269C4F84425C4F84835C4
:105860000123A360D4F82031002BFBD00023C4F81F
:105870002031D4F820310123E3604FF48073C4F861
:105880000433C7E72DE9F041066933689C89BFF30B
:105890005B8F94420546A8BF14461033012753E896
:1058A000002F002A03D143E800700028F7D1BFF38E
:1058B0005B8F0CBF3B4600232BD133682246986890
:1058C00001F0DEF8EFF31188202383F31288BFF391
:1058D0006F8F69680846FFF744FF326840B910616E
:1058E000044688F31188BFF36F8F2046BDE8F0812E
:1058F0000B689268C3F844250022C3F84845C3F8F2
:105900002021D3F82011C3F85821D3F858219F60E3
:10591000E7E71C46E9E700F150039B009BB203F167
:10592000804303F5883300221A601B687047806843
:10593000183820F0070010387047042809D00528CF
:1059400003D1481E18BF01207047431A58425841DE
:1059500070470120704738B515460C4661B15AB101
:10596000FFF72CFA2544214611F8013B834203D16D
:10597000A942F9D1012038BD0020FCE738B50C461A
:105980000123114622460546FFF7D2F900280FDB16
:10599000012221462846FFF7DEFF38B92378012B84
:1059A00014BF022301232370002038BD0323FAE72C
:1059B0000120FAE78268183A22F00702FFF7DEBFFB
:1059C00013B50C46C0B201A9FBF7D8FD50B921466A
:1059D0000198FDF7F3FD04460198FFF7A8F920466A
:1059E00002B010BD0124FAE703460020184700F07A
:1059F000E6BF10B502461168B1B1BFF35B8FB1FAD3
:105A000081F3C3F11F000123834021EA030352E81D
:105A1000004F8C4204D142E8003CBCF1000FF6D1AB
:105A2000BFF35B8FE7D110BD6FF00B00FBE710B544
:105A30000368CB40DB0714D401238B400268BFF31B
:105A40005B8F43EA020150E8004F944204D140E8E2
:105A5000001CBCF1000FF6D1BFF35B8FEED100202C
:105A600010BD6FF01500FBE770B50C460021054630
:105A700008461646FDF740FF00280ADB3378DB00B6
:105A800003F1804303F5F8330020C3F81055C3F841
:105A9000144570BD10B1012802D07047FEF718B848
:105AA000FDF7C8BF18B1012803D100F00AB800F013
:105AB00023B8704708B5FDF7D9FFBDE80840FEF7E9
:105AC00047B8FDF77DBF38B54FF080440223C4F8D6
