:101000008017012011C70100FDE70100FDC60100A6
:10101000FDC60100FDC60100FDC601000000000084
:1010200000000000000000000000000065C7010093
:10103000FDC601000000000089C70100FDC60100D7
:10104000B5F2000031A10100B5F20000B5F20000D8
:10105000B5F20000B5F20000B5F20000B5F20000F4
:10106000B5F20000B5F200007D530100B5F20000BA
:10107000B5F20000B5F20000B5F20000B5F20000D4
:10108000B5F20000B5F20000B5F20000B5F20000C4
:10109000D9A10100B5F20000B5F20000B5F20000E0
:1010A000B5F20000B5F20000B5F20000B5F20000A4
:1010B000B5F20000B5F20000B5F20000B5F2000094
:1010C000B5F20000B5F20000B5F20000B5F2000084
:1010D000B5F20000B5F20000B5F20000B5F2000074
:1010E000B5F20000B5F20000B5F20000B5F2000064
:1010F000B5F20000B5F20000B5F20000B5F2000054
:10110000014B1B685B68184700050020014B1B68FA
:101110009B68184700050020014B1B681B69184796
:1011200000050020014B1B685B6918470005002083
:10113000014B1B689B69184700050020014B1B6889
:10114000DB69184700050020014B1B681B6A184724
:1011500000050020014B1B689B6A18470005002012
:1011600030B4044C9DF8085024680295E468A44605
:1011700030BC604700050020B7170000BD17000015
:10118000BF170000E5170000C3170000EF170000AD
:10119000C9170000F9170000CF170000051800005C
:1011A000DB170000DF170000D1170000D717000081
:1011B000F5170000FF17000030B50346114890F9FD
:1011C0001C209A4219DD90F924209A4217DA9A1AC3
:1011D000846AA05C0C4A15569D420DD00E3200293F
:1011E00018BF01309442C0B206D129B1013BDBB235
:1011F000012B01D80130C0B230BD0D20FCE700202A
:10120000FAE700BFB80E00200C08020008B5054B35
:1012100093F91C30984203DAFFF7CEFF024B1B56BE
:10122000184608BDB80E00200C08020008B5184B7F
:1012300093F82C20FAB9012283F82C20154A126861
:10124000A2F10800082803D813490141C90709D5AC
:10125000911F092910D9013212D04FF4DF71742087
:1012600000F034F80D4A9A62D8221A6283F82420DA
:1012700008229A611A7708BD094A0A41D207ECD4BC
:10128000084A9A62D8221A6283F824200422F0E7DE
:10129000B80E002068100020DEFEFFFF47080200A5
:1012A000EEFCFFFF1A080200BFF34F8F0549064B03
:1012B000CA6802F4E0621343CB60BFF34F8F00BFF4
:1012C000FDE700BF00ED00E00400FA051FB572B6AF
:1012D000134B5D6895B9FFF7E7FF2346B2FBF6F2C3
:1012E0005C1C002AF9D104AEDCB256FA83F303F891
:1012F0000C2C0A2234B901A8A847ECE702460023C7
:101300000A26EDE7631E04AEDCB256FA83F3B0FBA7
:10131000F2F602FB1600303003F80C0C3046E9E719
:10132000301000204FF08052034BD2F8301119607A
:10133000D2F834215A6070476810002081F00041D3
:1013400002E000BF83F0004330B54FEA41044FEAAA
:10135000430594EA050F08BF90EA020F1FBF54EA45
:10136000000C55EA020C7FEA645C7FEA655C00F0E1
:10137000E2804FEA5454D4EB5555B8BF6D420CDDB2
:101380002C4480EA020281EA030382EA000083EA35
:10139000010180EA020281EA0303362D88BF30BDD5
:1013A00011F0004F4FEA01314FF4801C4CEA11312B
:1013B00002D0404261EB410113F0004F4FEA03338A
:1013C0004CEA133302D0524263EB430394EA050F15
:1013D00000F0A780A4F10104D5F1200E0DDB02FA84
:1013E0000EFC22FA05F2801841F1000103FA0EF218
:1013F000801843FA05F359410EE0A5F120050EF1DE
:10140000200E012A03FA0EFC28BF4CF0020C43FA0E
:1014100005F3C01851EBE37101F0004507D54FF01B
:10142000000EDCF1000C7EEB00006EEB0101B1F56B
:10143000801F1BD3B1F5001F0CD349085FEA3000B1
:101440004FEA3C0C04F101044FEA445212F5800FBC
:1014500080F09A80BCF1004F08BF5FEA500C50F159
:10146000000041EB045141EA050130BD5FEA4C0C3C
:10147000404141EB0101013C28BFB1F5801FE9D299
:1014800091F0000F04BF01460020B1FA81F308BFBC
:101490002033A3F10B03B3F120020CDA0C3208DD88
:1014A00002F1140CC2F10C0201FA0CF021FA02F163
:1014B0000CE002F11402D8BFC2F1200C01FA02F1D3
:1014C00020FA0CFCDCBF41EA0C019040E41AA2BFF8
:1014D00001EB0451294330BD6FEA04041F3C1CDAC0
:1014E0000C340EDC04F11404C4F1200220FA04F0E0
:1014F00001FA02F340EA030021FA04F345EA03018A
:1015000030BDC4F10C04C4F1200220FA02F001FA4B
:1015100004F340EA0300294630BD21FA04F02946CD
:1015200030BD94F0000F83F4801306BF81F4801166
:101530000134013D4EE77FEA645C18BF7FEA655CD9
:1015400029D094EA050F08BF90EA020F05D054EAAB
:10155000000C04BF1946104630BD91EA030F1EBFB0
:101560000021002030BD5FEA545C05D140004941B4
:1015700028BF41F0004130BD14F580043CBF01F5A7
:10158000801130BD01F0004545F0FE4141F470018D
:101590004FF0000030BD7FEA645C1ABF1946104668
:1015A0007FEA655C1CBF0B46024650EA013406BF69
:1015B00052EA033591EA030F41F4002130BD00BF28
:1015C00090F0000F04BF0021704730B54FF48064E5
:1015D00004F132044FF000054FF0000150E700BF66
:1015E00090F0000F04BF0021704730B54FF48064C5
:1015F00004F1320410F0004548BF40424FF00001B2
:101600003EE700BF42004FEAE2014FEA31014FEAF4
:1016100002701FBF12F07F4393F07F4F81F0605143
:10162000704732F07F4208BF704793F07F4F04BF8E
:1016300041F40021704730B54FF4607401F000456B
:1016400021F000411CE700BF50EA010208BF7047CB
:1016500030B54FF000050AE050EA010208BF7047BC
:1016600030B511F0004502D5404261EB41014FF425
:10167000806404F132045FEA915C3FF4D8AE4FF02D
:1016800003025FEADC0C18BF03325FEADC0C18BF10
:10169000033202EBDC02C2F1200300FA03FC20FA61
:1016A00002F001FA03FE40EA0E0021FA02F11444AE
:1016B000BDE600BF53B94AB9002908BF00281CBFC6
:1016C0004FF0FF314FF0FF3000F00CB8ADF1080CD7
:1016D0006DE904CE00F0A9F8DDF804E0DDE90223AD
:1016E00004B07047704700BF7BB972B90029BEBF14
:1016F00000204FF0004106E008BF00281CBF6FF03B
:1017000000414FF0FF30FFF7EDBFADF1080C6DE980
:1017100004CE002909DB002B1ADB00F086F8DDF887
:1017200004E0DDE9022304B07047404261EB41016F
:10173000002B1BDB00F079F8DDF804E0DDE9022383
:1017400004B0404261EB4101524263EB43037047F6
:10175000524263EB430300F068F8DDF804E0DDE992
:10176000022304B0404261EB41017047524263EBF7
:10177000430300F05AF8DDF804E0DDE9022304B089
:10178000524263EB4303704708B5FFF7CBFDBDE85A
:101790000840FFF74BBD801A00F3070038B540B290
:1017A0000D4659B21446FFF731FD002328706B70C7
:1017B000204440B238BD00230360704770470020CA
:1017C00070474FF0FF3070474FF0FF307047704761
:1017D0004FF0FF3070470020704700207047002313
:1017E000037070479DF800300022FFF7D4BF4FF020
:1017F000FF307047002070474FF0FF3070474FF0C8
:10180000FF307047704710F8012B11F8013B012A97
:1018100028BF9A42F7D0D01A7047034613F8012B1D
:10182000002AFBD1181A013870472DE9F0478C4681
:101830008E46089E154604461946002B40F0D0807F
:10184000724547D9B2FA82F74FB1C7F120030EFAB9
:1018500007FC20FA03F3BD4043EA0C0CBC404FEAFE
:10186000154EA8B2BCFBFEF8230C0EFB18CC08FBEF
:1018700000F943EA0C43994528D9EB1808F1FF32E7
:1018800004D2994502D9A8F102022B44A3EB090323
:10189000A4B2B3FBFEFC0EFB1C330CFB00F044EACD
:1018A0000344A04214D92C190CF1FF3304D2A042F6
:1018B00002D9ACF102032C44241A43EA02401EB1BF
:1018C000FC40002334607360BDE8F0874246DDE7EA
:1018D0006346F1E7002A79D0B2FA82F3002B3FD0B9
:1018E0001946C1F1200302FA01F52EFA03F20EFAAD
:1018F00001FE20FA03F343EA0E034FEA154E00FA05
:1019000001F4B2FBFEFCAFB20EFB1C201A0C0CFB68
:1019100007F842EA004290455AD9AA180CF1FF3064
:1019200004D2904502D9ACF102002A44A2EB08028D
:101930009BB2B2FBFEFC0EFB1C220CFB07F743EA3A
:1019400002439F4246D9EB180CF1FF3204D29F426A
:1019500002D9ACF102022B44DB1B42EA004202E056
:10196000AEEB020301224FEA154EAFB2B3FBFEFC11
:10197000200C0EFB1C330CFB07F840EA0343984590
:101980002AD9EB180CF1FF3004D2984502D9ACF1FA
:1019900002002B44A3EB0803A4B2B3FBFEFC0EFB36
:1019A0001C330CFB07F744EA0344A74216D92C1951
:1019B0000CF1FF3304D2A74202D9ACF102032C444C
:1019C000E41B43EA00400F46114678E71F2188E7F1
:1019D0006046ABE76246BFE76046DBE76346EFE79A
:1019E000734506D916B9002108466DE7C6E9000E11
:1019F000F9E7B3FA83F787B9734501D3824207D871
:101A0000841A6EEB030301209C461EB900215BE79C
:101A10003846FAE7C6E9004CF8E7C7F1200CBB40AE
:101A200022FA0CF51D4320FA0CF12EFA0CF30EFAF3
:101A300007FE41EA0E014FEA154900FA07F4B3FB2D
:101A4000F9F81FFA85FE09FB18300B0C08FB0EFA9B
:101A500043EA00439A4502FA07F240D9EB1808F12D
:101A6000FF3004D29A4502D9A8F102002B44A3EB1F
:101A70000A0389B2B3FBF9F809FB183308FB0EFE21
:101A800041EA03418E452CD9691808F1FF3304D28D
:101A90008E4502D9A8F10203294443EA0040A0FB85
:101AA0000298A1EB0E014145CE46434602D306D132
:101AB0004C4504D2B9EB020E68EB05030138002E49
:101AC000A4D0B4EB0E0261EB030101FA0CFC22FA84
:101AD00007F34CEA0303F940C6E9003196E74046B4
:101AE000C5E74346D9E7430803F05533C01A00F071
:101AF0003333800800F03330184400EB10104FF0FF
:101B0000013300F00F305843000E70470000000012
:101B10002DE9F843524B1B5C05460C4613B1514B63
:101B200053F82040504B53F825301F0EFF2FC3F3BE
:101B300007466ED0002E6CD013F47F4FC3F30728F6
:101B400067D04A4B5B5D08FB06F6002B6AD0484B1A
:101B500053F82590B9F1000F15D0464B53F82500E6
:101B600088B1454B5B5D73B1201AB0F5A02F52D8F8
:101B7000424B53F8251038A3D3E9002381FB000121
:101B8000FFF7B2FD8144A4EB09044FEA5800B4FB0F
:101B9000F6F317FB080706FB1344E11BB1EB560FE6
:101BA0004FEA560340DD891B354A28246C4313193C
:101BB0009E695F6806F1010C1659C3F818C07618C3
:101BC0001651D3E9024647EBE177C1FB0146BCF170
:101BD000010FC3E902465F602BD119610C4628232F
:101BE00003FB052393F824605C610C025EBB1C625E
:101BF000012483F82440282303FB0522136AA1EB68
:101C000023210029B8BF49428842BEBFD3690133AE
:101C1000D361BDE8F8831B4A52F82530013342F8FE
:101C20002530B0E79946AEE75B429942B8BF8919C3
:101C3000BAE71C698C42D4BF1C6119615C698C4293
:101C4000B8BF0C46CBE71E6AA41B043406EBE406BF
:101C50001E62D0E7AFF3008000CA9A3B000000008C
:101C600070D2002080990020849A0020CDD20020DC
:101C70004C9B00208C9B0020BDD200203C98002073
:101C8000E0580020CC9A00202DE9F04F2C4B89B071
:101C900053F820300393CDE904122A4806AA002104
:101CA0001DF064FD002842DBDDE9064A264BDFF823
:101CB0009C80A4FB03B503FB0A5529461EA3D3E968
:101CC00000235846FFF7F6FC4FF0FF39D94578EB73
:101CD00005054FF00007064629D3049B059A039992
:101CE00022EAE27223EAE37313FB02F342F2107278
:101CF000B3FBF2F34B4393FBF2F364225343A3FB96
:101D0000045403FB0A4421460BA3D3E900232846CD
:101D1000FFF7D0FCA94578EB0404034607D38642BD
:101D200005D3084800973246394615F083F909B0C3
:101D3000BDE8F08FAFF3008000CA9A3B00000000BE
:101D4000300F02007C03020040420F00FFC99A3BA3
:101D5000F0B585B01CF048FA1D4AA0FB020302FB57
:101D60000131C00B40EA41401A4A1423C90BFFF766
:101D7000BBFC04461946104613A3D3E90023FFF722
:101D8000B3FC0546194610460023134AFFF7ACFC86
:101D900006461946104600230D4AFFF7A5FC0746E4
:101DA0001946104600234FF47A72FFF79DFC009706
:101DB000CDE90102334609482A4621461CF0FEFBC4
:101DC000002005B0F0BD00BF00A493D600000000C5
:101DD00040420F000060D71D008793032D6302006F
:101DE0002DE9F04F9FB0834604AF0D46002900F067
:101DF000AF80067806F11003DBB2072B00F2BC8639
:101E0000012900F0A5804478FE2C40F0B483BD4B3E
:101E10001A68B2B9BC4818601CF078FA044680B958
:101E200006200CF079FB30B1B84B436102230374F8
:101E300044748474C4744FF48252B54919F0B0FAF2
:101E400086E0B4481CF097F950B1F22E00F084807F
:101E5000F72E00F06083F02E11D009F0C7FF77E075
:101E6000A6F1F003072B00F27683DFE813F00800F9
:101E70007403750000027403B4022A03540306209D
:101E80000CF04AFB38B1A44B4361022303740023D6
:101E900043748374C3749E494FF4865219F080FAD8
:101EA0003F22002107F127001DF0F4FE4FF62263C8
:101EB000BB849A4BBB62712387F82C30984B87F810
:101EC0002D30C3F307221B0C0124964987F82E20DE
:101ED00087F82F302F221B0A07F1240607F1330061
:101EE00087F8264087F8303087F8314087F832404D
:101EF0001EF092F941223146002087F864400FF02D
:101F000091FB022487F8650000251022002107F1CB
:101F100014001DF0BFFE4FF6F163412CBB82BD756E
:101F200009D8C4F142020D2A28BF0D22311907F148
:101F300017001EF053F9002107F1140009F004FF07
:101F40000135022003F046F8062D04F10D04DCD122
:101F50006C37BD46BDE8F08F3F2D0FD808200CF040
:101F6000DBFA40B1704BC0E905350323037400234D
:101F700043748374C3744FF4C2525EE76B4C23788E
:101F8000D3B1053B012B17D962481CF0F4F8054684
:101F900090B9082024780CF0BFFA38B1644B45742E
:101FA000C0E90534032303748574C5744FF4C45227
:101FB000574919F0F5F950E70BF054FA00287FF46F
:101FC0004CAF0BF102001CF0BFF906460BF1060006
:101FD0001CF0BAF9BBF80AA09BF80C90F8609AFACA
:101FE0009AF307F1240A3B810BF10D029BB255468F
:101FF0000BF1350810685168AE46AEE803000832B0
:1020000042457546F6D11068CEF800009188927965
:102010008EF80620AEF80410BBF83D8098FA98F8C8
:102020000025EB461FFA88F88EB087F853504FEA28
:10203000083804AA3F49C2F82C80C2E90516F9689D
:102040003348C2E9071340F2046111863A49C2E9F4
:10205000099A42F8101F44F2C04119F053FDB9F13A
:10206000010FDD4615D008200CF056FA38B1334B7D
:102070004574C0E90539032303748574C574244984
:102080004FF4C25219F08CF90623237010232375E4
:10209000E3E6721EB2F5D92F17D308200CF03CFAF4
:1020A00050B1274BC0E905364FF4D923C36104234F
:1020B000037445748574C57415494FF4015219F0C1
:1020C0006FF9062323701323E1E716495046FFF703
:1020D0009AFB1449054600283AD08AB004AA194848
:1020E000194B1362194BD161C2E9050A4FF4215112
:1020F00042F8103F064819F005FD0623DD4623701F
:102100001123C4E7D4C80020B4030200A66402006F
:102110001C070200D0C80020C6640200010D4175F2
:102120007C8C0200E7640200FD6402004064002031
:10213000236502005C65020008000001AC65020036
:10214000D5650200FD6502000002010304000002E3
:10215000B8F5805F0AD908200CF0DEF90028ABD072
:10216000AA4BC0E905384FF480539FE7A84A06F60A
:10217000FF73B24238BF32464FEA133BCBF1DA016C
:1021800002F58052B2EB013F4FEA01380AD908202C
:102190000CF0C2F900288FD09E4BC0F81C80C0E91B
:1021A000053684E7014641F238029B481DF072FD76
:1021B0009A48FB68A360C0F824803B8966604FF4AE
:1021C0008052FF21A0F57E60A381C4F81880E261EF
:1021D00084F800901DF05EFD08200CF09DF948B1D8
:1021E0008F4AC0F81CB0C0E9052804230374457465
:1021F0008574C5748B4D8C494FF4035219F0D0F897
:102200008A4B2C7800221A703CB1894989484FF4D6
:102210004C721CF0E0F91DF026FD87481CF0ECF82C
:1022200086481CF0E9F8864801F04EFF854807F023
:1022300021FF844807F0B0FE834807F01BFF824867
:1022400007F0AAFE01232B7000220023CDE9022310
:102250000923CDE900437D497D4B7E484FF48052F0
:1022600017F0EEFF7C497B4807F0BCFBF5E56A4CB4
:102270002378013B012B3FF66BAE6F481BF07BFFD1
:10228000814618B106232370122300E7032D7FF641
:102290005FAEBBF80260636876BAB6B23C227243A6
:1022A0009A4211D308200CF037F950B16B4B80F8EB
:1022B0001190C0E905360323037480F8129080F86A
:1022C00013904FF4C452B8E5B4F80E80B0451AD05C
:1022D0003FF63EAE08200CF01FF958B1604BC661C6
:1022E000C0E905380423037480F8119080F8129037
:1022F00080F813904FF402524B4919F051F806231D
:1023000023701423C3E6043D3C2D28BF3C259B1AB3
:1023100026699D424FF0020A28BF1D4684F800A09E
:102320000BF1040B002E52D1032D51D958461CF04D
:102330000BF84C4B98424BD106200CF0EDF830B125
:10234000494B436180F810A046748674C6743649C0
:102350004FF4825219F024F806232370042396E6E2
:10236000B9F82000AB1BC0F5805A9A4528BF9A46A1
:1023700020300BEB0601524620441DF02FFFB9F828
:10238000203053449BB2B3F5805FA9F82030564407
:1023900004D309F0B3FB00287FF474AFB542DFD853
:1023A000236908F101082B442361A4F80E801BF077
:1023B0001DFF41F230032D4AE3585268C01A61EB09
:1023C0000201142871F10001FFF6C2AD45E5064691
:1023D000DFF84890E2E7104C2378013B012B3FF6F1
:1023E0003CAD26696568AE4244D008200CF094F8F4
:1023F00048B11F4BC561C0E90536042303740023AF
:1024000043748374C3744FF4015275E72F6602005E
:102410007C8C020090660200406400204074002022
:10242000D36602001ED300201C0702001FD3002029
:10243000F9660200AB150200CCC80020D0C800200D
:10244000B40C00203C0D00204C0D002000F80020B2
:1024500085CF000058630020216702002C6702002E
:102460004D6702003DB8F396746702007074002057
:10247000B067020006200CF04FF838B15D4B4361A5
:1024800002230374002343748374C3745A494FF4C2
:10249000865218F085FF03232370584B1B8C23B101
:1024A00009F02CFB00287FF4EDAEFD2387F82430E3
:1024B0004FF42032002307F12401514801F0A4FC1D
:1024C00046E5504C237D032B4FF006000DD00CF059
:1024D00023F838B14C4B4361022303740023437447
:1024E0008374C3744FF4825262E50CF015F838B16E
:1024F000464B436102230374002343748374C37403
:102500003D494FF4845218F04BFF0423237009F027
:102510006DFCFE23CAE706200BF0FEFF38B13C4BF2
:10252000436102230374002343748374C3743249E8
:102530004FF4865218F034FF0AF094FF0446002846
:102540007FF48BAC014641F238022E481DF0A2FB0D
:10255000304B1C70FCE408200BF0DEFF00283FF439
:10256000B0AE2D4BC0E9053603230374002343743A
:102570008374C374A5E6F03E072E3FF6E9AC01A3D1
:1025800053F826F0A5250000511F0000EB250000A0
:102590000B290000511F00001B2A0000CD2A00005B
:1025A000312B00000F2C4FF0080008D90BF0B4FFBE
:1025B000002800F07D81194BC0E90534DEE10BF005
:1025C000ABFF40B1164BC0E905340323037400236D
:1025D00043748374C37413494FF4C65218F0E0FE79
:1025E0003021204600F00AFFB2E40F2C1CD908204D
:1025F000DCE700BFD86702001C070200407400201F
:10260000B40C002040640020F26702001D68020044
:10261000396802001FD30020526802007668020069
:10262000916802007C060200C34E582303FB04633A
:1026300042F298029B5C03F0FF08002B00F024811B
:1026400008200BF069FF40B1BC4BC0E905340323FF
:102650000374002343748374C374B9494FF4C452A0
:1026600018F09EFE582303FB046342F29A010022F5
:102670005A5242F29C0100205A5442F2E4015A504C
:1026800003F503530021C3E90A01EFF3118140224E
:1026900082F31288BFF36F8FAA48002340F82430DA
:1026A000A9480355EFF3118082F31288BFF36F8FAF
:1026B000A64A12F804C0BCF1310F08BF135580F3CD
:1026C0001188BFF36F8F81F31188BFF36F8F0BF108
:1026D00002001BF039FE80460BF106001BF034FEB1
:1026E000BBF80AA09AFA9AFA1FFA8AF3FB609BF8E1
:1026F0000C30BB600BF10D037B60337881462BB946
:1027000001F076F8C6F80880A6F80CA07378EA46BF
:102710008EB0013304AAD3610423C2E908380BF157
:102720000D03D3628A49C2F8289040F205731386DC
:10273000884B8348C2E9051442F8103F44F2C04177
:1027400019F0E0F9582303FB046342F29802D546DE
:102750009B5C33B97378032B9FBF5A1C9B19727013
:102760009C70582303FB046342F2980242F29900E2
:102770000121995400221A5442F29A009FED6C7B79
:102780001A5242F29C001A5442F2E0001A5042F2ED
:10279000E4001A50327803F5035383ED0A7B02F00C
:1027A000FF03002A00F0878000233B66232387F87D
:1027B0002430FB68A7F826801B0A4FEA1848A7F8C0
:1027C0002A9087F82E304FEA1949FB6887F828804D
:1027D00087F82C9087F82F307968BB6887F82540F8
:1027E0004FEA18284FEA19292F2207F1310087F8FC
:1027F000298087F82D9087F830301DF00DFD3E2D93
:102800007AD83F2207F1240100200EF00BFF582355
:1028100003FB046303F5025387F8630007F1240206
:102820001D3307F1640C154603CD654518605960EA
:102830002A4603F10803F6D1582303FB046442F24D
:10284000DD034022E2541BF0CFFC42F2E0030025FE
:10285000E05042F2E403E550BFF35F8F42F29C0385
:1028600023220820E25474780BF056FE38B13A4B1C
:102870004574C0E90534032303748574C5744FF4AB
:10288000C6522F49FFF7DABA7378032B7FF6FDAEF5
:1028900008200BF041FE58B1304B436104238361A3
:1028A0000323037480F8118080F8128080F813806D
:1028B0004FF4C252E5E731709A46294B19785FFA16
:1028C0008AF291427FF670AFBAF1100F3FF46CAF0D
:1028D000582303FB0A6142F29803C95C49B91046C8
:1028E0003A6000F0B9FF3A6818B93221104600F09A
:1028F00085FD0AF1010AE0E79BF83D3087F8613079
:102900009BF83E3087F862307BE70B4E337803F05C
:10291000FF044BBB06200BF0FFFD30B1114B4361B0
:102920000223037444748474C4744FF48452A8E77B
:102930000000000000000000A8320020BC68020077
:102940007C0602008C940020F6D00020DDD200200E
:1029500017690200080000015F690200F0680200C8
:10296000EED200208569020004290ED808200BF061
:10297000D3FD00289CD0894BC0E90535032303749F
:10298000002343748374C37492E700F00BFFBBF819
:1029900002407F2864BAA4B20FD908200BF0BCFD16
:1029A00040B17F4BC0E90534032303740023437413
:1029B0008374C3744FF4C45263E704F07F0000EBE8
:1029C000801006EB0008202388F80E30002388F8DA
:1029D0000F30043D9BF8023088F810303C2D28BFA2
:1029E0003C2512309BF8033088F811302A460BF151
:1029F0000401304404351DF0F1FB88F84E50BFF35C
:102A00005F8F06F500560134D6F890309C427FF671
:102A10009FAAC6F89040FFF79BBA624D2B7803F04F
:102A2000FF066BB906200BF077FD00283FF47DAF61
:102A30005D4B43610223037446748674C67474E765
:102A40000F2C4FF0080006D8582303FB045342F222
:102A500098029B5C33B90BF05FFD00283FF428AF70
:102A6000524BA9E50BF058FD40B1514BC0E905347C
:102A700003230374002343748374C3744D494FF4D8
:102A8000C65218F08DFC24264FF00008582387F812
:102A9000254087F82460A7F826805C43464B7A6A75
:102AA0001A512C4442F2DD030422E2541BF09CFB39
:102AB00042F2E003E05042F2E40344F80380BFF343
:102AC0005F8F42F29C03E654FFF742BA354D2B78F4
:102AD00003F0FF063BB906200BF01EFD00283FF473
:102AE00024AF364BA5E70F2C4FF0080006D858232B
:102AF00003FB045342F298029B5C33B90BF00CFDCC
:102B000000283FF4D5AE2E4B56E50BF005FD40B145
:102B10002C4BC0E9053403230374002343748374EE
:102B2000C37424494FF4C65218F03AFC2526ABE78B
:102B300008200BF0F1FC40B1234BC0E9053403231E
:102B40000374002343748374C3741A494FF4C4524A
:102B500018F026FCFF2C07D101F0E6F800F048FE43
:102B600001F052F8FFF7F4B90F2C3FF6F1A9204617
:102B700001F0A8F8FFF7ECB9FE2E7FF4E9A90329CC
:102B80007FF6E6A907F1240309F0D0FD002107F143
:102B9000240009F0D9F8FFF7DBB900BFAE690200E5
:102BA000D0690200A8320020FE6902002A6A0200F1
:102BB000576A02007C06020045530020816A020029
:102BC000AF6A0200DE6A02000A6B0200064A0023B6
:102BD0001370064A1370064A1370064A1360064AB9
:102BE0001360064A13707047F2D20020F1D2002021
:102BF000F0D20020B49C0020B09C0020EFD2002036
:102C0000A0B10C4B1B78002B08BF102343434FF49B
:102C10000040B0FBF3F00A23B0FBF3F000EB8000C0
:102C2000400080B2012838BF012070474FF47A700D
:102C3000704700BFEDD20020034B188880B210B15E
:102C4000024B188880B27047AECE0020ACCE002078
:102C500070B50B4B02461C780A4B0020844201DD04
:102C6000102802D14FF0FF3070BDD3E900658D42CE
:102C700008BF964203F10803F6D00130EEE700BF2B
:102C8000EED20020E05F002010B5084BB3F8981298
:102C9000B3F89A424A1CC2F3080294421EBFC918F4
:102CA000A3F8982281F8980010BD00BFD0940020AE
:102CB00010B5064CE18911B144201BF00CFA238AAF
:102CC000E289134423820023E38110BDD0940020C5
:102CD00010B5064C218A11B143201BF0FCF9E389A1
:102CE000228A1344E3810023238210BDD094002064
:102CF00038B5434C637A7BB1A189012938BF0121E2
:102D000048280BD842280BD94338052808D8DFE8D3
:102D100000F01808072907250121F1E77E2825D0B2
:102D200038BDE389994228BF19465B1AE381238A9B
:102D30000B4423820029F3D04420BDE838401BF027
:102D4000CAB9238AE289994228BF19460A445B1A04
:102D5000E28123820029E3D04320EEE7BDE838403A
:102D6000FFF7A6BFBDE83840FFF7B2BFA389013B1C
:102D7000072BD5D801A252F823F000BF5D2D00002B
:102D8000212D00009D2D0000652D0000212D00004B
:102D9000212D00005D2D0000652D0000228A002AF3
:102DA000BED0E389D11889B2581C88420FD3013AAA
:102DB0000121432022821BF08EF90820FFF764FFD7
:102DC000238A53B90F48BDE838401BF07BB925185A
:102DD00023442D7E1D7683B2E6E70B481BF072F983
:102DE000E589E389228A13449D4201DB0748EAE72B
:102DF00063190135187EFFF747FFADB2F1E700BF59
:102E0000D0940020D6120200D9120200DD12020076
:102E100008B54FF42072002113481CF03BFF10222C
:102E2000002112481CF036FF1022002110481CF02F
:102E300031FF402200210F481CF02CFF40220021CE
:102E40000D481CF027FF102200210C481CF022FF27
:102E5000402200210A481CF01DFFBDE80840094837
:102E6000402200211CF016BFE0580020CDD20020E7
:102E7000BDD200208C9B00204C9B0020ADD20020B6
:102E80000C9B0020CC9A002008B5074B1B784BB157
:102E900009F06EFB30B1054B1B781BB1BDE8084053
:102EA0000AF082B908BD00BFF4D00020F5D00020A0
:102EB00070B50B4D0B4E0446002321FA03F0C007FA
:102EC00009D5E85C38B906EB83001BF054F9101AF9
:102ED0000028A8BFEC540133102BEED170BD00BF09
:102EE000DDD20020CC9B002008B5002105481BF056
:102EF00048F905481BF045F9BDE8084003481BF0B8
:102F000040B900BF149C0020109C00200C9C0020A5
:102F100038B515460C4A135C1F3B012B4FF00101DD
:102F200098BF002301FA00F198BF13540446C94327
:102F300006481BF041F9064805F2DC5100EB84001D
:102F4000BDE838401BF01DB9DDD20020109C0020E8
:102F5000CC9B002038B50E4B1B78834204460D46AF
:102F600015D91BF051F9411C0A4800EB84001BF0F5
:102F700008F9012303FA04F13DB907481BF00DF9E4
:102F8000BDE8384005481BF008B90548F6E738BDEC
:102F9000EED20020709C00206C9C0020649C0020DD
:102FA000689C00202DE9F84304460D461BF01EF9ED
:102FB0000A465B4901EB841303F1300ED3F83080ED
:102FC000DEF8046058EA060984464FEA841727D1E0
:102FD00000261863DE62CEF80420CB19DFF84CC15E
:102FE000DE6ADFF84CE1C3E908021CF80420013670
:102FF000DE6232BBC8590EF804500130C8510120BE
:103000000CF804005868DD610130586083F828200E
:103010009B8F0F4401339BB2BB870020BDE8F88330
:10302000BCEB080C62EB0606BCF57A7F76F1000675
:10303000D3D3DE6A9E630026C3E90B60CEF804207A
:10304000CBE71EF8048008F10100C0B2A8420CD101
:103050000132C8590CF804205A680EF804500130A7
:103060000132C8515A60DD61D2E7A5EB0806A8EB32
:10307000050016F0FF06C0B204D11A6901321A61C8
:103080000420CBE701383E2804D8DA680132DA6040
:103090000220C3E7C859B3F83C900132502E00F12A
:1030A0000100D2B223D9C85159690EF80450013138
:1030B00009F101090A200CF804205961DD61A3F827
:1030C0003C900BF029FA58B1164B4662C0E9053422
:1030D000C0E9078506230374002343748374C37413
:1030E00011494FF4425218F05BF9032096E7C8519A
:1030F00099680EF804500131996099690CF8042020
:10310000013E51FA86F19961D98FDD6109F101091A
:1031100051FA86F6A3F83C90DE8701207EE700BFD7
:10312000E05B0020E21202006C0602009DD200204B
:103130008DD2002038B5831E4E2B044614D90820AA
:103140000BF0EAF958B1154BC0E9053404F51663E4
:10315000C36104230374002343748374C37410494C
:103160004FF4025218F01CF920461BF0B5F8054642
:1031700090B908200BF0D0F938B10A4B4574C0E97A
:103180000534032303748574C574BDE838400449CD
:103190004FF4C45218F004B938BD00BF291302001F
:1031A0006C060200831302000F2870B5054624D870
:1031B000860001241148AC40E443002100EB850067
:1031C0001AF0DFFF21460E481AF0F6FF0D481AF0FC
:1031D000F3FF0D481AF0F0FF0C48002130441AF0BC
:1031E000D0FF21460A481AF0E7FF0A481AF0E4FF28
:1031F000BDE8704008481AF0DFBF70BD709C002029
:103200006C9C0020689C0020649C0020249C002072
:10321000209C00201C9C0020189C002070B51D4B99
:103220001B788342044601D8002070BD1A4B03EB83
:10323000C00253F83030526813434FEAC005F3D050
:103240001AF0D4FF154A164E02EB84120346D2E957
:103250000802354456F834406D6850EA020608D03A
:10326000181A40F6AC5661EB0202B04272F100024D
:103270000EDB54EA0502D7D01B1B41F2883261EB0A
:103280000501934271F10001B4BF01200020CCE799
:103290000220CAE7EED20020E05F0020E05B0020C1
:1032A000605B002030B585B00025012322480195E0
:1032B0006946039502930AF0CFFF041E13DA082033
:1032C0000BF02AF938B11D4B4574C0E905340323CE
:1032D00003748574C5741A494FF4C25218F060F82B
:1032E000204605B030BD42F21174029D15F0030571
:1032F00017D0013CF9D108200BF00EF948B1114B61
:1033000043616FF00A03836103230374447484747C
:10331000C4740B494FF4C45218F042F86FF00A0419
:10332000DEE7039C002CDBD008200BF0F5F800282A
:10333000D1D0054BC8E700BFE4980020E513020098
:103340006C0602001D140200FE13020070B5264A2E
:10335000264B126886B01A60254B93E803004FF0A5
:1033600080530090ADF804100C461022002102A8F2
:1033700093F8A9501CF08EFC02ABE4B26E461846DE
:10338000002116F8012B00F8012B013122440429F9
:10339000C270F6D10DF10F010022A8180132082ADF
:1033A00001F8010FF9D1102113F8012B1AB1552A98
:1033B00001D0AA2A02D1083203F8012C0139F3D135
:1033C0000C4B039A1A600C4A1346FE2103F8011BAA
:1033D000DDF81110C2F80110BDF815209A809DF893
:1033E00017209A7106B070BD46140200FBD1002070
:1033F000A4000010F7D10020EFD1002098B52229B9
:1034000000AF08D1144A00231370144A1370144AF1
:103410001360144A1360144B00221A54134B3629BC
:10342000195496BF124B134B53F821308AB06A4699
:10343000114CCDE905434FF40073ADF824300F4B28
:10344000CDE9071042F8103F0D484FF4335118F002
:1034500059FBBD4698BD00BFECD10020EBD1002048
:10346000DC980020D898002000D20020DDD2002077
:10347000E00B02004B14020053140200050000018F
:103480006C0602002DE9F8430025DFF890801C4F00
:103490001C4EDFF88C902C4609EB85104022002151
:1034A00001351CF0F7FB102D08F8014B07F8014B14
:1034B00006F8014BF0D1FFF7ABFCFFF787FB0021CB
:1034C000402211481CF0E6FB402200210F481CF06E
:1034D000E1FB0F48402200211CF0DCFB06200BF032
:1034E0001BF830B10B4B43610223037444748474A2
:1034F000C474BDE8F84308494FF4865217F050BF32
:10350000CBD10020BBD10020449A0020049A002097
:10351000C4990020841402006C060200DBD1002054
:10352000E05B0020054B1A7882F001021A70044A11
:1035300000200021C2E90001187870478CD20020D9
:10354000D058002010B5044608200AF0E5FF40B12D
:10355000074BC0E9053403230374002343748374C9
:10356000C374BDE8104003494FF4C45217F018BFAC
:10357000AA1402006C060200DFED2A7A20EE277AF8
:1035800038B5BDEEC77A054617EE103A20EEA77A99
:10359000062225486A43BDEEC77A61EE277A1BB240
:1035A0002DED048B835217EE103A8118FDEEE77A69
:1035B0001BB24B8017EE903A1BB28B801B4B0C2238
:1035C0000E205A55B0EE409AF0EE608AB0EE418A75
:1035D0000AF0A2FF0446D0B1154BC0E9053519EE3B
:1035E000100AFEF70FF8C4E9080118EE900AFEF77A
:1035F00009F8C4E90A0118EE100AFEF703F80A23D5
:10360000C4E90C01237400236374A374E374BDEC58
:10361000048B20460749BDE8384045F2C00217F048
:10362000BFBE00BF0000C842ECCD0020DDD20020AC
:10363000D91402006C06020070B504460D46EFF383
:103640001186402383F31288BFF36F8F12481AF05C
:1036500085FDFFF749FC114B23F81450104B1F2236
:103660001A5586F31188BFF36F8F08200AF054FFB4
:1036700048B10C4BC461C0E9053504230374002331
:1036800043748374C37408494FF4035217F088FEDF
:103690000120A04070BD00BFE09800208CCE00202B
:1036A000DDD200200A1502006C06020070B5044647
:1036B000EFF31186402383F31288BFF36F8F124814
:1036C0001AF04CFDFFF710FC104B002523F81450A6
:1036D0000F4B20221A5586F31188BFF36F8F0820F5
:1036E0000AF01AFF38B10B4B4574C0E905340323C7
:1036F00003748574C57408494FF4C65217F050FE20
:103700000120A04070BD00BFE09800208CCE0020BA
:10371000DDD200203D1502006C060200044B054A74
:103720001B68B3FBF2F35843034B43F00103184704
:10373000E406002040420F0080080200034B0022F4
:10374000DA801A819A72DA601A827047D094002067
:1037500013B54FF4805405480DF107011BF04FF9E4
:1037600008B9013CF7D102B010BD00BF60030200F0
:103770000A4908B500204871FFF7E0FF0B79C1F84E
:1037800098024BB106481AF0D0FD05481AF0D7FD53
:10379000BDE80840FFF7DCBF08BD00BFD0940020A3
:1037A00060030200F0B5114D05F500532A46D3F829
:1037B000900012F8016FD3F890300024582742F29D
:1037C0009A0CE1B28E4201D8C01AF0BD12F8011F66
:1037D00007FB0151013431F80C1089B2A1EB030E43
:1037E00033EA2E0328BF0B46EBE700BFA8320020C8
:1037F000184800F5005200232DE9F04F19460370D8
:103800004370C2F8903002F1E8044FF0580B42F2D6
:10381000980A42F2990942F29A0842F29C0E42F248
:10382000E00C42F2E405002600270BFB0302013303
:10383000102B02F80A1002F8091022F8081002F8FA
:103840000E1042F80C105151E4E81667EDD1BDE8B6
:10385000F08F00BFA83200202DE9F0410546EFF3BC
:103860001188402383F31288BFF36F8F0A4F0B4BED
:103870003C5C53F82060E4B21AF0B6FC24B1361A6E
:10388000002E02DC00237B55002488F31188BFF34F
:103890006F8F2046BDE8F081F6D000208C94002088
:1038A0002DE9F04F85B0DDE90E791C4600233B7011
:1038B00006460D4689F800309046002A40F0AB805D
:1038C000082940F0A580811C062207200DF0AAFEE1
:1038D0003378002818BF0546AB4208D130687368BA
:1038E000000C40EA0340190C50EA134305D10123B0
:1038F00089F8003005B0BDE8F08F7678FFF7A8F9B9
:10390000AB4B1B780BB9411CF1D0AA4B1B780BB108
:10391000421CECD0002EEDD0012E11D1431CE6D07C
:1039200000236370E370A44B6571082222701A684B
:103930009B88A071C4F80720A4F80B303E70D9E72B
:10394000022ED4D10130D5D1D1E73226CFE0242EBA
:103950000DD19A4A9A4932F81520495D2172C2F375
:1039600007216172A272E3726373A373EFE04FEAFF
:103970001B6222724FEA1B4262720A2E4FEA1B221E
:10398000A27284F80BB007D18E4B1B681A0E6273BB
:103990001A0CA2731A0A19E01F2E0AD18A4931F8AB
:1039A0001520C2F30722627331F81520A273E37366
:1039B000CFE0362E0CD1854B5B5D6373844B5B5D32
:1039C000A373844B33F81530C3F30722E273BFE0CF
:1039D000342E03D1804A525D6273C6E71EB97F4B15
:1039E00053F82530D2E7C4F80D30B2E0212B81D155
:1039F000707800230F283B703FF67CAF3B46224691
:103A00004146CDE90E6505B0BDE8F04F17F0F6BBB5
:103A1000012911D86EE701297FF66CAF96F8019065
:103A2000B9F10F0F08D81AF0DFFB6D4B43F82900EE
:103A30006C4B012203F809200D2D3378D6D1F02BE1
:103A4000D4D175780F2D3FF655AF0C2231460720A3
:103A50000DF0E8FD337B83427FF44CAF96F8029083
:103A60001AF0C2FB604B5E5D8346F6B2EFF3118144
:103A7000402383F31288BFF36F8FEEB9DFF84CC198
:103A80001CF8053003F0FF00ABB9584B5A5D02F04B
:103A9000FF068AB15A5D4E4ED2B20CF80520544A48
:103AA000525DD2B27255534A4A4E32F8152092B244
:103AB00026F815205855362681F31188BFF36F8FED
:103AC0004D4B43F825B04D4B01225A557EB94C4B16
:103AD0001A7862B11A78002A3FF437AF582202FBF5
:103AE000053342F298029B5C002B08BF3226284621
:103AF000FFF7B2FE0723B5FBF3F3C3EBC303EB1AE7
:103B0000B0F1000A03F1010318BF312663700D23E1
:103B10002370F12200230C2EE3706271A57184F8EA
:103B2000079026737FF413AF364906226A438E1836
:103B3000885A7188B288607240F30726E17241F3B7
:103B4000072042F307212672A0726173A273E37308
:103B500023740C22611D07200DF064FD01266074A2
:103B60003E70BAF1000F7FF4C5AE254B1A78002ADB
:103B70003FF4C0AE1A78002A3FF4BCAE582202FBD4
:103B8000053342F298029B5C002B3FF4B3AE0DF17B
:103B90000F03CDE900AA2246414628468DF80FA022
:103BA00017F02CFB9DF80F30002B3FF4A3AEC5E6B9
:103BB00087D2002086D2002080D20020CCCD0020E9
:103BC00010D200203C9900208CCE002060D2002032
:103BD00030D200204CCE002000D20020849A002059
:103BE0008099002070D20020DDD2002050D2002029
:103BF00040D200206CCE00204099002020D200202E
:103C0000A8320020ECCD002070B5094E0024337896
:103C1000E5B2AB4201D9102C00D170BD2846FFF7A8
:103C20001BFE18B933212846FFF7E8FB0134EEE705
:103C3000EED2002008B506200AF06EFC38B10A4B1F
:103C4000436102230374002343748374C3744FF4E9
:103C50008652064917F0A4FB054B00221A70BDE8F6
:103C60000840FFF7D1BF00BF611502007C060200CB
:103C7000A8320020F0B41249582303FB001342F28B
:103C800098041A5DCAB100221A550C46134614F85E
:103C9000016FD5B2AE4204D84B7073B9F0BCFFF7D8
:103CA000C9BF14F8015F85421CBF5F1C5B1802F19D
:103CB00001021CBF9D70FBB2EBE7F0BC704700BF78
:103CC000A83200200F2838B5044625D8EFF3118517
:103CD000402383F31288BFF36F8F1AF085FA0F4BDE
:103CE00000F5A02043F824000D4B01221A5585F35E
:103CF0001188BFF36F8F31212046FFF77FFB094BFF
:103D0000582202FB043342F298029B5C23B1204606
:103D1000BDE83840FFF7AEBF38BD00BF8C9400202F
:103D2000F6D00020A832002073B50A494E7801A8C9
:103D3000324602311CF052FA01AC0025EBB29E4231
:103D400001D802B070BD14F8010BFFF7BBFF0135BD
:103D5000F4E700BFA832002008B50848084A1AF066
:103D60000AFA00F03F010346182000FB01201AF078
:103D700002FA0133181A18BF012008BD88940020E8
:103D80009C8E0020F8B5DFF87CC01D4FBCF80030D9
:103D9000044600200246C6B28E420AD30AB1ACF8ED
:103DA00000300F220021601C1BF074FFF8232370E9
:103DB00022E0B3FBF1F201FB1232531C0F2AB3FBDA
:103DC000F1F601FB16339BB217DC07EBC20E57F876
:103DD0003250DEF804602E430FD0ACF80030FF23E1
:103DE0002370627057F83200C4F80200BEF8043045
:103DF000E3800023A360E360F8BD01300122CAE73D
:103E0000E05F00208ACD00202DE9F3470446894673
:103E100017461D46EFF305832BB155EA020302D086
:103E2000992243490FE004F10806EFF311884FF09F
:103E3000400A8AF31288BFF36F8F304611F0B2FE4A
:103E400030B984223B493C481AF0C5FB1BF00BFFFC
:103E5000304611F0CBFE626A23699A4250D2EFF3EA
:103E600011838AF31288BFF36F8F83F31188BFF336
:103E70006F8F13B93149BB22E5E72568AC421AD0F0
:103E8000CDB1284613F074FA05F1180013F00AFDBD
:103E9000E2686869494600241CF0A0F92846C5F884
:103EA000A04013F0FFFF4146304613F0B5FB20461B
:103EB00002B0BDE8F087206A6369984207D3A3691E
:103EC0005A1E904203D8E2681B1A934201D2B422D0
:103ED000A7E749461CF082F9236AE2681344A26905
:103EE0002362934204BF63692362636A013363629E
:103EF0000024304611F064FEA8B94FF49972A1E78E
:103F000055EA07030CD00E4B9B682246C3F8149069
:103F10004146CDE90075304614F0DEF80446C6E7A8
:103F20006FF02204E5E788F31188BFF36F8FBEE7D7
:103F300089150200C3150200AB150200F01502003E
:103F4000BC9C00202DE9F7430446884617461D46D1
:103F5000EFF3058333B155EA020303D04FF49772B0
:103F60004A490EE004F10806EFF31189402383F378
:103F70001288BFF36F8F304611F014FE30B98422DF
:103F8000434944481AF027FB1BF06DFE304611F000
:103F90002DFE636A002B58D0E268E16940461CF0B0
:103FA0001DF9E369E2681344A269E361934204BF27
:103FB0006369E361636A013B6362EFF3118340224B
:103FC00082F31288BFF36F8F83F31188BFF36F8F73
:103FD00013B93149BB22D4E72568AC4245D0002D46
:103FE00044D0284613F0C4F905F1180013F05AFC28
:103FF000206A6369984207D3A3695A1E904203D886
:10400000E2681B1A934202D24FF4A472A8E76969CE
:104010001CF0E4F8236AE2681344A2692362934225
:1040200004BF63692362636A013363620024284624
:10403000C5F8A04013F036FF4946304613F0ECFABD
:104040002546284603B0BDE8F08355EA070314D09F
:10405000124B9B682246C3F814804946CDE900758F
:10406000304614F039F80546EBE70025304611F0EC
:10407000A7FD28B94FF4997282E76FF02205F5E7A2
:1040800089F31188BFF36F8FDBE700BF891502004A
:10409000C3150200AB150200F0150200BC9C002005
:1040A0001FB501A94FF0FF324FF0FF330548FFF76E
:1040B00049FF9DF80620BDF804000DF1070117F037
:1040C00019FAEEE7880C00202DE9F047054600F1CB
:1040D0000808EFF31189402787F31288BFF36F8F29
:1040E000404611F05FFD064610B984222C490FE0CE
:1040F000404611F07BFDEFF3118387F31288BFF385
:104100006F8F83F31188BFF36F8F33B92549BB22BB
:1041100025481AF060FA1BF0A6FD2C68A54226D0AF
:104120002CB3204613F024F904F1180013F0BAFB65
:104130006FF0220AC4F8A0A0204613F0B3FEEFF3FC
:10414000118387F31288BFF36F8F83F31188BFF356
:104150006F8F002BDAD02C68A54209D044B12046DD
:1041600013F006F904F1180013F09CFBE2E70026B7
:1041700000236B622B6AEB612EB149464046BDE8D5
:10418000F04713F049BA404611F01AFD10B94FF448
:104190009972ABE789F31188BFF36F8FBDE8F087A1
:1041A000C3150200F0150200AB15020008B5062089
:1041B0000AF0B2F938B1124B4361022303740023B1
:1041C00043748374C3740F494FF4865217F0E8F8B0
:1041D0000D4B01221A701AF009F80C4BC3E90001CB
:1041E0000B4B0C4800221A700B4B1A780B4B1A70B1
:1041F000FFF76AFFBDE808400221032006F082B8FD
:104200001B1602006C06020087D20020A03200209C
:10421000EED10020040C0020EED20020EDD10020D1
:10422000154B1649164810B5002400221C700023B7
:10423000C1E9002313490C7013490C701349C1E9FB
:104240000023134B1C70FFF73FFF0120022106F0F3
:1042500059F806200AF060F930B10E4B4361022391
:10426000037444748474C474BDE810400A494FF464
:10427000865217F095B800BF87D20020A0320020E8
:10428000040C0020EED10020EDD100209832002057
:1042900086D200203A1602006C0602002DE9F04793
:1042A000A54B8342A2B040F0E281A44CA2481AF090
:1042B000D7FB002800F3B681EFF31187402383F387
:1042C0001288BFF36F8F9D4C204611F06BFC0028C5
:1042D00000F0C081204611F089FC2046B4F89862B5
:1042E000B4F89A5211F06CFC48B387F31188BFF30D
:1042F0006F8FAE4200F0B5818F4822B0BDE8F04725
:104300001AF00EB8204611F071FC8B4801220DF115
:1043100003011AF06AFB061E0BDD23794BB16379AA
:104320003BB19DF803500A2D0CD1E3796BB100230A
:10433000E371204611F044FC002840F00F814FF457
:10434000997288E10D2DA37931D18422002101A831
:104350001BF0A0FC94F806A0BAF1000F1CD1238A30
:10436000B4F80E90764999441FFA89F9636901936C
:104370004A4602A81BF032FF09F188030DEB03093E
:10438000704809F880AC0022002301A9FFF73CFD2A
:1043900010B10720FEF778FC6B4819F093FEFFF789
:1043A000CDF9A5F10D035D425D41E571C1E7002244
:1043B000E271002BBDD1237A002B47D0022B0FD006
:1043C000032B35D0012BB4D15B2D04D102232381E3
:1043D0001346A37225E04F2D36D103232372A8E79D
:1043E000A5F13002D3B20F2B22D8092B1BD8A37A08
:1043F000002B9ED101236372A38940F2E6318B42E8
:1044000097D892B20A2101FB0322B2F57A7F3FBF0F
:1044100003EB830305EB4303303B9BB228BF40F221
:10442000E733A38185E73B2D83D10123A37280E786
:10443000A5F120030F2B7FF67CAFA5F140033E2BA7
:1044400002D82846FEF754FC0023C7E71B2D02D1F3
:1044500001222281BDE7092D3FF46BAF7F2D01D0F2
:10446000082D30D1E389002B3FF463AF228A1A4430
:10447000013B9BB203F1170192B2E3812144013366
:104480009BB2934208D30820FEF7FEFB238A43B970
:104490002E4819F017FE4CE7E018007E01F8010FD6
:1044A000EDE72B4819F00EFEE589E389228A1344D3
:1044B0009D4201DB2748ECE763190135187EFEF7C2
:1044C000E3FBADB2F1E7A5F120035E2B3FF631AF80
:1044D000E289238A13449BB27E2B1AD803F1180178
:1044E00021449A421BD3531C22442846E38115766B
:1044F000FEF7CAFB238A002B3FF41BAF144819F0C8
:10450000E1FDE589E389228A13449D420DDB1248CF
:10451000BFE701230720A371FEF7B6FB09E711F8F7
:10452000010D4870013B9BB2DBE763190135187E32
:10453000FEF7AAFBADB2E5E760030200D0940020CD
:10454000E8940020D80B002050160200D61202007A
:10455000D9120200DD120200DE12020088F3118877
:10456000BFF36F8F002E04DD42481AF0BCF900281B
:1045700064DC40481AF0ABF900287FF797AE3E4E56
:104580004FF040083B481AF0A2F900287FF78EAEA2
:10459000EFF3118788F31288BFF36F8F364811F05D
:1045A00001FB002856D0304611F020FBB6F89822C7
:1045B000B6F89A52AA420DD12F4811F001FB0028FB
:1045C0003FF4BDAE87F31188BFF36F8F294819F010
:1045D000ACFE6BE68CBF521BC5F5007205F198016D
:1045E000244892B231440EF0ABFEB0F10009C2BFD4
:1045F0004D44C5F30805A6F89A523046B6F898A27D
:10460000B6F89A5211F0DCFA00283FF498AE87F31E
:104610001188BFF36F8FB9F1000F7FF747AEAA453E
:10462000B0D1D3E713481AF062F900287FF744AEFF
:1046300010481AF058F900289BDD4027EFF3118845
:1046400087F31288BFF36F8F204611F0ABFA002872
:104650007FF458AE84220949094819F0BCFF1BF0C9
:1046600002FB044822B0BDE8F04719F05EBE22B05C
:10467000BDE8F08760030200D0940020C31502005B
:10468000AB1502002DE9F04F87B051EA0003054653
:104690000E46019283460F4600F0E080DFF8E0818D
:1046A00070484FF0FF324FF0FF331BF0E5FA6E4BCE
:1046B00098F800001A46824600249946A04203DC7E
:1046C00010280CD0002434E0D2E900E18F4208BF6A
:1046D000F34502F1080200F0A9800134EEE74FF043
:1046E000000AD3E900210A4303F1080320D00AF1AC
:1046F000010ABAF1100FF4D15A4819F027FE082028
:1047000009F00AFF48B1594BC661C0E905350423D9
:104710000374002343748374C37455494FF40252E5
:1047200016F03EFE6FF01B04204607B0BDE8F08F88
:104730000124EFF3118B402383F31288BFF36F8FB3
:10474000012000FA0AF006F0B9F809EBCA03C3E940
:1047500000561CB90AF1010388F800308BF3118868
:10476000BFF36F8F06F0F0F854464FF0010A3D4852
:1047700019F0ECFDBAF1000F5BD00A2009F0CCFE75
:1047800050B13C4BC0E90856C0E905340623037418
:10479000002343748374C37435494FF4435216F0B5
:1047A000FFFDE01C082209EBC40180B215F0BEFF3A
:1047B000012298F800308DF8103004A9104615F049
:1047C000B5FF019B002BAFD0062204A90720CDE93D
:1047D00002560495ADF814600CF024FF4FF080539E
:1047E000051E4FF0080008BF0825D3E9296709F026
:1047F00093FEA8B1204B43613A04E31742EA164204
:104800001B02360443EA146346EA04261343354385
:104810000022C0E906530423037442748274C274F4
:1048200013494FF4035216F0BBFD7DE74FF0000A29
:104830009DE7082009F070FE50B1104B80F811A0E0
:10484000C0E905340323037480F812A080F813A094
:1048500007494FF4C65216F0A3FDB2E76FF01504F6
:1048600062E700BFB00B0020E05F0020531602009B
:104870006C0602007C160200C8160200A716020091
:10488000EED200202DE9FF41404D41484FF0FF326C
:104890004FF0FF331BF0F0F92C78002C39D03D4A53
:1048A000013C02EBC403D3E90067EFF31188402118
:1048B00081F31288BFF36F8F00200021C3E900014C
:1048C000E3B202EBC30223B152F8081D5068014362
:1048D0001CD00120A0402B7005F0F0FF88F3118858
:1048E000BFF36F8F06F030F8294819F02FFD631CD5
:1048F00014D1062009F010FE00283DD126494FF4BE
:10490000845204B0BDE8F04116F04ABD013BDBB271
:10491000D9E74FF0FF3400260027E5E7E0B2FEF7C5
:1049200043FC01222B788DF8073010460DF107016A
:1049300015F0FCFE00220023CDE90223E01C082232
:1049400080B20DEB020115F0F1FE0A2009F0E4FD42
:1049500050B1124BC0E90867C0E90534062303745F
:10496000002343748374C3740B494FF4435216F00D
:1049700017FD04B0BDE8F081094B436102230374C5
:10498000002343748374C374B8E700BFEED20020E1
:10499000B00B0020E05F00206C060200E51602006C
:1049A00012170200F0B54B4B4B4885B000241C7029
:1049B000FFF78AFB4FF0FF324FF0FF3347481BF001
:1049C0005BF9474B1D78EFF31187402282F3128881
:1049D000BFF36F8F1C708022214642481BF05AF9AA
:1049E000102D28464FF0010628BF102006FA00F0CF
:1049F000013805F063FF87F31188BFF36F8F05F06F
:104A0000A3FF364819F0A2FC324630460DF10701EB
:104A10008DF8074015F08AFE00260027E3B29D427C
:104A200041D8062009F078FD002849D12E492F4FA2
:104A30002F4D4FF4865216F0B3FC00242D4B264622
:104A4000184607F8016B05F8016B402200211BF0A6
:104A500021F901340346102C03F14003F0D1002466
:104A6000E0B20134FEF7A0FB102CF9D1224800215E
:104A700019F087FB062009F04FFD38B11F4B436149
:104A800002230374002343748374C37416494FF4E0
:104A9000865216F085FC1A484022002105B0BDE878
:104AA000F0401BF0F7B80134112CBAD0A01C08223A
:104AB0000DEB020180B2CDE9026715F037FEADE7DC
:104AC000104B436102230374002343748374C37443
:104AD000ACE700BF87D20020040C0020B00B002000
:104AE000EED20020E05F00206C0602008DD2002094
:104AF0009DD20020E05B0020C09900203117020009
:104B00008CCD0020271702002DE9F0410446154600
:104B10000F4619F06BFB4FF0FF3380464FF0FF322A
:104B200035480E461BF0A8F8344B1B78A34237D902
:104B3000334B03EBC40253F83430526813432FD085
:104B4000304B03EB8413D3E9082352EA030127D047
:104B5000B8EB020866EB030641F28933984576F11B
:104B600000061DD2284B24481F55284B23F814500B
:104B7000274B24221A5519F0E9FB4DB30A2009F0FE
:104B8000CBFC50B1234BC0E90775C0E905340523C0
:104B90000374002343748374C3744FF4235226E0D8
:104BA000154819F0D3FB082009F0B6FC40B11A4BA8
:104BB000C0E9053403230374002343748374C3746E
:104BC00016494FF4C45216F0EBFB0020BDE8F0810B
:104BD000082009F0A1FC40B1114BC761C0E90534C0
:104BE0000423037445748574C5744FF403520B4950
:104BF00016F0D6FB0120E9E7B00B0020EED2002032
:104C0000E05F0020E05B002010D20020CCCD00202F
:104C1000DDD20020D81702006D1702006C060200DA
:104C20009A170200F8B54FF0FF324FF0FF330646F7
:104C30001348144C0F461BF01FF8134B134A93F8FC
:104C400000C000231D464FF0010ED9B28C4501D99A
:104C5000102B04D10A4819F079FB2846F8BDD4E995
:104C60000010014304F1080407D0D2E90801B04262
:104C7000B94124BF0EFA03F10D4301334032E4E79A
:104C8000B00B0020E05F0020EED20020E05B0020AF
:104C9000F8B54FF0FF324FF0FF3300AF044627481E
:104CA0001AF0EAFF264B274A187800231D460126F2
:104CB000D9B2884233D8214819F048FB224A002350
:104CC00025FA03F1C90748BFD4540133102BF7D19B
:104CD0000022134625FA02F101F0010101320B44D2
:104CE000102ADBB2F6D1362C96BF184A184952F872
:104CF00024108AB06A461748CDE907434FF4007381
:104D0000ADF82430144BCDE9050142F8103F1348AB
:104D10004FF4335116F0F6FE2846BD46F8BD102B71
:104D2000C9D0D2E9001C51EA0C0118BF06FA03F100
:104D300002F1080218BF0D430133B9E7B00B0020A0
:104D4000EED20020E05F0020DDD20020E00B020068
:104D50004B14020011180200050000016C0602004D
:104D6000642870B5054615D9082009F0D5FB40B177
:104D70002E4BC0E905350323037400234374837469
:104D8000C3742B494FF4C25216F00AFB6FF015049E
:104D9000204670BD274819F0EEF9044698B1062068
:104DA00009F0BAFB38B1244B43610223037400239A
:104DB00043748374C3741E494FF4845216F0F0FA9E
:104DC0006FF00F04E4E71D4B002D1D601C4B14BF5A
:104DD0002A46802228461A70FEF7ACF919F006FA26
:104DE00040F6AC568019174B41F10001C3E90001B0
:104DF0002146154819F0C5F901210E4819F0C1F9ED
:104E00000A20FFF745FF082009F086FB40B10F4B51
:104E1000C661C0E905350423037444748474C47402
:104E200003494FF4035216F0BBFAB1E75F180200D2
:104E30006C060200D4980020891802003C990020DA
:104E4000BAD1002090320020D0980020B91802007A
:104E5000F7B50D46044651492846FCF7D4FC20B16D
:104E60004F492846FCF7CFFCD0B90F2C72D8082048
:104E700009F052FB40B14B4BC0E9053403230374E6
:104E8000002343748374C37447494FF4C65216F029
:104E900087FA3021204603B0BDE8F040FEF7AEBAF5
:104EA00042492846FCF7AFFC20B141492846FCF7AF
:104EB000AAFCA8BBFF2C19D1062009F02DFB38B1A4
:104EC0003C4B436102230374002343748374C37413
:104ED00035494FF4845216F063FAFEF725FFFEF7CA
:104EE00087FC03B0BDE8F040FEF78EBE0F2C31D832
:104EF000082009F011FB40B12F4BC0E90534032312
:104F00000374002343748374C37427494FF4C45259
:104F100016F046FA204603B0BDE8F040FEF7D2BED8
:104F200026492846FCF76FFC0446002834D1244D5E
:104F30002B785BB36E78FEF735FC31460246802352
:104F4000204819F03BFB05F5005658276A78E3B274
:104F50009A4201D803B0F0BD2B4442F29A0E9978E0
:104F6000D6F8900007FB015342F2990233F80EC0C5
:104F70009A5C33F80E301FFA8CFCA0EB0C0000900A
:104F80009BB2114819F01AFB0134DFE70F4803B058
:104F9000BDE8F04019F012BB0D48F8E7FE550200DD
:104FA000F5180200FB1802007C0602002919020015
:104FB0002F1902003619020050190200556502002F
:104FC000A83200207119020097190200CB190200C3
:104FD000E31902002DE9F84320EAE0704FF40043A2
:104FE00040F2E7344FF00008E0FB0348EFF305839D
:104FF0003BB140F2C6423149314819F0ECFA1AF09F
:1050000032FEEFF3058616B14FF49362F3E7B4F581
:105010007A7F78F100030ED213F0A2F900234FF447
:105020007A7147F6FF720020E3FB0120D20B42EABF
:105030004040BDE8F883EFF31187402383F31288E3
:10504000BFF36F8F1F4810F0ADFD10B984221E49C9
:10505000D2E71E4D1B4810F0C9FD1D4BA868186013
:1050600012F0F6FF4FF47A72002320464146FCF717
:1050700021FBD5F8089002460B46484612F00CFC7E
:10508000AA68137C43F00403044613740D4810F01F
:1050900097FD10B940F26D12D9E7384612F090FA38
:1050A000AB68D3E90A23B3F1004F08BFB242B5D1D0
:1050B00013F0BCF9231A23EAE373B0E7061A0200DF
:1050C000AB150200E09C0020C3150200BC9C002030
:1050D000B89C00202DE9874819F088F8DFF88CA1EA
:1050E00005460F464FF0FF38C820FFF773FF19F051
:1050F0007DF8044652480E4619F03DF8B8B1231A1F
:1051000061EBE070B3F57A7F70F100000FDB4D4882
:1051100019F031F8011E6FDD4B4819F032F849489B
:10512000002119F02EF84648214619F02AF8474B7D
:105130001B78002B5AD0621B66EB0703B2F57A7F0F
:1051400073F1000350DB4048414D19F014F8002181
:105150000746404819F015F8DAF800B08146BBF16F
:10516000000F15D02B880193082009F0D5F950B114
:10517000394A019BC361C0E9052B04230374002352
:1051800043748374C37435494FF4035216F008F91D
:105190000022DFF8DCB02A80CAF8002015465BF850
:1051A000042BBAB10820019209F0B6F950B12C4B8A
:1051B000019AC261C0E905350422027400224274DA
:1051C0008274C2744FF40352244916F0E9F80022A5
:1051D0004BF8042C0135102DE1D1B9F1000F08D0A6
:1051E000B84519D1B84601E02C463E46254637461B
:1051F0007AE74FF0FF38F9E71A4818F0BCFF0028AB
:1052000091D0221A66EBE073B2F57A7F73F1000059
:1052100089DB0D48002184E7082009F07DF940B1C1
:10522000114BC0E9053703230374002343748374CF
:10523000C3740A494FF4C65216F0B2F8D2E700BF61
:10524000388E0020308E0020348E00208CD200203A
:1052500088CD0020408E0020281A0200AC060200F3
:10526000461A02003C8E00205B1A0200848E002049
:10527000448E00202DE9FF41204D082095F8427012
:1052800095F8438009F048F940B11D4BC0E9053855
:1052900003230374002343748374C37419494FF4C4
:1052A000C65216F07DF8022400261022002168461E
:1052B0001AF0F0FCF123A7428DF800308DF8018040
:1052C0008DF8026008D93A1B0D2A28BF0D22291932
:1052D0000DF103001AF082FF0021684606F034FD4C
:1052E00001360220FFF776FE062E04F10D04DCD114
:1052F000002385F8443004B0BDE8F08106D10020D9
:10530000671A02007C060200034B93F844300BB18D
:10531000FFF7B0BF704700BF06D100202DE98048DD
:105320008FB000AF18F062FF104BC3E900014FF4DB
:10533000FA70FFF74FFE18F059FF0D4BB9610021CD
:1053400078623B620C46D3E90C0250EA020525D094
:105350007D6A281ABD6965EB0202B0F57A7F72F1A9
:1053600000021BD3D86A28B1986312E0D8580020F5
:10537000E05B0020D3E9085255EA020609D07E6AB4
:10538000751BBE6966EB0202B5F57A7F72F1000209
:10539000EAD27A6A1A63BA69DC625A630131102967
:1053A00003F14003CFD1B34B1B7823B3B24BD3E906
:1053B0000001012871F100021DDBD3E900017A6AC6
:1053C0008242BA698A4116D3AA4A002000240021E9
:1053D0001470C3E90001062009F09EF830B1A74B14
:1053E00043610223037444748474C474A4494FF465
:1053F000865215F0D5FFA34B796AD3E900238A1AA8
:10540000B96961EB0303B2F57A7F73F10003C0F071
:105410002E8110229C4BFA6100249A6B1444FA6985
:10542000013A03F14003FA61F7D1082009F074F85A
:1054300040B1964BC0E9053403230374FB69437400
:105440008374C3744FF4C6528D4915F0A9FF8D4B78
:105450007A6A1A60BA695A608D4B1B78102B1A460B
:1054600028BF10227A6113B101239340013B894880
:10547000DFF8609218F07FFE00EA03028648FA60C7
:1054800018F079FE4FF0000800EA0304C346C24654
:105490007B695FFA88F18B4200F233817E4818F015
:1054A0006AFE844203D0796A7C4818F06AFE21467D
:1054B000794818F066FE51467948DFF81CA218F0CA
:1054C00060FE59467748DFF814B218F05AFE764B62
:1054D000DFF80CC21B68FB606B4800231C461D46AE
:1054E0001E4682697A61DBF800203A617A69DCF84D
:1054F00000E04CF8042BFA680168D0F81490DAF850
:1055000000804BF8049BDA40D2074AF8041B13D5FD
:105510004145C0F087817A697245C0F083813A695C
:10552000914540F07F817A69A1EB0801A2EB0E0260
:10553000D14201D00D4414440133102B00F140003E
:10554000CFD176B9594B1B785BB9594818F013FE87
:10555000002800F06981574818F00DFE002800F07F
:105560006381FDF733FBDFF84081D8F800A018F025
:105570003DFE474BC7E90110474818F0FCFD1A787B
:105580000F2A00F20E82002A00F00E8201239340BF
:10559000013B00EA030600231C46D9B2914202D225
:1055A000102B40F00382D8F800307B619E4204D07B
:1055B000414B00221A70FDF709FB002C40F02682B7
:1055C00010253C4818F0D7FD7B6938619E4240F0B9
:1055D0003C823A4B1B78AB4240F0568218B9364BAE
:1055E0001A78374B1A70324818F0C5FD00283ED0A3
:1055F000344818F0C0FD002839D12E4818F0BBFD02
:10560000011E0CBF4FF020084FF01F08EFF311866A
:10561000402383F31288BFF36F8F254818F0ABFD4A
:10562000002840F081830022134686F31188BFF3DF
:105630006F8FF869D8B1002900F0BD832248114668
:105640006C468CB06A46214D0991CDE90550F86948
:10565000CDE907034FF40073ADF828301C4B42F836
:10566000103F07484FF4535116F04CFAA546014B32
:105670001B7837E08CD20020D0580020B21A0200EC
:105680006C060200D8580020E05B0020CF1A020010
:10569000EED20020649C0020209C0020C0990020B5
:1056A0001C9C0020189C0020C49A0020A8320020D6
:1056B000149C0020C89A00208BD20020EDD200203C
:1056C0008AD200200C9C0020BC6F02008D1C0200BE
:1056D00006000001249C0020449A0020C499002068
:1056E000049A0020002B3FF422AEB749D1E90023F1
:1056F00052EA030040F062837B6A0B60BB694B6037
:1057000015E6012303FA08F6B04B03EB88031846AD
:105710003B6118F030FDFA68324003462DD058B393
:105720007A6A451E551B62EB0202002AB8BF0025AB
:1057300001220846C7E90123FDF770FD0128D7E9DA
:10574000012306EA04011BD199B1082008F0E4FE08
:1057500040B19F4BC0E90538032303740023437411
:105760008374C3749B494FF4C65215F019FE24EAA2
:105770000604002148462DE002464FF0FF35D8E7E9
:10578000002935D07AB343F69722954225D90C20CB
:10579000BB6008F0C1FE80B1BB688F4A03627B6AC0
:1057A000436243F698238362C0E905280723037404
:1057B0000023C56143748374C37486494FF46252F5
:1057C00015F0EEFDF143854818F0F6FC386924EA3F
:1057D0000604002118F0D5FC05E041F26F739D42EC
:1057E00001D94BEA060B08F1010809F104094FE65B
:1057F000002ABED041F26F739D42BAD8484618F0D5
:10580000BAFC30B9796A484618F0BBFC4AEA060A85
:10581000E9E77B6A181AB0F5FA6FF7D334432AEA3E
:10582000060AA7E7012687E66D4B1E786D4B1B78AD
:10583000B3427FF496AEE5423FF493AE6A48DFF898
:10584000BCC1036805EB0308DCF80050C0F8008019
:105850002544664CCCF80050217808EB0502013154
:10586000C9B2632A21707FF67EAE002303604FF435
:105870007A793220A5FB09A9CCF80030A2FB00C040
:10588000D445237070EB090E4FF00A04DFF870E185
:10589000A2FB04B406D29EF800300B44052BA8BF2F
:1058A0000523DBB2DA4579EB04048EF80030DFF82B
:1058B00054E14DD29EF800400C441E2CA8BF1E247B
:1058C000E4B2E24579EB0000DFF83CC18EF800401D
:1058D00040D29CF8000008447828A8BF7820C0B2C5
:1058E000052B8CF8000037D1032E00F282823C4B4E
:1058F0007A610136F6B21E70FDF768F93C4B0E2056
:1059000033F816B008F008FE0446D0B17A690023D7
:1059100050464946FBF7CEFE364B25630A22C4E9C2
:1059200005360423C4E9073BB0FBF2F302FB130086
:105930006362C4E90A080923237400236374A3740F
:10594000E37424494FF49142204615F029FD0AE6FC
:105950000024B6E70020C3E71E2C02D078287FF48D
:1059600002AE002E3FF4FFAD1D4B013EF6B21E709D
:10597000FDF72CF91E4B0A2033F8164008F0CCFD39
:1059800058B11D4BC0E905360423C0E9073405238F
:105990000374002343748374C3740E494FF4235279
:1059A000D3E74FF0FF33F4E51346F2E526FA03F0B0
:1059B000C50707D5601C07F1280510342C4404F8EE
:1059C000101CC4B20133E8E5C8580020709C0020C8
:1059D000DD1A02006C060200FA1A0200649C002024
:1059E0008BD200208AD20020B49C0020EFD200206D
:1059F000BC110200371B02007C1B0200B09C00207F
:105A0000F2D20020F1D20020F0D20020AF4818F0EE
:105A1000B2FB00287FF4D4ADAD4B1A78AD4B33F810
:105A20001230002A04FB03F34FF40045B5FBF3F5F5
:105A300014BFFF2340239D4228BF1D4625F00105CA
:105A4000102D7FF6BDADEDB2BBE5A14B197841F24B
:105A50008830A14BD3E9002E52EA0E0C09D0BB6866
:105A60009A1A7B6863EB0E03824273F10003FFF422
:105A7000BAADACB9994BC8F800401C70984B1022D5
:105A80001A70984B1970AEE5914B19783B69002B51
:105A9000DDD1944B1B788B42D9D043F69820D8E7C0
:105AA000914ADFF8488213780133DBB21370FB6050
:105AB000FDF7AEF9FA6842EA04404FEA044E2B02C1
:105AC00040EA052007F1280C0022B2FBF4F11CF893
:105AD000019B04FB112140EA0161013248F82910C1
:105AE000D1B28C42F1D8F868034343EA0E037F48F1
:105AF0000022012143F07F4301FA02FC1CEA060F59
:105B000008BF40F822300132102AF5D1784818F049
:105B100032FB002840F0AC80704B75481C70704B15
:105B20001D70744B1E6018F026FB002855D0674886
:105B300018F021FB002850D06F4A13889BB2002B2D
:105B400000F0BF80B2F800901FFA89F92046FDF7F7
:105B500057F86A4A4845138828BF48461FFA80F814
:105B60009BB2984539D0F1436548A2F8008018F0FF
:105B700023FBBB68DFF8A8A14FF0000B03F2DC5158
:105B800026FA0BF2D20707D5FDF756F85D4B23F83E
:105B90001B00504618F0F5FA0BF1010BBBF1100F8A
:105BA0000AF1040AECD12046FDF72AF882460A20C1
:105BB00008F0B2FC60B1544BC0F824A0C0E905392C
:105BC000C0E9078406230374002343748374C374F9
:105BD0004E494FF4435215F0E3FB3F4BBA681A604D
:105BE0007A685A607B69DFF8E8E09E4201D13B6940
:105BF0001BB93C4B9EF8001019707B699E4205FB57
:105C000004FC4FF40041B1FBFCF15DD1404B414835
:105C10003A69002A18BF03469EF800002D4AE8465C
:105C200094B032F810E06A46DFF8F8900B91CDE9B5
:105C300005930023CDE907344FF40043B3FBF5F39C
:105C4000CDE90C3E04230F93FB680E90CDE910368E
:105C50004FF40073ADF848302F4B2C48CDE9095C68
:105C600047F2C04142F8103F15F04CFFC546BAE478
:105C700036EA0A083FF450AF6FEA08012048DFF81F
:105C8000A090DFF880A018F097FABB684FF0000BE7
:105C900003F2DC5128FA0BF3D8070AD50B4818F0A9
:105CA0006AFA18B1FCF7C8FF2AF81B00484618F03A
:105CB00068FA0BF1010BBBF1100F09F10409E9D1EE
:105CC0002AE74FF0640941E7144BA5E7C89A002082
:105CD0008BD20020BC110200C058002089D20020C5
:105CE000EDD200208AD2002088D20020849A0020A1
:105CF000149C0020C49A0020AECE0020ACCE002020
:105D0000109C00208CCE0020A21B02006C0602001A
:105D1000A61A02009D1A02000E000001921A02004B
:105D2000CC9B0020EF1B0200794818F024FA824631
:105D300000287FF478AC7748774BDFF80C9218F0A6
:105D40001AFA1C6824EA000409EB8A05284618F0B0
:105D500012FA24FA0AF3DB0702461BD57B6A1B1AE8
:105D6000002B17DB6D4B13F80A309BB921B1FCF700
:105D700063FF6B4B23F81A00284618F0FCF98242A7
:105D800008D1664BFA6903F80A80012303FA0AF383
:105D90001A43FA610AF1010ABAF1100FD4D1614A2B
:105DA00013889BB22BB113889BB25F4A128892B2C0
:105DB0003BE46423F9E75D480B4641E4796A8A1ABB
:105DC000B96961EB0303B2F57A7F73F10003FFF465
:105DD000AEAA574A002352F8231089B91033B3F5FD
:105DE000807FF8D1534B7A6A1A60BA695A60FFF71C
:105DF0009EBA1E2C3FF4B8AD78287FF4B4ABB3E55F
:105E0000062008F089FB38B14B4B43610223037431
:105E1000002343748374C3744849DFF830914FF40E
:105E2000865215F0BDFA4FF000083B6A1E681B69E8
:105E300053EA060262D03A6AD4689D192D191FBF31
:105E40004FF47A7253435443B4FBF5F418BFB3FBD9
:105E5000F5F53B6A9B6908BF2C46F61818BF4FF44E
:105E60007A725FFA88F01CBF5343B3FBF6F6FDF776
:105E7000D5F93B6A59F820B0D3F800A01B69FB6143
:105E80003B6AC7F810D0D3E90510D3F80CE0D3F87B
:105E900004C09B6B7B6196B06A46294BCDF82CC041
:105EA000CDE90538FB694FF00A0CCDE9093EB6FB98
:105EB000FCFE7B6914930CFB1E6640F20133CDE9B6
:105EC0000D60B5FBFCF0ADF854300F900CFB105595
:105ED0001C4BB4FBFCF00CFB1044CDE912411190BB
:105EE000CDE907BACDF830E01095144842F8103FDC
:105EF00048F6C04115F006FED7F810D03B6A08F10D
:105F000001084033B8F1100F3B628ED16AE700BF41
:105F10000C9C0020109C0020C49A0020DDD20020A0
:105F20008CCE0020AECE0020ACCE0020C8540200A3
:105F3000E05B0020C8580020D81C02006C0602005C
:105F4000F21C020011000001CC9B0020BC0C0200DE
:105F500038B5062008F0E0FA38B11F4B4361022340
:105F60000374002343748374C3741C4C1C494FF4A2
:105F7000865215F015FA23785BB3002506202570AC
:105F800008F0CAFA30B1174B436102230374457419
:105F90008574C57412494FF4865215F001FA0A202F
:105FA000FFF718F8237893B1062008F0B5FA38B156
:105FB0000D4B436102230374002343748374C37441
:105FC000BDE8384006494FF4865215F0E9B910F0A3
:105FD00055FA0023237038BD701D0200FFD1002048
:105FE0006C0602008B1D02009E1D020008B50620F3
:105FF00008F092FA38B1174B43610223037400236F
:1060000043748374C37414494FF4865215F0C8F96D
:10601000124A1249FF23137040F20310012215F0B7
:1060200069FAFFF795FF15F0EFFD13F071FD0620FB
:1060300008F072FA38B10A4B43610223037400235B
:1060400043748374C374BDE8084003494FF4865217
:1060500015F0A6B9B81D02006C0602005C0A00200B
:10606000E21D02002DE9F74F06460C4618F0BEF877
:1060700081464FF47A700191FEF7ACFF4FF0FF3389
:1060800030484FF0FF3219F0F7FD2F4BDFF8D4C046
:1060900093F80080DFF8D0E02C4900231D461F460E
:1060A0004FF0240A4FF0010BDAB2904501D9102BC2
:1060B00019D1244818F04AF98CBB082008F02CFAB2
:1060C00040B1234BC661C0E9053504230374447411
:1060D0008474C4744FF403521E4915F061F93846B4
:1060E00003B0BDE8F08FDEE9000202430EF1080EB6
:1060F00011D0DCE908024845019882410BD3164AC9
:10610000D654164A013522F813400BFA03F201F86F
:1061100003A01743EDB201330CF1400CC4E70A2091
:1061200008F0FAF950B10E4BC0E90764C0E9053533
:1061300005230374002343748374C3744FF4235200
:10614000CAE700BFB00B0020EED20020DDD2002055
:106150000A1E02006C06020010D20020CCCD0020E6
:10616000501E0200E05B0020E05F00202DE9F74FA9
:106170004FF0FF334FF0FF320646594819F07CFDCF
:106180000121584817F0FDFF574817F0E7FF054673
:1061900018F02CF807460C464FF47A70FEF71AFFF9
:1061A00021463846FEF73EFD0446EFF311874023B3
:1061B00083F31288BFF36F8F4B4817F0DCFF013574
:1061C000A84220D087F31188BFF36F8F4548002184
:1061D00017F0D7FF062008F09FF938B1434B436111
:1061E00002230374002343748374C37440494FF43F
:1061F000845215F0D5F83A4818F0A8F80024204643
:1062000003B0BDE8F08F01213A4817F0BAFF3A48D1
:1062100017F0B7FF3948002117F0B3FF384B1E8045
:106220001A8892B2002A59D01D88ADB2DFF8DC80FE
:10623000DFF8DCA098F80000DFF8D890FCF7E0FC6D
:10624000A84228BF284680B2AAF80000FCF7F4FC58
:10625000019017F0CBFF4FF0000B0646294B019A37
:1062600023F81B20484617F086FF301A002803DB6E
:106270000021484617F085FF0BF1010BBBF1100F11
:1062800009F10409EAD11F2032462146FCF710FE2D
:106290000021144817F075FF87F31188BFF36F8F43
:1062A000BAF8006098F800700A20B6B208F034F925
:1062B00058B1154B4462C0E90535C0E907670623AC
:1062C0000374002343748374C37409494FF4435225
:1062D00015F066F8024818F039F890E76425A5E74C
:1062E0009C0B00200C9C0020E0980020911E0200D6
:1062F0006C060200149C0020C89A0020109C00200C
:10630000AECE00208CCE0020CC1E020089D2002010
:10631000ACCE0020CC9B00202DE9F0474FF0FF329F
:106320004FF0FF33464819F0A7FC0121454817F00C
:1063300028FF454817F012FF044617F057FF06469E
:106340000D464FF47A70FEF745FE29463046FEF7BB
:1063500069FC0546EFF31186402383F31288BFF3EF
:106360006F8F394817F007FF0134A0421FD086F322
:106370001188BFF36F8F3348002117F002FF06200A
:1063800008F0CAF838B1314B43610223037400238B
:1063900043748374C3742E494FF4845215F000F88B
:1063A000274817F0D3FF00252846BDE8F0870121D4
:1063B0002848DFF8B890284F17F0E3FE002127485F
:1063C00017F0DFFE264817F0DCFE264B0C4619803E
:1063D00017F00CFFA2468046484627F814A017F095
:1063E000CAFEA8EB0000002803DB0021484617F096
:1063F000C8FE0134102C09F10409EDD120204246D9
:106400002946FCF755FD00210E4817F0BAFE86F329
:106410001188BFF36F8F062008F07EF838B1124B59
:10642000436102230374002343748374C3740849D3
:106430004FF4865214F0B4FF014817F087FFB3E71A
:106440009C0B00200C9C0020E09800201D1F0200E7
:106450006C060200149C00208CCE0020C89A0020FC
:10646000109C0020ACCE0020591F0200CC9B0020C5
:106470002DE9F04F93B000AF064617F0B7FE054682
:106480000C464FF47A70FEF7A5FD28462146FEF72C
:10649000C9FB2B4A8146002329FA03F1C90748BFEB
:1064A000D6540133102BF7D10025DFF8B8B0A84639
:1064B0002C4607F1040A29FA05F3DB0717D5B8F1D2
:1064C000400F12D81F4A2B46002C08BF5A46C8F16D
:1064D00041010AEB080017F0B1FD002805DDC8F105
:1064E0004003834294BF984480440134E4B20135B0
:1064F000102DE0D104B93C71362E96BF124B1349D2
:1065000053F82610D4B13B1D8CB06A461048CDE933
:1065100005014FF47A71CDE909130E4B0B930E4B25
:106520000E48CDE9076444F2C00142F8103F15F06F
:10653000E9FA48464C37BD46BDE8F08F084BE3E723
:10654000DDD200209D1F0200E00B02004B14020070
:10655000A61F020000020406070000026C060200EB
:10656000A11F0200641A02002DE9F041071E104627
:106570000CBF88464FF0FF080E4614461D4617F024
:10658000EDFE10B3B8F1FF0F10D1712C204601D0F1
:10659000012C08D1FEF77CFB87B129460D48BDE8E8
:1065A000F04118F00BB8FFF763FFF5E7B8F10F0FF4
:1065B0000BD821464046FCF721FFEDE7064832465E
:1065C0002946BDE8F04117F0F9BF044801222946E9
:1065D000F7E700BF00200200282002004720020049
:1065E0002DE98048EBB0B54B1893B54B18689A88E5
:1065F0009B798DF89630B34B1693B34BADF894203E
:106600009A882490ADF88C201868B04A9B798DF850
:106610008E30AF4B22900A931068AE4B209090883A
:1066200092798DF886201493AB4AADF8840003F17B
:10663000007303F5B753002110688DF8641015330B
:106640008DF85C108DF8541012938DF84C101C903E
:106650009288ADF87420A14A10689288ADF86C2039
:106660009F4A1A909188106892798DF87E209D4AF1
:106670001E90ADF87C101068516830AB03C31189CF
:10668000927A9A70984A19801068516828AB03C3AF
:10669000964B39AA03F1080518685968144603C4D3
:1066A0000833AB422246F7D1914A186820605168FE
:1066B00010681B7923712AAB03C312891A808D4A93
:1066C0000E928D4A099202F1EE42A2F5C022F73AEB
:1066D0000C928A4A8A4B10685168109300238DF8F7
:1066E00044308DF83C308DF834302DAB03C3118924
:1066F000927A9A70834A19801068516836AB03C346
:106700009068814A186010685168804A26AB03C3BC
:106710001068516833AB03C3906818607C4B0893D2
:106720004FF0FF324FF0FF3349A97A48FDF70AFCDA
:10673000499DEFF31186402383F31288BFF36F8FD7
:1067400075480FF02FFA30B984227449744817F055
:1067500042FF19F088FA70480FF048FA6E4B18465D
:106760005C690FF02DFA10B94FF49972EDE786F3DA
:106770001188BFF36F8FA542D2D12022002141A8FA
:1067800019F088FA4AAA10782028134602F101026B
:10679000F9D0A0F109010429F5D941A94FF0000A67
:1067A0000C4655461FE00AF1010ABAF1080F04D160
:1067B0005C48072117F002FFB2E744F8043B1A4691
:1067C00013F8010B88B1202802D009380428F6D824
:1067D00002F8015B134612F8010B2028FAD0A0F151
:1067E0000906042EF6D90028DDD16AAA02EB8A0236
:1067F000002342F8A43CBAF1000F91D051F8042BC9
:10680000013A12F8014F002C50D101335345F5D114
:10681000BAF1010F00F0A280BAF1020F429E00F01F
:10682000A380BAF1030F439F00F0A280BAF1040FD6
:10683000449D00F0A080BAF1050FDDF8149100F03E
:106840009180DDF818B1DDF804810EA94046FAF711
:10685000DAFF002840F09180334817F0AFFE4FF484
:106860009671324817F0AAFE314817F0A7FE31485A
:1068700017F0A4FE304817F0A1FE304817F09EFE36
:106880002F4817F09BFE2F4817F098FE2E4817F060
:1068900095FE2E4817F092FE2D4817F08FFE2D48DA
:1068A00017F08CFE2C4817F089FE39E7A4F141005F
:1068B000192898BF20341470A3E700BF696E666F73
:1068C000DF4B02006C697374FB3B0200201702006F
:1068D000616464007061697234450200F24B020029
:1068E000E64B0200ED4B0200814E0200AC3D02007F
:1068F000F84B020068656C7064667500024C02001B
:1069000073656E640D4C0200194C0200214C0200AC
:106910006F746100D80B0020D0940020C3150200D2
:10692000AB150200802202009E22020064230200B6
:106930003F2502004E260200A4270200BB280200C9
:106940003A2A0200D32C0200352E0200842E0200C7
:106950002B31020042320200A2270200A146254646
:1069600027462646A3466EE7A14625462746F9E771
:10697000A1462546F6E7A146F4E718A94046FAF7EE
:1069800042FF10B904F038F8CAE624A94046FAF7E5
:106990003AFF10B9FBF7DCF9C2E60AA94046FAF75C
:1069A00032FF014688BBBAF1020F03D09C4817F0B2
:1069B00005FEB5E61022304616F0E2F9994ACDE917
:1069C000000105460C463DA80D2117F037FB55EA9E
:1069D000040316D031463DA8FAF715FF88B92146C1
:1069E00001222846FDF74EFE011E03DB8E4817F0FC
:1069F000E5FD95E61C3114BF8C488D4817F0DEFD8F
:106A00008EE68C4817F0DAFD8AE620A94046FAF7B0
:106A1000FAFEA8B98EB10A223DA9304616F0D6F882
:106A20003D9B1B780BB90F2803D9834817F0C6FD8F
:106A300076E6C0B204F0B2FB72E6FDF723FF6FE624
:106A400016A94046FAF7DFFE10B903F0ADFF67E67E
:106A500022A94046FAF7D7FE18B9012004F0DEFF5C
:106A60005EE614A94046FAF7CEFE90BB3EB9FDF7AC
:106A70009DFB72484FF4967117F0A0FD50E60A2274
:106A80003DA9304616F0A2F83D9B1B7804460BB991
:106A9000FF280BD96A4817F091FD6A484FF49671A8
:106AA00017F08CFD684817F089FD39E638B9FDF715
:106AB0007DFB62484FF4967117F080FD30E6C0B25E
:106AC00004F060FA61484FF49672214617F076FDA3
:106AD00026E612A94046FAF796FE10B9FDF7A0FB8C
